:020000040000FA
:10080000549EFFFF0C00007C41414141FFFFFFFF70
:10081000FFFFFFFFFFFFFFFFFFFFFFFFFFFFFFFFE8
:10082000000102030405060708090A0BFFFFFFFF8A
:10083000020DFA021BCDFFFFFFFFFFFFFFFFFFFFCF
:10084000FFFFFFFFFFFFFFFFFFFFFFFFFFFFFFFFB8
:10085000FFFFFFFFFFFFFFFFFFFFFF02233EFFFF42
:10086000FFFFFF022315FFFFFFFFFFFFFFFFFFFF5B
:10087000FFFFFFFFFFFFFFFFFFFFFFFFFFFFFFFF88
:10088000FFFFFF021C43FFFFFFFFFFFFFFFFFFFF14
:10089000FFFFFFFFFFFFFFFFFFFFFF0222C8FFFF79
:1008A000FFFFFFFFFFFFFFFFFFFFFF0222EEFFFF43
:1008B000FFFFFF021A2301120A0A0A0257840100ED
:1008C000001C84025184010000B8151066820100EA
:1008D000008202024D84030000850202518401005F
:1008E00000B91510568203000087020251840100EE
:1008F00000BA15104682030000BB15120A020A0A4C
:100900000257840100001684025184010000FC1586
:100910001066810100008A02024D840300008E02ED
:10092000025184010000FD1510D6800300009002E2
:10093000025184010000FF1510F68003000000162C
:10094000025184010000FE1510E6800100009102B2
:10095000024D84030000A102FF0000B40000280043
:100960002800283075A000A000A000A0000008000A
:1009700008E001F00010001000100010001000103E
:100980000050005000500010001000D00700000080
:100990000000000F00010005003075070010000185
:1009A0000081FF00000000FFFFFFD725F525DD25B2
:1009B0001926FF02020208025000A0000000E8030E
:1009C0000257840100003184025184010000B416F2
:1009D000024B84010000E102025184010000B516BF
:1009E000024984010000F702025184010000B6169A
:1009F000024784010000F902025184010000B71689
:100A0000024584080000FA02025184010000B81671
:100A1000024384010000B916FF0100FF2002578441
:100A20000100002B840251840100001D1702418443
:100A30000000000000024D84030000280317008519
:100A40002C852C852C852C852C852C852C852C851E
:100A50002C852C852C852C852C3D2F4F2F372F1244
:100A600008080257840100002E840251840100000E
:100A7000601710A6820100004707024D84030000A2
:100A80004D07025184010000611710968202000098
:100A90004F07025184010000621710868202000095
:100AA0005707020202020202020202010D000000C8
:100AB00010010257840100001F84025184010000CC
:100AC000A317023984010000580702518401000075
:100AD000A417023B84010000C5800251840100007C
:100AE000A517023D840100006D83025184010000BE
:100AF000A617023F84010000B38002518401000068
:100B0000A717025D84010000688302518401000080
:100B1000A817025F84010000728302518401000063
:100B2000A917026784010000A1800251840100001E
:100B3000AA17025584010000E682025184010000D8
:100B4000AB17026184010000AC1701E803057710C0
:100B50000A120A0A0A0257840100002884025184FA
:100B600001000052181016820100001C08024D847A
:100B7000030000220802518401000053181006826D
:100B80000300002408025184010000541810F6816B
:100B90000300005518038000008070006180120A75
:100BA0000A0A0257840100002284025184010000D5
:100BB0009F1810D681010000AF08024D8403000089
:100BC000B308025184010000A01810C68103000080
:100BD000B508025184010000A11810B6810300007D
:100BE000A218120A0A1E025784010000348402511E
:100BF00084010000E318109681010000B808024D3E
:100C000084030000BC08025184010000E41810763F
:100C100081030000BE08025184010000E51810762F
:100C200082030000E618120A0A0A02578401000033
:100C3000138402518401000027191046810100002D
:100C4000C108024D84030000C7080251840100005E
:100C50002819103681030000C908025184010000E0
:100C600029191016810300002A191C02578401005B
:100C70000019840251840100006B19105080020099
:100C800000CA08024D84030000CC08024F84010012
:100C900000F4820251840100006B19106080020090
:100CA00000CB08024D84030000CE08024F840100EF
:100CB000000183FFFFFFFFFF000130750302010603
:100CC0000000000000000000000000000000000024
:100CD000000000000000000000000000FFFF060010
:100CE000800CE8030A0953656E736F7254616705DF
:100CF0001250002003020A00020105544920424C10
:100D0000452053656E736F722054616700D007E809
:100D100003E803E803E803E803A3350000A935AFBF
:100D200035B535C135BB35C735CD35D335104B65F8
:100D30007920507265737320537461746500025793
:100D40008401000025840251840100002E1A0265EE
:100D500084000000B515024D84030000B615024F53
:100D6000840100002F1AE5C754F84405F5C779013E
:100D70002200000080FB120D66B90003020DE4E4BE
:100D800079217808B800028004F709D8FCE47929B1
:100D90007802B800028004F709D8FCE49002807859
:100DA0003979148002F0A3D8FCD9FA781C9008B6DF
:100DB0007A01BA00028007E493A3F608DAF97AB858
:100DC0007B159008B778B079058015E493A3AD82C0
:100DD000AE838A828B83F0A3AA82AB838D828E83BB
:100DE000D8E9D9E77582F07583E07407120E0C75A7
:100DF000827175830D7400120E0C75D00075813FE1
:100E0000751A80751B02759F00020D76C09FF59FB5
:100E1000E473D09F22D083D082C09FE493C0E0745B
:100E20000193C0E0740293F59F22E066701008A35E
:100E3000E066700A08A3E066700408A3E06622C3B7
:100E4000E7960809E7960809E7960809E79622C396
:100E5000E09608A3E09608A3E09608A3E09622C0D7
:100E60000AC3E096F50A08A3E096420A08A3E096B2
:100E7000420A08A3E096450A7001D3D00A22080866
:100E800008EAC0E0EBC0E086F0E7A4FA180986F0B3
:100E9000E7A42AFA180986F0E7A42AFA180986F0C6
:100EA000E7A42AFA1986F0E7A4FBE5F02AFA190864
:100EB00086F0E7A42BFBE5F03AFA190886F0E7A4E0
:100EC0002BFBE5F03AFA18180986F0E7A4C5F02BD9
:100ED000FBE43AFA1908E7C5F0C6A426F6E5F03BAC
:100EE000FBE43AFA1886F0E7A4F6E5F00826F6E403
:100EF0003B08F6E43A08F6D0E0FBD0E0FA22E4CF73
:100F0000C0E0E4CEC0E0E4CDC0E0E4CCC0E075F0E9
:100F100020E626F608E633F608E633F608E633F66A
:100F2000181818EC33FCED33FDEE33FEEF33FFC33E
:100F3000EC9709ED9709EE9709EF97191919400FEA
:100F4000FFEC97FC09ED97FD09EE97FE191906D500
:100F5000F0BFECF709EDF709EEF709EFF7191919EA
:100F6000D0E0FCD0E0FDD0E0FED0E0FF226016082B
:100F70000808C6C313C618C613C618C613C618C6B3
:100F800013C6D5E0EA22700908080822601618186E
:100F900018C6C333C608C633C608C633C608C63328
:100FA000C6D5E0EA22E627F60809E637F60809E69C
:100FB00037F60809E637F622E026F608A3E036F60B
:100FC00008A3E036F608A3E036F622E026F008A3F0
:100FD000E036F008A3E036F008A3E036F022C3E6DE
:100FE00097F60809E697F60809E697F60809E697DE
:100FF000F622C3E096F008A3E096F008A3E096F08E
:1010000008A3E096F022E056F608A3E056F608A3FF
:10101000E056F608A3E056F622E056F008A3E056A4
:10102000F008A3E056F008A3E056F022E0F608A38B
:10103000E0F608A3E0F608A3E0F622E6F008A3E64F
:10104000F008A3E6F008A3E6F022E0FAA3E0FBA391
:10105000E0FCA3E0FD22EAF0A3EBF0A3ECF0A3EDAB
:10106000F022E0F8A3E0F9A3E0FAA3E0FB22E8F025
:10107000A3E9F0A3EAF0A3EBF022CAC0E0E6F0A3F4
:1010800008DAFAD0E0FA22CAC0E0E0A3C582CCC5F3
:1010900082C583CDC583F0A3C582CCC582C583CD6F
:1010A000C583DAE6D0E0CA22C3E498F8E499F912DD
:1010B00010E98026C3E49AFAE49BFBE920E7E912F1
:1010C00010E9E498F8E499F922C3E498F8E499F96E
:1010D0001210E9E498F8E499F9C3E49AFAE49BFB66
:1010E00022EB20E7CFE920E7E0B90010BB0008E8D9
:1010F0008AF084F8AAF022E4FBC8FA22EB70227B83
:1011000010C833C8C933C9335007C39AC3DBF28050
:10111000069A50012ADBEAC833F4C8C933F4C9FA85
:101120002275F008E4C833C8C933C933C99AC99BCA
:101130005004C92AC93BD5F0ECFBC833F4C8E4C954
:10114000FA22600D08C6A2E713C618C613C6D5E07A
:10115000F322600C08C6C313C618C613C6D5E0F444
:1011600022700422600D18C6C333C608C633C6D524
:10117000E0F41822251A10AF08F51A400C151B8050
:1011800008F51A4002151BD2AF2200C0D0251A1054
:10119000AF08F51A500C051B8008F51A5002051B04
:1011A000D2AFD0D022251AF58210AF08F51A400C24
:1011B000151B8008F51A4002151BD2AF851B832230
:1011C000251AF582E4351BF58322251AF8E4351B30
:1011D000F922251AFAE4351BFB22251AFCE4351BFB
:1011E000FD22E473251AC582C0E0E51B34FFC583E8
:1011F000C0E0E51AC3958224F810AF0885831B85EB
:10120000821A800885831B85821AD2AFCEF0A3E5AF
:1012100020F0A3780AE608F0A3DEFAEFF0A3E58158
:1012200024FAF8E608F0A3E608F0A3E608F0A3081D
:1012300008E608F0A3E608F0A315811581D0E0FECA
:10124000D0E0F8158115811581E8C0E0EEC0E022FC
:10125000251AC582C0E0E51B34FFC583C0E0E51A4E
:10126000C3958224F910AF0885831B85821A8008F4
:1012700085831B85821AD2AFCEF0A3E520F0A37838
:101280000AE608F0A3DEFAEFF0A3E58124FBF8E616
:1012900008F0A3E608F0A30808E608F0A3E608F0C3
:1012A000A315811581D0E0FED0E0F815811581E805
:1012B000C0E0EEC0E022851B83851A82E0A3FEE039
:1012C000A3F520780AE0A3F608DFFAE0A3FFE0A385
:1012D000C0E0E0A3C0E0E0A3C0E0E0A3C0E0E0A382
:1012E000C0E010AF0885821A85831B800885821AAA
:1012F00085831BD2AFD083D082020E12851B8385DB
:101300001A82E0A3FEE0A3F520780AE0A3F608DF46
:10131000FAE0A3FFE0A3C0E0E0A3C0E0E0A3C0E0E8
:10132000E0A3C0E010AF0885821A85831B80088582
:10133000821A85831BD2AFD083D08222C0D0251AD7
:10134000C582C0E0E51B34FFC583C0E0E51AC39544
:101350008224F310AF0885831B85821A8008858359
:101360001B85821AD2AFC8F0A3E9F0A3EAF0A3EB81
:10137000F0A3790AE709F0A3D8FAECF0A3EDF0A303
:10138000EEF0A3EFF0A3D0E0F0A3D0E0F0A3D0E024
:10139000F0A3E520F0A3E5F0F0A322851B83851AD6
:1013A00082E0C0E0A3E0F9A3E0FAA3E0FBA3780A9F
:1013B000E0F608A3DFFAE0FCA3E0FDA3E0FEA3E073
:1013C000FFA3E0C0E0A3E0C0E0A3E0F5D0A3E0F518
:1013D00020A3E0A3F5F010AF0885831B85821A8057
:1013E0000885831B85821AD2AFD082D083D0E0F8E3
:1013F000D0E03274048006740280027401C0E0F40C
:10140000041211A5D0E012107A2274048004740230
:101410008000CCC0E0EDC0E0E51AC39CCCAD1B5011
:10142000011D10AF068C1A8D1B80068C1A8D1BD2E5
:10143000AF121087D0E0FDD0E0FC22D083D082E94B
:10144000C0E0E493A3C386F0C5F095F0F908E493F7
:10145000A386F0C5F095F0700BE493A3C399400503
:10146000E9048002A3E475F002A42582F582E5F088
:101470003583F583D0E0F9E493A3C0E0E493C0E0C2
:1014800022D083D082ECC0E0EDC0E0E493A3FCE482
:1014900093A3FDED4C600D1214CDEC24FFFCED3454
:1014A000FFFD80EFE493A3FCE493A3FDED4C600DFE
:1014B00012150CEC24FFFCED34FFFD80EFD0E0FDB5
:1014C000D0E0FCE493A3C0E0E493C0E022C0E0C31A
:1014D000E49396087401939618400FE4936670089D
:1014E00008740193661870007019A3A3C3E493965F
:1014F000087401939618A3A3400DD0E0D0E0D0E08B
:101500000214BDA3A3A3A3A3A3D0E022C0E0C0F014
:1015100088F0E4936670080874019366187000A858
:10152000F0A3A3700BD0F0D0E0D0E0D0E00214BD67
:10153000A3A3D0F0D0E022FF74F6121250EAFEEB23
:10154000FF8C0A8D0BEE2434F8E43FF9E8FCE9FD4A
:10155000EE2435121872FAEE2437121872F8850A42
:10156000F0A4C885F00C850BF0A4250CF9EA28F846
:10157000E439F97A257B001210E9EA8C828D83F038
:10158000FA131313541FF8EE28F8E43FF9E8245D2A
:10159000F582E439F583E0C0E074075AF8D0E0B88A
:1015A00000028004C313D8FCA2E0EE50082434F5F6
:1015B00082E43F80182436121872F5F0EA84A8F00D
:1015C000EE28F8E43FF9E82438F582E439F583E0C1
:1015D000F97F030212FC74F7121250EAFEEBFFEEE1
:1015E0002434121872C0E0EE2435F582E43FF5830E
:1015F000D0E0F08E828F83A3A3A3A3A3A3A3C08272
:10160000C0838E828F83A3A3A3A3A31216DBD083F0
:10161000D082E0C398F50AA3E099F50BEE247F127F
:1016200018726401705DEE24801216D58E828F834D
:10163000A3A3A3A3A3A3A3121A158E828F83A3A38C
:10164000A3A3A3E0FAA3E0FBC3EA9CEB9D5010C365
:10165000EC98ED99402DC3EA98EB995026800EC383
:10166000EA98EB994007C3EC98ED9940167CD27D3F
:1016700004EEFAEFFB122BC5EE247FF582E43FF572
:1016800083E4F0AC0AAD0BEEFAEFFB121538E9F982
:101690001222BA7F020212FCC082C083851A8285A0
:1016A0001B831216DBC3EA9CEB9D5010C3EC98ED34
:1016B00099401BC3EA98EB995014800EC3EA98EB4B
:1016C000994007C3EC98ED994004790180027900B4
:1016D000D083D08222F582E43FF583E0F8A3E0F9DD
:1016E00022EAC39CFAEB9DFB2274EF121250900386
:1016F00098E064086005E06407702A9061C8E060C3
:10170000249003C6E0F4601DE0F875F00AA4C8AAAE
:10171000F02AF974C828FE740339FF8E828F83A3E0
:10172000A3A3E070030217F7906060E0C0E0EE242E
:1017300068F582E43FF583D0E0F0750E42750F0541
:10174000750A00750B00E5D914F50CE5D95403F5BD
:10175000106012740365106043E50C600AEE2467A4
:101760001218727002807590053DE06401601F12CE
:10177000186F60047A0480027A00E50CC39AFA9527
:10178000E0FB122A6F8A0A8B0BEA450B7005122EBA
:1017900005806412186F70048A0E8B0FE50C6012BE
:1017A000850E82850F83F50DE5D9F0A3150DE50DA6
:1017B00070F612186F604474FC250CF50C780E124C
:1017C00013F7AC0CA910EEFAEFFB122C7F74021287
:1017D000118AE97026AA0AAB0B123441793D8E8238
:1017E0008F83A3A3A3A3E0FA7B001228D1EEFAEF24
:1017F000FB122BE9122C917900806F740365106045
:1018000051850C1275130078121213F7AC0EAD0F40
:10181000AA0AAB0B122C43740212118AEE2468122E
:10182000187264807004747F8001E0F50E780E12E7
:1018300013FBE510F50E780E1213FBA90CAC0AADE4
:101840000B9003C6E0FA7B001228A7740212118ADB
:101850008013900398E06408600BAC0EAD0FEEFAB5
:10186000EFFB122D03122E1179017F0A0212FCEEFA
:101870002482F582E43FF583E02274F21212507460
:10188000FC121174EAFEEBFF890BA2AFE433F50AF8
:10189000C2AF021936E0601B780E1213F7AC0DA927
:1018A00010EEFAEFFB122C79740212118A740425DF
:1018B0000DF50D7401250DF5D98510D9E50D6018CC
:1018C000F50C850E82850F83E0F5D9A385820E8500
:1018D000830F150CE50C70EA75E195EE2463F8E4CE
:1018E0003FF97A007B00A2AFE433F50DC2AF121AC4
:1018F00011EC4D603288828983E0FAA3E0FB8A8292
:101900008B83121A1588828983ECF0A3EDF08A820A
:101910008B83E4F0A3F0121A11EC4D700A888289CF
:1019200083A3A3E4F0A3F0E50DA2E092AF1234414B
:101930009004D9E004F0EE24631216D5E8496064FF
:10194000EE24631218722402F8A3E03400F98882AE
:101950008983E5822402F50EE43583F50FE0F50D69
:10196000A3E0F510EE2462121872640170369061E3
:10197000D0E0F812186F60047C0480027C00748050
:10198000C398FA95E0FBE50D2CF8E43400F9E8245F
:1019900002F8500109C3EA98EB99A2D265D033400E
:1019A000030218959004D9E0604D9004DAE0F890B5
:1019B00004D9E0C398500C7402650B703A9004DBB4
:1019C000E060348E828F83A3A3A3A3E0851A82856F
:1019D0001B83121A0774021211C0E8121A0790042E
:1019E000D8E028F074021211DAAA1AAB1B7901129E
:1019F00028FB9004D9E4F0E50AA2E092AF74041247
:101A0000118A7F070212FCF0A3E4F09004D9E0F8F9
:101A10002288828983E0FCA3E0FD22FF852187855F
:101A200022C622C0E074EB12133CA2AFE433F50AE5
:101A3000C2AF759B00906182E0A2E05030E591A2B8
:101A4000E0502A7591FE740165217021121BB612B7
:101A50002D51121BA412140A122064740412118A4C
:101A6000E9640170057901122D991216E9906182DD
:101A7000E0A2E5505DE591A2E550577591DF900336
:101A800098E064076005E06408702F121BB67401CB
:101A90006521703E122D51121BA412140A122064EB
:101AA000740412118AE9640170057901122D997983
:101AB00001EEFAEFFB12187A8018E0640D701390B3
:101AC00003BAE004F064287002E4F07A00E0F9124E
:101AD0002E17906182E0A2E64003021B79E591A2F5
:101AE000E64003021B797591BF900398E06405708E
:101AF00008122D39122D458003122D3F7521001239
:101B00002DA5E9900399F07900122D99122B357AC1
:101B1000017B00900397E0F9123411907803E064A0
:101B2000427056900541E014F0704EC2AF121B3067
:101B300000782AD0E0F618D0E0F6E59F5407F87058
:101B400005750FFF8003750F7FC4C0E07829E6F5A7
:101B50000C08E6550FF50D740B780C121152D0E0FD
:101B6000250CF8906270E0A2E740F8E8C333906279
:101B700072F0906270E0D2E0F0906181E0A2E350F8
:101B800009E5E9A2E3500375E9F7A3E0A2E75009EC
:101B9000E591A2E7500375917FE50AA2E092AF7F3D
:101BA0000802139B8E828F83E0F8A3E0C82416F509
:101BB00082E438F583229003C6E0F875F00AA4C8E1
:101BC000AAF02AF974C828FE740339FF22C0E0C0C5
:101BD000D0C082C083906183E0A2E05009E5BFA23B
:101BE000E0500375BFFEE0A2E15009E5BFA2E1505D
:101BF0000375BFFDE0A2E25009E5BFA2E250037504
:101C0000BFFBE0A2E35009E5BFA2E3500375BFF7B5
:101C1000E0A2E45009E5BFA2E4500375BFEFE0A2E3
:101C2000E55009E5BFA2E5500375BFDFE0A2E6502D
:101C300009E5BFA2E6500375BFBFD083D082D0D0E4
:101C4000D0E032C0E074F212133CE5A7A2E6500FD8
:101C5000E5A1A2E6500953A7BF75A1BF121C97E5E5
:101C6000A7A2E5500CE5A1A2E5500653A7DF75A198
:101C7000DFE5A7A2E15009E5A1A2E1500375A1FDAE
:101C8000E5A7A2E2500CE5A1A2E2500653A7FB751E
:101C9000A1FB7F0102139B74F71212507521019072
:101CA0000398E064067015122CB58A828B83A3A377
:101CB000A3A3A3A3E0FAA3E0FB122D27A2AFE43372
:101CC000FED2AF90039EE0640170187A207B0090F2
:101CD0000397E0F912352B7A207B00900397E0F907
:101CE000123417906182E0D2E6F090053EE0602168
:101CF00085C622801690039DE064017008E5C654F5
:101D0000F84405F5C653BEFC121A1C740165216027
:101D1000E4EEA2E092AF7F020212FCFF8E238F243A
:101D2000858228858327851A82851B83E0CEA3E0E0
:101D3000CF852882852783EBC9EAC8EDCBECCA752D
:101D4000F010C3E833C8E933C9EA33CAEB33CBC375
:101D5000EA9EF526EB9FF525B35004AB25AA26ECA9
:101D600033CCED33CDD5F0DAAE23AF242274E912B3
:101D7000125074FA121174EAFEEBFF8C0C8D0D12E6
:101D80002D5DEAF8EBF9ECFAEDFB8E828F831210F1
:101D90006E900398E024F7C394055006751601026F
:101DA0001ED4122CB58A0A8B0BEA450B7003021E57
:101DB000D1EEFCEFFDAA1AAB1B122D57850A8285C6
:101DC0000B83A3A3780E12102C9083AF780E121001
:101DD00006851A82851B83781212102C9083AF78A7
:101DE00012121006780E7912120E3F501F780E79DB
:101DF00012120FDE9083C7780E120E5F4047850ED9
:101E000016850F1785101885111980459083C78591
:101E100012168513178514188515197816790E1260
:101E20000FDE7816120E5F501C75160075170075C0
:101E3000180075190178167912120FDE7816790ECE
:101E4000120FA5800C75160175170075180075190D
:101E50000074097816120F869083FB780E12102CEE
:101E60007816790E120EFE850A82850B83A3A3A332
:101E7000A3A3A3121EF21210E9880E890FE4F51035
:101E8000F5117816790E120FA574041211C0121EE6
:101E9000F21210E9E8FA8A0EE4F50F7816790E12BC
:101EA0000E3F50077816790E120FDE900398E0640B
:101EB00008600AE064066005E0640570209083BF56
:101EC0007816120E5F50169083BB7816120FB880EA
:101ED0000C751600751700751800751900850C82B1
:101EE000850D83781612103B740612118A7F10023A
:101EF00012FCE0F8A3E0F97AD07B032274F7121207
:101F000050122D6F90053CE064017010906245E422
:101F1000F0A3F053F4F343FE0C5390F3122D15E5A8
:101F2000C654B84441F5C6E59E5447644170F890E4
:101F30006185740FF090053AE0F47002A3E0604E02
:101F400090053BE0600814601B14602E8040750A09
:101F500001750B0090053AE0780A121161E50AF468
:101F60005280802A750A01750B0090053AE0780AC4
:101F7000121161E50AF452908014750A01750B0084
:101F800090053AE0780A121161E50AF452A079004E
:101F90007F020212FC74F7121250E9FEEAFF122DC2
:101FA0006F74016E700C7A807B00900397E0F912D9
:101FB0003411903620E493F46008E493F9122B294D
:101FC000800953C6B8E59E544770FA122D1B900540
:101FD0003CE064017003122B4790053AE0F4700274
:101FE000A3E0604B90053BE0600814601A14602C7D
:101FF000803D750A01750B0090053AE0780A1211D0
:1020000061E50A42808028750A01750B0090053A47
:10201000E0780A121161E50A42908013750A017591
:102020000B0090053AE0780A121161E50A42A0120D
:102030002CB58A0A8B0BA80AA90BE8496014E5E1C4
:1020400070FCE82414F582E439F583E0F46003E0E1
:10205000F5E174016F700A7A01900397E0F9123488
:102060009B021F9074F11212508A0A8B0B8C0C8DFC
:102070000D9083AF780A121006740F1211C0780EFB
:1020800012102C9083AF780E121006780A790E1277
:102090000E3F9083C75010780A790E120FDE780A2F
:1020A000120E5F4014800E780E790A120FDE780E41
:1020B000120E5F50047901800279007F080212FC41
:1020C00074ED1212508A0A8B0B8C0C8D0D9083AF1D
:1020D000780A12100674131211C0780E12102C9088
:1020E00083AF780E121006780E790A120E3F401157
:1020F000780A790E120FDEAA0AAB0BAC0CAD0D807C
:102100002275120075130075140075150178127987
:102110000E120FDE7812790A120FA5AA12AB13ACB9
:1021200014AD157F0C0212FC9083AF780A12102CAC
:102130008A828B83780A1210197F040212FC74F5CC
:102140001212508C828D83780A12102C8A828B8313
:10215000780A120FF2122196C3E09CF0A3E09D12C0
:10216000218840229083A7780A12102C8A828B83C0
:10217000780A120FCB8A828B83A3A3A3A3E0242027
:10218000F0A3E0344EF080A0F088828983C3E0940D
:1021900020A3E0944E22EA2404F8E43BF98C828DDB
:1021A00083A3A3A3A3E0FCA3E0FD88828983227418
:1021B000F5121250E9FE9004F4E0FAA3E0FBEE29D8
:1021C000F8E433F974D628F582748239F583E02A6D
:1021D000F50AA3E03BF50B780A1213F790839F12E0
:1021E000104A121D1C740212118A8A0A8B0B8C0C65
:1021F0008D0D7410780A120F6DAA0AAB0B7F0402C2
:1022000012FC74F11212508A0E8B0F8C108D117407
:10221000111211C012140E74111211C0E02401F534
:102220000AA3E03400F50BE4F50CF50D780E790AFD
:10223000120E7E9083B7780A12102C780E790A124B
:102240000E7EAA0EAB0FAC10AD11121D1C74021243
:10225000118A8B0BEA450B60047A0180027A00EC4C
:102260002AFCE43DFD74131211C0E0F8A3E0F9E884
:10227000FEE9FFECF8EDF97A717B021210E9880AA9
:10228000890BE4F50CF50D8E828F83780A12103BD2
:10229000ECF8EDF97A717B021210E98A0A8B0B7463
:1022A00005780A1211618E828F83A3A3A3A3E50A86
:1022B000F0A3E50BF07F080212FCC082C083E99016
:1022C0006000F0D083D08222C0E074F212133CA2EE
:1022D000AFE433FED2AFE589A2E05003123261755C
:1022E0008900C2C5EEA2E092AF7F0102139BC0E05D
:1022F00074F212133CA2AFE433FED2AFE58AA2E639
:102300004006E58AA2E75003123261758A00758A99
:1023100000C2EB80CFC0E0C0D0E8C0E0E9C0E0A9D7
:10232000A8D2AF758B00C2E8E9A2E7E433F8E9A2CE
:10233000E792AFD0E0F9D0E0F8D0D0D0E032C0E002
:10234000C0D0E8C0E0E9C0E0A9A8D2AFC2C7751C00
:1023500000E9A2E7E433F8E9A2E792AFD0E0F9D0D0
:10236000E0F8D0D0D0E032C2AF02000022120E1549
:10237000CAAA07120E15FCAA07120E1525AB0712E2
:102380000E15C4AB07120E1505AC07120E15E8ACFE
:1023900007120E15CC8C07120E15FE8C07120E15A7
:1023A000278D07120E151E8E07120E15728E07123C
:1023B0000E15628F07120E15B69807120E15C998E2
:1023C00007120E15FA9807120E15349907120E15FA
:1023D0008D9907120E15D49907120E151C9A071223
:1023E0000E154B9A07120E157A9A07120E15B19A0E
:1023F00007120E15F89A07120E15119B07120E15EB
:10240000669B07120E157F9B07120E15CD9B0712B8
:102410000E15079C07120E1566BB06120E1569BC39
:1024200006120E15A2BC06120E15C5BC06120E151C
:10243000D7BC06120E1515BD06120E1591BD06125B
:102440000E1559BE06120E157BBE06120E1512BFD2
:1024500006120E1564BF06120E1595BF06120E1554
:10246000A2BF06120E150CC006120E1563C006128E
:102470000E1566C006120E159FC006120E15A2C0DC
:1024800006120E15ACC006120E1500C106120E156E
:1024900041C106120E1574C106120E15B1C1061205
:1024A0000E15B3C206120E1557C306120E15C0C381
:1024B00006120E15FEC306120E15D59007120E1544
:1024C000FD9007120E152A9107120E156291071240
:1024D0000E15C09107120E150C9207120E1573926D
:1024E00007120E15B39207120E15F09207120E1571
:1024F0001E9307120E15C89307120E15D2930712DA
:102500000E15DF9307120E15129407120E151E9466
:1025100007120E15369407120E15409407120E1569
:1025200034DE07120E1542DE07120E155ADE0712B0
:102530000E1571DE07120E157DA805120E1527A9BE
:1025400005120E153AAA05120E15B6AA05120E1599
:10255000D4AB05120E1510AC05120E15ABAC05125E
:102560000E158FAD05120E155BAE05120E15E9AFF7
:1025700005120E155AB005120E1514B105120E15DE
:1025800006B205120E1546B205120E15FAB2051264
:102590000E152CB305120E1522B505120E1564B5D5
:1025A00005120E1582B505120E15E8B505120E15A9
:1025B000B7B605120E157BB705120E159AB905129E
:1025C0000E15C8F804120E15B2F904120E155DFAB4
:1025D00004120E15AEFA04120E155EFB04120E154F
:1025E000CFFB04120E15B4FC04120E15E8FC041205
:1025F0000E15E1FD04120E151EFE04120E15FAFE54
:1026000004120E1539FF04120E1555FF04120E1593
:10261000F3C407120E1577C507120E15A2C50712CF
:102620000E15BCC607120E15CE9407120E15E494B3
:1026300007120E15029507120E15139607120E15A6
:102640001D9607120E15489707120E153F98071290
:102650000E15AC9807120E15FBE006120E152BE2B4
:1026600006120E1562E206120E15ACE206120E15E7
:102670006FE406120E15698405120E15F584051215
:102680000E15598605120E15658605120E15A086C3
:1026900005120E150F8705120E15188805120E1556
:1026A000218905120E15E88905120E15458B0512B4
:1026B0000E15638B05120E15808B05120E152D8CD1
:1026C00005120E15AA8C05120E15D28C05120E15C8
:1026D0009C8F05120E15A18F05120E15BA910512C9
:1026E0000E15089205120E15789205120E15B69267
:1026F00005120E15929305120E15529405120E1521
:102700009E9405120E15A19405120E15E59405125E
:102710000E152D9505120E156C9505120E158E953C
:1027200005120E15C29505120E15259605120E15E9
:102730003EE606120E154CE606120E159FE6061230
:102740000E15BEE606120E1503E706120E1547E833
:1027500006120E15E2E806120E1526E906120E15EF
:1027600050E906120E15BFE906120E1505EA06120B
:102770000E157CEA06120E152DEB06120E1500B092
:1027800004120E1510B004120E15B1B004120E157D
:102790000DB104120E15CAB104120E15E6B20412E0
:1027A0000E1518B304120E1547B304120E15F4B427
:1027B00004120E156BB704120E15DBB904120E15B8
:1027C000CDBA04120E15C6BB04120E15CDBD0412EF
:1027D0000E15C1C004120E15F0C104120E15F4C37B
:1027E00004120E1504C504120E1593C604120E151C
:1027F00084C704120E15D2C704120E1541C8041264
:102800000E1565C804120E15B6C804120E1557CD64
:1028100004120E1558CE04120E15B9CE04120E1560
:10282000E4CE04120E15AACF04120E1592880712D8
:102830000E159C8807120E15E18807120E15F588F3
:1028400007120E15858907120E15BE8907120E157F
:10285000F98907120E15228A07120E15768A0712B9
:102860000E158B8A07120E15AD8A07120E15C28A35
:1028700007120E15D68A07120E15EB8A07120E15CF
:10288000258B07120E15518B07120E159A8B071206
:102890000E150C8C07120E154F8C07120E15798C25
:1028A00007120E15A48C07120E155CD907120E150F
:1028B00098F505120E157BF605120E15F6F60512A3
:1028C0000E1531F705120E1582F805120E1510F9C6
:1028D00005120E15A2FB05120E1554FC05120E155D
:1028E00060FD05120E15D3FE05120E152CFF051204
:1028F0000E15008007120E15438007120E15C780B3
:1029000007120E159E8307120E1561BE07120E15D3
:1029100013BF07120E150FC007120E154EC0071277
:102920000E15A8C007120E15C1C807120E1524C92E
:1029300007120E15C1C907120E15F6C907120E159A
:1029400026CA07120E1561CA07120E1581CA071290
:102950000E153FEB06120E15CBEB06120E158AEC88
:1029600006120E15A2ED06120E15BCEF06120E157C
:10297000359B06120E155A9B06120E15279C061241
:102980000E15FB9C06120E15689D06120E15A89DCD
:1029900006120E15449E06120E15789F06120E158D
:1029A00053A006120E15B2A006120E153EA1061275
:1029B0000E15ACA106120E1538A206120E157EA237
:1029C00006120E15F0A206120E1582A306120E159F
:1029D00023A406120E1543A406120E158BA406128C
:1029E0000E15D4A406120E15F0A406120E1516A587
:1029F00006120E1590A506120E159EA506120E15AE
:102A00002DA606120E1596A606120E15F3EF061247
:102A10000E1578F006120E15BAF006120E159EF17C
:102A200006120E150BF206120E154FF206120E15B7
:102A300093F206120E15C0F206120E15E8F20612F7
:102A40000E1520F306120E155EF306120E1585F311
:102A500006120E15FFF306120E1549F406120E1596
:102A6000A7B905120E1546BB05120E157EBD05123F
:102A70000E15D2BD05120E15FDBD05120E15D9BEDF
:102A800005120E1509BF05120E1538BF05120E15D9
:102A90004BBF05120E158CBF05120E15B9BF0512DE
:102AA0000E1507C005120E1543C005120E1588C07D
:102AB00005120E15D5C005120E154FC105120E15C3
:102AC00090C305120E157AC505120E15B6C505126E
:102AD0000E1545C705120E158AC705120E15FDC73E
:102AE00005120E1552C805120E1557C805120E15FF
:102AF000E1C805120E1500CA05120E1511CA0512FD
:102B00000E15243600120E159D3600120E15573C78
:102B100000120E15623D00120E150B3F00120E152D
:102B2000993F00120E15B0E404120E1531E504129F
:102B30000E155EE504120E15A7E504120E15A8E6A3
:102B400004120E1501E704120E157DE804120E158D
:102B5000FFE804120E151AE904120E158BE904128F
:102B60000E1548EA04120E150BEB04120E1599EB24
:102B700004120E1550EC04120E1563EC04120E151F
:102B8000FCEC04120E1593ED04120E15BAED0412AE
:102B90000E1523EE04120E156DEE04120E15BBEE8B
:102BA00004120E1562EF04120E1500F004120E1539
:102BB0008DF004120E15FEF004120E1545F10412EC
:102BC0000E159DF104120E15CFF104120E1590F2A0
:102BD00004120E1593F304120E15DCF304120E15F5
:102BE000F9F304120E1518F404120E154BF5041225
:102BF0000E1502F604120E1527F604120E153CF6F9
:102C000004120E15ACF604120E15EDF604120E1594
:102C100011F804120E1592F804120E15C9B106121D
:102C20000E1514B206120E1520B206120E15F4B2CD
:102C300006120E150BB306120E1548B306120E152A
:102C400079B306120E15B1B306120E1507B40612AB
:102C50000E151DB406120E1559B406120E156CB4DD
:102C600006120E1593B406120E15C7B406120E15F1
:102C7000EDB506120E1537B706120E1533B806124B
:102C80000E1549B906120E15EF3F00120E15C1D8E8
:102C900005120E15F0D805120E1542DC05120E15A0
:102CA00099DD05120E1558DE05120E15BFE105124D
:102CB0000E15ABE205120E15FDE205120E1517E317
:102CC00005120E1549E305120E1554E305120E15F3
:102CD0005DE305120E150FE405120E15DFE4051273
:102CE0000E1526E505120E158CE505120E15FEE5EE
:102CF00005120E15FD9605120E153D9A05120E15BC
:102D0000439A05120E1502A105120E1527A50512EC
:102D10000E156F9C07120E15059D07120E151B9DB3
:102D200007120E15749D07120E15B89D07120E1589
:102D3000F29D07120E158A9E07120E15F99E0712B4
:102D40000E15029F07120E150E9F07120E15289FD3
:102D500007120E15529F07120E15679F07120E15C8
:102D6000C99F07120E15F09F07120E155084071207
:102D70000E155D8407120E15778407120E15AA84AE
:102D800007120E15E88407120E154D8507120E1551
:102D9000628507120E156D8507120E157A850712CA
:102DA0000E15918507120E159F8507120E15AA851F
:102DB00007120E15B68507120E15C58507120E15DA
:102DC000D08507120E15F38507120E159786071288
:102DD0000E15A78607120E15C18607120E15DE8680
:102DE00007120E15F98607120E151E8707120E150B
:102DF000298707120E153E8707120E1552870712F4
:102E00000E15B38707120E15B98707120E15BF8767
:102E100007120E15C58707120E15DD8707120E154E
:102E2000108807120E15B28D06120E15498E061265
:102E30000E15E18E06120E15D18F06120E15089092
:102E400006120E151B9006120E15899006120E150D
:102E5000249206120E154B9206120E15ED920612D2
:102E60000E15229306120E15339306120E15AC930F
:102E700006120E15CD9306120E15E59306120E15C9
:102E80003D9506120E15469706120E1596990612D6
:102E90000E15999A06120E15E89A06120E1534CAE6
:102EA00005120E1531CB05120E151CCC05120E1590
:102EB00026CC05120E1548CC05120E1554CC051261
:102EC0000E15A6CD05120E15D5CD05120E1505CF82
:102ED00005120E1547CF05120E1573D005120E15EB
:102EE00049D105120E159BD105120E15FAD1051206
:102EF0000E1531D205120E156CD205120E1507D61D
:102F000005120E1520D605120E15A2D605120E15A5
:102F1000B0D605120E1505D705120E1513D70512DA
:102F20000E1580D705120E15F2D705120E1538D8DA
:102F300005120E15B9A606120E15DBA606120E1501
:102F4000C5A806120E156AAC06120E15ADAD061216
:102F50000E1587AE06120E158FCA07120E15B4CACB
:102F600007120E1525CB07120E1524C406120E15D6
:102F70002DC406120E1536C406120E1567C50612AC
:102F80000E1586C706120E15BCC706120E15F6C71B
:102F900006120E152CC806120E1566C806120E155E
:102FA0009AC806120E15C6C806120E150FC90612CB
:102FB0000E1549C906120E1591C906120E15E7C95C
:102FC00006120E151CCA06120E1577CA06120E1529
:102FD000B1CA06120E1502CB06120E1538CB061218
:102FE0000E1572CB06120E15A0CB06120E15C3CB12
:102FF00006120E1501DF07120E152DDF07120E1532
:1030000088DF07120E1592DF07120E15A2DF0712D6
:103010000E1571B507120E15A3B507120E15C0B522
:1030200007120E156EB607120E15BAB607120E1558
:1030300074B707120E15ABB807120E15D2B80712E7
:103040000E15FCB807120E15B6FF04120E1516D099
:1030500004120E157AD204120E1531D404120E1574
:103060008ED404120E1590D504120E1518D6041223
:103070000E159FD604120E15C4D604120E15B9D91A
:1030800004120E152FDA04120E151EDB04120E1593
:1030900058DB04120E1598DB04120E1538DD0412ED
:1030A0000E158DDD04120E15DADD04120E1548DE44
:1030B00004120E156EDE04120E1588DE04120E15B3
:1030C0009EDF04120E15AEDF04120E1534E1041259
:1030D0000E1554E104120E158AE104120E150EE3CA
:1030E00004120E154DE304120E158BE404120E1596
:1030F0000EF906120E1566F906120E15AEFA061234
:103100000E151DFB06120E15CCFB06120E15EBFB61
:1031100006120E153FFC06120E157DFC06120E154A
:103120003DA707120E156FA707120E1598A70712D5
:103130000E1537A807120E1578A807120E155BA9F1
:1031400007120E1549D107120E1559D107120E1587
:1031500092D107120E1556D207120E1535D407124A
:103160000E156AD407120E1587D407120E1503D553
:1031700007120E1523D507120E15C1FF06120E15E4
:10318000CDFF06120E15D9FF06120E155BDD0712D4
:103190000E156BDD07120E157ADD07120E152EDEE9
:1031A00007120E1570DA07120E15F4DA07120E1553
:1031B0005ADB07120E15EBC607120E15FFC60712D3
:1031C0000E1539C707120E158EC707120E1529C81E
:1031D00007120E154CC807120E1558C807120E1507
:1031E0008BC807120E15DDD607120E1518D7071259
:1031F0000E1583D707120E15B7D707120E15EDD788
:1032000007120E1515D807120E158DD507120E15BB
:10321000C1D507120E15EAD507120E1561D6071291
:103220000E15D0D607120E15D3C007120E15EDC01D
:1032300007120E1515C107120E153CC107120E1507
:10324000D7C107120E1517C207120E15D0D20712DA
:103250000E15F8D207120E156AD307120E1585D374
:1032600007120E15DFD307120E1529D407120E15FB
:103270002CD407120E151EA007120E152CA0071233
:103280000E15A5A007120E1572A107120E152BA37D
:1032900007120E1570A307120E159DA307120E1527
:1032A000F9CD07120E15FFCD07120E1545CE0712E8
:1032B0000E1579CE07120E1591CE07120E1513CFEB
:1032C00007120E152CD807120E1577D807120E15F7
:1032D000CFD807120E1533D907120E15F83F00127A
:1032E0000E158FFD06120E1517FF06120E1578FF2C
:1032F00006120E15BEFF06120E15B0A307120E150C
:10330000E2A307120E150BA407120E15AAA40712AA
:103310000E15EBA407120E15CEA507120E1557AE0B
:1033200007120E1589AE07120E15B2AE07120E1552
:1033300051AF07120E1592AF07120E1575B0071296
:103340000E15E4B107120E1516B207120E153FB294
:1033500007120E15DEB207120E151FB307120E1557
:1033600002B407120E1527D406120E15B0D4061299
:103370000E15C7D406120E1589D506120E156AD67B
:1033800006120E15D3D706120E15A4D806120E1566
:10339000F8D906120E1580DA06120E156ADC07122D
:1033A0000E1593DC07120E15BCDC07120E15D4DCCB
:1033B00007120E1516DD07120E1588DB06120E1504
:1033C00092DB06120E15D2DB06120E151BDC06125E
:1033D0000E1555DC06120E15ABDC06120E15CADCF6
:1033E00006120E15D3DC06120E1524DD06120E157C
:1033F0004DDD06120E1562DD06120E15D2DD061227
:103400000E1560DE06120E15A4DE06120E15CCDEB9
:1034100006120E154BDF06120E158EDF06120E1564
:10342000CBDF06120E15DDDF06120E15FCDF0612CD
:103430000E1505E006120E15CFE006120E15ABCFE5
:1034400007120E15FCCF07120E1585D007120E15A8
:10345000EBD007120E159DBB07120E15C7BB071246
:103460000E15C1BC07120E15F0BC07120E1576BD65
:1034700007120E1573DB07120E15F1C207120E1597
:1034800027C307120E1560C307120E15B9C4071221
:103490000E15ACDF07120E15C2DF07120E15CCDFBA
:1034A00007120E1522E007120E1565E107120E1520
:1034B00051CC06120E150ECD06120E1549CD061270
:1034C0000E1571CD06120E15D3CD06120E151FCE98
:1034D00006120E158ACE06120E1506CF06120E150E
:1034E00002D006120E1589D106120E150CD2061244
:1034F0000E1570D206120E1587D206120E157DD348
:1035000006120E15C9D306120E1589F406120E15F1
:103510009EF406120E154EF506120E158EF50612C5
:103520000E15A7F506120E15DAF506120E1527F67A
:1035300006120E155BF606120E159DF606120E15F6
:103540009BF806120E1501F906120E154DE705122D
:103550000E1504EB05120E1596EC05120E15E6EC91
:1035600005120E15FDEC05120E151CED05120E15BB
:103570009AED05120E152CEF05120E1510F005121E
:103580000E1521F405120E15F5F405120E15008026
:1035900006120E151F8206120E15C28506120E1592
:1035A000E78506120E15BE8606120E157D880612D8
:1035B0000E150F8906120E15718906120E15E08977
:1035C00006120E15548A06120E15C38A06120E151F
:1035D000358B06120E15C18B06120E15168C0612AF
:1035E0000E15BC8C06120E1545CC07120E15ACCC70
:1035F00007120E1511CD07120E1598CD07120E15D4
:1036000053E007120E15B2E007120E15C4E10712BF
:103610000E15C33F00120E15D5FF05FFFFFFFFFF7C
:10362000FFFFFFFF74F01211E47901122CBBE96473
:103630000170679004F1E06401701F122D3F7ADE83
:103640007B04122CAF9004EEE4F075E1F17A02FBFA
:10365000900397E0F91234118040122C1F123E9C07
:10366000120FB8123E6D120FA59083AF780E121094
:10367000068A828B83780E12103B908393780E1209
:103680000FB89083AF780E121006123EFF780E121C
:10369000103B123EEA7413123E81023E0E74EC128D
:1036A00011E47901122CBBE964016003023B8090B4
:1036B00004EEE4F07ADE7B04122CAF122BCB8A0AE4
:1036C0008B0BAE0AAF0B8E828F83A3A3A37401F082
:1036D0009003C5E004F07940122CA98A0A8B0BA84C
:1036E0000AA90B8E828F83E8F0A3E9F0E82406FC98
:1036F000E439FDE82402FAE439FB122D4BE5D9E563
:10370000D9A2E6E433C0E0EE2409F582EF3401F5F6
:1037100083D0E0F0EE2403F8EF3401F9E8497008B3
:103720007806E5D9D8FC801DEE2403F582EF34013C
:10373000F583E5822406F8E43583F9123BE870034B
:10374000E9658370F67806E5D9D8FCEE2422123BB1
:10375000C970087804E5D9D8FC8016123BB0E58220
:103760002404F8E43583F9123BE87003E9658370BB
:10377000F6123BB012104A122DB1EE2426123BC9AC
:1037800070087803E5D9D8FC8016123BA6E58224A0
:1037900003F8E43583F9123BE87003E9658370F6BA
:1037A000123BA6780A12102C9083AF780A121006EA
:1037B000AA0AAB0BAC0CAD0D122D87E5D9C0E012F7
:1037C0003BBFD0E0F0EE242C123BC97006E5D9E5F2
:1037D000D9801AE5D9C0E0123B9CD0E0F0E5D9C011
:1037E000E0EE242DF582E43FF583D0E0F0EE242EC8
:1037F000123BC97006E5D9E5D9801AE5D9C0E012B7
:103800003BD0D0E0F0E5D9C0E0EE242FF582E43FD4
:10381000F583D0E0F0123BBAC333F0EE242C123C17
:1038200035242E123C352420123BC97006E5D9E51B
:10383000D9801AE5D9C0E0123B92D0E0F0E5D9C0BA
:10384000E0EE2421F582E43FF583D0E0F0EE24326F
:10385000123BC97006E5D9E5D98020E5D9C0E0EE74
:103860002432F582E43FF583D0E0F0E5D9C0E0EE04
:103870002433F582E43FF583D0E0F0E8FAE9FB8AEF
:10388000828B83E0F50CA3E0F50D7404780C121123
:1038900061850C0A850D0B8A828B83E50AF0A3E50E
:1038A0000BF0E4F50CF50D123B92E02401F50EA3AC
:1038B000E03400F50FE4F510F511123BD0E0F8A369
:1038C000E0F9E828F8E933F988128913E4F514F5EA
:1038D00015780E7912120E7E780A790E120E3F506C
:1038E00008123BD0123E1970167A407B0090039765
:1038F000E0F9123411EEFAEFFB122BE9023B80EEF5
:10390000242BFCE43FFDEEFAEFFB122BFBEE240B25
:10391000F582E43FF5837405F0A3E4F0EEFAEFFBE3
:10392000122C01EE245D123BC9700A7805E5D91806
:10393000E8601E80F8EE245DF582E43FF583E582C1
:103940002405F8E43583F9123BE87003E9658370D8
:10395000F6E5D9F50EC4135407F9EE242AF582E4EE
:103960003FF583E9F01221AF123B88EAF0A3EBF0B8
:10397000E50E541FC0E0EE2437F582E43FF583D016
:10398000E0F0EE245DFCE43FFDEEFAEFFB122BC508
:10399000122E11122DAB7904122DB77901122DEDD3
:1039A0009060607480F075E1F1901740123BF01266
:1039B0003BF07485F0A3742C123BF674F7F0A374FB
:1039C0002CF090174E123C01A3123C017A047B00AC
:1039D000900397E0F9123411EE242C123C498A0E20
:1039E0008B0FE4F510F51190838F780E120FB8EA63
:1039F0004B600C123B9CE064027002A3E0702FEE5F
:103A0000242E123BDA780E790A120FA57C027D0073
:103A1000EEFAEFFB121538E9F91222BA8E828F8383
:103A2000123C268E828F83A3A3123C2680107C0139
:103A30007D00EEFAEFFB121538E9F91222BA8E82F8
:103A40008F83123EB9780E120FCB9083AF780A1293
:103A5000102C8A828B83780A121019EE2412F50A30
:103A6000E43FF50B780A1213F7123B8812140EEE9E
:103A7000241DF582E43FF58312140EAA0EAB0FACA1
:103A800010AD11122202740612118AEE2418F5826A
:103A9000E43FF583780E12103BAC0AAD0B123C18D4
:103AA00012213E7C147D83123C1812213E8E828F9F
:103AB00083E0F8A3E0F988828983A3A3E82408FCC3
:103AC000E439FD74061210878E828F83E0F50CA313
:103AD000E0F50DE50C240EF582E4350DF58374FF59
:103AE000F0A3F0A3F0A3F0E50C2412F8E4350DF9EF
:103AF000E8FAE9FB123BBAFC850A82850B83780E53
:103B000012102C7401780E121161EC250EF8E435B8
:103B10000FF9E875F071A4C8ACF075F002A42CFCA4
:103B200075F071E9A42CF98A828B83E8F0A3E9F09F
:103B3000EE2416123BDA7404780A121152E50A24B4
:103B400001F8E4350BF98A828B83E028F0A3E03991
:103B5000F08A828B83E02410F0A3E03401F0E50CBE
:103B60002414F582E4350DF5837410F08E828F8372
:103B7000123E907477F0A3742BF09003987407F0C2
:103B8000122C917F0C0212B6EE2410F582E43FF560
:103B90008322EE2420F582E43FF58322EE242CF5E7
:103BA00082E43FF58322EE2426F582E43FF583226A
:103BB000EE2422F582E43FF58322123BBFE022EEA1
:103BC000242BF582E43FF58322F8E43FF9E849220B
:103BD000EE242EF582E43FF58322F582E43FF5835F
:103BE000E0F50AA3E0F50B22E5D9F0A3E86582220F
:103BF00074F1F0A3742CF0A374F1F0A3742CF0A36F
:103C0000227485123C0F123C0FF0A3742CF022F0AA
:103C1000A3742CF0A37485228E828F83E02402FA91
:103C2000A3E03400FB22A3A3A3A3A3E02401F0A3F9
:103C3000E03400F022123C49EA2AFAEB33FB888296
:103C40008983EAF0A3EBF0EE22F8E43FF988828959
:103C500083E0FAA3E0FB2274F01211E4122D8DE947
:103C600070089004F2E0F9122D9375E181907803C9
:103C7000E064427056900541E014F0704EC2AF12FD
:103C80003C8200782AD0E0F618D0E0F6E59F540791
:103C9000F87005750BFF8003750B7FC4C0E07829B1
:103CA000E6F50A08E6550BF50B740B780A1211526B
:103CB000D0E0250AF8906270E0A2E740F8E8C3334C
:103CC000906272F0906270E0D2E0F07901122CBB49
:103CD000E964016003023D5F123E166006123E2158
:103CE0001234119004F6E06401704C123E45F5D98F
:103CF0007582E1758304123E3C7004E583640470B0
:103D0000F59004F7E0600A78F87904FA123E2FDAA9
:103D1000FB123E5C123E3C7004E583640470F59037
:103D20000517E0600A78187905FA123E2FDAFB755C
:103D3000E1959004F6E4F0122C1F123E9C120FB88D
:103D4000123E6D120FA59083AF780E1210068A8274
:103D50008B83780E12103B123ECB7412123E8102FE
:103D60003E0E74F01211E475E181122D8DE9700898
:103D70009004F2E0F9122D937901122CBBE9640151
:103D80006003023E0E123E166006123E21123411EE
:103D90009004F6E06401704E123E454406F5D97574
:103DA00082E1758304123E3C7004E583640470F57F
:103DB0009004F7E0600A78F87904FA123E2FDAFBF3
:103DC000123E5C123E3C7004E583640470F590057D
:103DD00017E0600A78187905FA123E2FDAFB75E1D0
:103DE000959004F6E4F0122C1F123E9C120FB812AC
:103DF0003E6D120FA59083AF780E1210068A828B4B
:103E000083780E12103B123ECB7415123E81122C99
:103E1000917F080212B6900538E0F8A3E0F9E8496E
:103E200022900538E0FAA3E0FB900537E0F92288FC
:103E3000828983E0F5D9A3A882A98322E0F5D9A3DA
:103E4000E58264E72275E191A3123E4D22E024074A
:103E5000F5D99004E0E0C4333354C0229005171222
:103E60003E4D4404F5D97582E1758304229004EF38
:103E7000E0F50AA3E0F50BE4F50CF50D780E790AF0
:103E800022F09004DE123E907471F0A3742BF022A5
:103E9000123EF9241AF582E438F58322E9FC9004F5
:103EA000DE123EB9EC75F0118485F00A850A0EE445
:103EB000F50FF510F511780E22E02402F8A3E03496
:103EC00000F9E8FAE9FB8A828B8322123EF6240687
:103ED000F582E438F583E4F0A3F0123EFF74FFF0BE
:103EE000A3F0A3F0A3F0123EEA22123EF62414F54A
:103EF00082E438F583229004DEE0F8A3E0C82212C1
:103F00003EF6240EF582E438F5832274F01211E4B3
:103F100075E181122D8DE970089004F2E0F9122DFF
:103F2000937901122CBBE96401706B123E16600696
:103F3000123E211234119004F6E064017030123EFA
:103F4000454402F5D97582E1758304123E3C700444
:103F5000E583640470F59004F7E0600A78F879046A
:103F6000FA123E2FDAFB75E1959004F6E4F0122C7C
:103F70001F123E9C120FB8123E6D120FA59083AF18
:103F8000780E1210068A828B83780E12103B123E36
:103F9000CB7414123E81023E0EC082C08353BFEF29
:103FA0007901122CBBE96401700C7ADE7B04122CBF
:103FB000AF9004EEE4F075E1F1122C91D083D08241
:103FC000020E12C082C083851A82851B83E0F8A38B
:103FD000E0F9E84960128A828B83ECF0A3E824FFC1
:103FE00018E934FFF94870F2D083D082020E120231
:103FF0000E12FFFFFFFFFFFF851C87C2AF020E12EC
:020000040002F8
:10300000C082C083E990171CF0D083D082020E12D8
:1030100074F61211E4E990030AF090036AE0F50AED
:10302000750B007402780A121161AA0AAB0B1234F4
:103030008390030B12B9C390030B12BDB0606F9065
:10304000036AE075F003A4FAABF01234839003280E
:1030500012B9C390032812BDB0700B90030B12BDC0
:1030600081123489804890032812CD157AFF7BFFA6
:103070001230ED7A0080198A0A750B007402780A02
:1030800012116112C7BD74FF12B1C3E4F0A3F00ABC
:1030900090036AE0F8EAC39840DD7905122793901F
:1030A000030AE0F912267F7A1D7B28122A0F02C834
:1030B0006074F41211E48A0A8B0BEB548060479021
:1030C000030AE0F91233F98A0C8B0DAE0CAF0DEE4A
:1030D0004F602A8E828F83E064B0701A1227A5E9B0
:1030E00060148E828F83A3A3A3A3E0F9EE2405FAD4
:1030F000E43FFB122775EEFAEFFB1233E7AA0AE56D
:103100000B6480FB80047A007B0002B31374F2121C
:1031100011E474FB121174EAFEEBFFEE4F6045748C
:10312000031211C0EEF0A3EFF0851A82851B83EC29
:10313000F0A3EDF074021211C0E9F0AA1AAB1B1251
:103140002679E9F50A707574131211C0E0F50CA325
:10315000E0F50DE50C450D60638E828F8312B74C50
:10316000EE4F7005750A0280537A067B0012348395
:103170008A0E8B0FA80EA90FE8497005750A1380F7
:103180003B88828983E412B1C3EEF0A3EF12B2DF71
:10319000E50CF0A3E50DF090030E12B2D890030EEB
:1031A0006017E0FCA3E08003EAFCEBFD8C828D83DA
:1031B00012B2D870F38C828D8312C3D8A90A740519
:1031C00002CF95F0A312CCF7A32274F21211E48976
:1031D0000A890E750F007403780E121161850E0CAA
:1031E000850F0D90030DF090030B12C1E312B2D6C0
:1031F000602E1234897900801D890E750F007402CB
:10320000780E12116190030B12C67C8882F583A39D
:10321000A3E4F0A3F00990036AE0F8E9C39840D969
:1032200090036AE0FA850CF0A4CAA8F0850DF0A41A
:1032300028FB1234838A0E8B0FAE0EAF0FEE4F7049
:103240000302B2CC90036AE0FC850CF0A4CCA8F099
:10325000850DF0A428FD79001233D57C0080318DD6
:103260000E750F007403780E1211618A828B83121F
:10327000B2D188828983E4F012B2DEA3A3F0A3F076
:103280000DEDC3950A40D8EE250CFEEF350DFF0C71
:1032900090036AE0F8ECC39850288C0E750F007408
:1032A00002780E12116190030B12B2D1E824025081
:1032B0000109FAE9FB8A828B83EEF0A3EFF07D002F
:1032C00080BFE50A90030DF079008002791302CFE8
:1032D0009812C680F922A3A312BD85EA4B22A3123D
:1032E000CCF7A3A3A32274F41211E47900EAA2E0BC
:1032F000501F750A3E750B83780A1213F779107CFC
:10330000047D007A1E7B1712278D740212118AE940
:10331000F980007F040212B6C082C08390030E12AF
:10332000BDB0601C88828983A3A3E06A7003A3E018
:103330006B8882898370E8A3A3A3A312BD81800454
:103340007A007B0002B00974F21211E474FD1211CC
:1033500074EAFEEBFF851A82851B83E4F0A3F07408
:10336000021211C07401F012BDAD7014122949127D
:10337000348390031112B9C312BDAD700302B4D9E6
:1033800012BAC3EE2404F50CE43FF50D850C82F56A
:1033900083E024FE603C24FC607424FE607E24FEF6
:1033A000700302B42924FE700302B43624FE7003B5
:1033B00002B44324FE700302B45024FE700302B42E
:1033C0005D24FC700302B47E24FE700302B49602F6
:1033D000B4D2122949900313EAF0A3EB12B4E51218
:1033E00023C1E9600302B4D290031312140E8E823B
:1033F0008F83A3A3A3A3A312CD15850A82850B8374
:1034000012BD8112275D740212118A02B4D2AC1A65
:10341000AD1BEEFAEFFB1227AB02B4A1AC1AAD1B49
:10342000EEFAEFFB1227B18078AC1AAD1BEEFAEF83
:10343000FB1227B7806BAC1AAD1BEEFAEFFB12271D
:10344000BD805EAC1AAD1BEEFAEFFB1227C38051B4
:10345000AC1AAD1BEEFAEFFB1227C98044740212BE
:1034600011CA880E890F780E1213F774021211DA3E
:10347000EEFAEFFB1227CF740212118A8023AC1AE6
:10348000AD1BEEFAEFFB1227D5E9F87016740212A5
:1034900011C0E4F0803CAC1AAD1BEEFAEFFB122732
:1034A000DBE9F8E8602C8E828F83A3E0641460224D
:1034B000850C82850D83E0900313F0851A82851BAD
:1034C0008312BD8190031412B9C3E8A312B4E512AC
:1034D00023BBEEFAEFFB12273374021211C0E0F99E
:1034E000740302CF95F07C137D03850A82850B83DC
:1034F00012BD852274E81211E474FA121174740476
:103500001211C0ECF0A3EDF08A148B15EA2405F536
:1035100010E43515F511EA2402F512E43515F5131A
:10352000851282F58312BD811224B18A0C8B0D7530
:103530000A007C037D0079007A137B031233D5E502
:10354000102402F518E43511F51974021211CA8815
:103550000E890F780E1213F7851082851183A3A3AD
:10356000A3A3E0F50E750F00780E1213F7E51024F3
:1035700005F50EE43511F50F780E1213F785188254
:1035800085198312C088122697740612118A8A0E32
:103590008B0FE50E450F700302B7158020851A8248
:1035A000851B83E088828983F0050A851A82851B42
:1035B00083A3E0C0E012B756D0E0F0050AE50C2482
:1035C000FBFAE50D34FFFBC3E50A9AE49B400302D6
:1035D000B7157E007F00851482851583A3A3A3A35E
:1035E000E0F50B780B1213FBE4F516F517781612BD
:1035F00013F775161075170378161213F790031149
:1036000012140E74091211C012140EE50C24F9F9EB
:10361000AC0EAD0F85128285138312BD8112280571
:10362000740912118AE9600302B6B6851082851109
:1036300083A3A3A3A3A3A3A3E0F8900310E068705F
:1036400075E0F5168E1778161213F712CD12851045
:1036500082851183A3A3A3A3A3A3A3A312BD811255
:1036600033CF740212118AE9604C90031412BDB07A
:10367000703BE4F51678161213F77CFF7DFF79078F
:1036800085128285138312BD8112276F7402121175
:103690008A12BDB6701785108285118312CEAF7461
:1036A000041211C012C77012C0B902B749850E8248
:1036B000850F8312B74CA81AA91B8816891778168C
:1036C0001213F774041211C012140E851882851992
:1036D0008312B9B91226A3740412118A8A0E8B0FB1
:1036E000EE4F700302B59212B756EE12B76112C0D8
:1036F0006FEF12B761F8A3E03400F9E50E450F60F3
:103700000302B59D8882898374FFF0050A12B756BB
:1037100074FFF0050AE50A601A1313543F12B9C981
:103720001223CDE9600990031412BD81123441794E
:1037300000801685108285118312CEAF7404121199
:10374000C012C77012C3D8790A02C042A3A3A3A3B0
:10375000E0FEA3E0FF22A80A900314E02812C06F45
:1037600022F0050A08900314E0282274E81211E4FC
:1037700074FA12117474021211C012B9C3740412D3
:1037800011C0ECF0A3EDF074021211C0E024051298
:10379000C058E0F50EA3E0F50F74021211C0E0244A
:1037A00002F512A3E03400F513851282F58312BDF1
:1037B000811224B1750A00750B00EA24FCFEEB347B
:1037C000FFFF8008050EE50E7002050FA80AC3EE84
:1037D00098EF9400500302B975A81AA91B881089A4
:1037E0001178101213F7851682851783A3A3A3A35C
:1037F00012CD191213F7E5162405F510E43517F567
:103800001178101213F785168285178312B9B71233
:103810002697740612118A8A108B11EA45117003DB
:1038200002B975EA2404F518E43511F519851882F2
:10383000F583E0F50EA3E0F50F851A82851B831250
:10384000CD158A828B83A3A3A3E0F9851282851309
:103850008312BD81122685E9F50B600302B97574E8
:10386000021211C012C07FF50B780B1213FBE4F5A6
:1038700014F51578141213F77514107515037814D0
:103880001213F790031112140E74071211C01214C0
:103890000EEEF9AC10AD1185128285138312BD8135
:1038A000122805740912118AE9F50B600302B97533
:1038B000E50A703FE4F510F51178101213F77CFF5C
:1038C0007DFF790985128285138312BD8112276FCE
:1038D000740212118A12C0A5700D74041211C01264
:1038E000B9AC791102B9A9900310E0240290031435
:1038F000F08014900314E0FA900310E079002402A1
:103900005001096A497072A80A900310E0FAE82A87
:10391000FAE43400FBEE9AEF9B405A851882851931
:1039200083E0C0E090031512B75BD0E0F0050A8594
:103930001882851983A3E0C0E00890031512B75BD5
:10394000D0E0F0050A90031012CD191213F712CD32
:1039500012A80A12C04C1233BD740212118A9003CD
:1039600010E0250AF50A74FF650E700474FF650FF8
:10397000600302B7C4E50A601F900314E0F5F0E5A8
:103980000A8412B9C91223D3E9600990031512BD44
:103990008112344179008011E50B7003750B0A74B4
:1039A000041211C012B9ACA90B02C04212C1E7E562
:1039B0000EF0A3E50FF022A3A312CFA4AA0EAB0F23
:1039C00022A3A3EAF0A3EBF022900313F07C137D73
:1039D0000385128285138312BD852274EC1211E4D3
:1039E00074FC12117412C4E874021211DA12BD7B55
:1039F00012269D8A0E8B0FEA450F700302BAB3128E
:103A0000BAC3A81AA91B8812891378121213F77C5B
:103A1000FF7DFF790B850A82850B8312BD811227FA
:103A20006F740212118A12BBB9700C850C82850D5D
:103A30008312C0B602BAC08E828F83A3A3A3A3E071
:103A4000F51478141213FBE4F514F5157814121319
:103A5000F775141375150378141213F778121213EF
:103A6000F774091211C012140E74091211C0E0F992
:103A7000AC0EAD0F850A82850B8312BD811228051D
:103A8000740912118AE9FE70157C137D03850A8280
:103A9000850B8312BD811223D9E970098020741629
:103AA0006E70027E0090031412BD81123441EE70DC
:103AB00004800B7E01850C82850D8312C3D5EEF93F
:103AC00002C3EAEE2402F50AE43FF50B2274EC127D
:103AD00011E474FC121174EAFEEBFF8C108D11EEF0
:103AE0002405F50AE43FF50B74021211DA850A8207
:103AF000850B8312BD8112269D8A0E8B0FEA450F1E
:103B0000700302BBA9EE2402F50CE43FF50DA81AE0
:103B1000A91B8812891378121213F77CFF7DFF7995
:103B20000D12BD7B12276F740212118A12BBB9707D
:103B30000B850A82850B8312C0B6807A8E828F83B2
:103B4000A3A3A3A3E0F51478141213FB850A8285BE
:103B50000B83A3A312140E75141375150378141296
:103B600013F778121213F774091211C012140E749D
:103B7000091211C0E0F912BD77122805740912115B
:103B80008AE9FE700F7C137D0312BD7B1223DFE9EF
:103B90007009802074166E70027E0090031412BDAE
:103BA00081123441EE7004800B7E01850A82850B00
:103BB0008312C3D5EEF902C3EA12BDC0F512A3E029
:103BC000F513EA45132274E81211E474FE1211741D
:103BD0008A188B198C168D17EA2405F50EE4351911
:103BE000F50FEA2402F510E43519F511851082F578
:103BF0008312BD811224B18A0A8B0B750D007C03E0
:103C00007D0079007A137B031233D5750C00E50A29
:103C100014F5120424FFF50AE50B34FFF50B80546C
:103C2000900313E0FA900310E0F8EA28F8E4340077
:103C3000F9E50A98E50B99500D900313E0F8E512A9
:103C4000C398900310F0E0F5147515007814121362
:103C5000F712CD12900314E02AFAA3E03400FB120D
:103C600033BD740212118A900310E0F8900313E040
:103C700028F0050C850E82850F83A3A312C68C4005
:103C80000302BD5C900313E0C3950AE4950B400367
:103C900002BD5CAE0CEE2EFEE433FF12BD9BAC1AEF
:103CA000AD1B12CD2DE439FB12269D8A148B15AC69
:103CB00014AD15EC4D701B750D0112BD8B12C3D9DF
:103CC00090031412B2D86003123441A90D74020299
:103CD000C044851882851983A3A3A3A3E0F50D78BA
:103CE0000D1213FBE4F514F51578141213F775147F
:103CF0001075150378141213F790031112140E7433
:103D0000071211C012140EA9128510828511831298
:103D1000BD81122805740912118AE9F50D709B9076
:103D2000031412BDB0600302BC20E4F514F515784D
:103D3000141213F77CFF7DFF790F851082851183A4
:103D400012BD8112276F740212118A12BDB6600370
:103D500002BC2012BD8B12C0BA02BCCD7C137D0305
:103D600085108285118312BD811223E5E96003026B
:103D7000BCC0790002BCCDAC0EAD0F850C82850DA8
:103D80008312BD8522E0FAA3E0FB2212BD9BE0FA7C
:103D9000A3E0F9EA85168285178322850E82850FB6
:103DA00083E02EF8A3E03FF98882898322900311F3
:103DB00012CEB3E8492212BDC0F8A3E0F9E84922C7
:103DC000900314EAF0A3EBF0900314E02274E812DD
:103DD00011E474FA12117474041211C012B9C38C74
:103DE000188D1974041211C0E02405F510A3E034F5
:103DF00000F51174041211C0E0240212C05812BD63
:103E0000811224B18A0C8B0D7F007E00A81AA91B99
:103E1000880A890B780A1213F7851082851183A30B
:103E2000A3A3A3E0F50A8E0B780A1213F7E510247A
:103E300005F50AE43511F50B780A1213F78510829F
:103E4000851183A3A312C088122697740612118AC3
:103E50008A0E8B0F802912C079F00F12C079F00FF3
:103E600090031012C3C41213F712CD12EFF812C050
:103E70004C1233BD740212118A900310E02FFFE53B
:103E80000E450F700302BF08851A82851B8312C47A
:103E9000FAA3A3A3E0F985168285178312BD8112C8
:103EA0002685E9FEE50E2404F512E4350FF513EE40
:103EB000705074041211C012C07FF50A780A1213F0
:103EC000FBE4F50AF50B780A1213F7750A10750B67
:103ED00003780A1213F790031112140E74071211CB
:103EE000C012140EE50C24FAF9AC0EAD0F85168243
:103EF00085178312BD81122805740912118AE9FE03
:103F0000603912C09512C3D8EF700302C02F90031E
:103F100014E0F5F0EF84900313F07C137D03851615
:103F20008285178312BD811223EBE9600990031586
:103F300012BD81123441790002C0428F0AEF703BFA
:103F4000E4F514F51578141213F77CFF7DFF791151
:103F500085168285178312BD8112276F7402121194
:103F60008A12C0A5700912C09512C0B902C0429051
:103F70000310E02404900314F08035900310E0F85F
:103F8000900314E0FAE82404FCE43400FDEC6A4DEC
:103F9000600302BF0EE50C24FAFAE50D34FFFBE5E1
:103FA0000A28F8E43400F9EA98EB99500302BF0EAE
:103FB000851282851383E0C0E0900315E02FF8A3FB
:103FC000E034008882F583D0E0F00F8512828513FB
:103FD00083A3E0C0E012C066D0E0F00F74021211BB
:103FE000CA880A890B780A1213F774021211C012D8
:103FF000140E85108285118312B9B71226A374049A
:1040000012118A8A0E8B0FEA450F700302BE567496
:10401000021211C0E0C0E012C066D0E0F00F7402DE
:104020001211C0A3E0C0E012C066D0E002BE5EEE96
:1040300070027E0A85108285118312C09B12C3D83C
:10404000EEF9740612118A7F100212B6900315E081
:1040500028FAA3E03400FB22F516A3E03400F5179C
:10406000851682F5832212C06A22900315E02FFA8A
:10407000A3E034008A82F5832212C06A74FF221200
:10408000C1E7A3A3A3A3E02212CFA48510828511C8
:104090008312BD852285128285138312CEB38518C3
:1040A0008285198322900315EAF0A3EBF0900315A3
:1040B00012CEB3E8492212C3DEE8F0A3E9F0791189
:1040C0002274EA1211E474FE1211748A0A8B0B8CAA
:1040D000148D15EA2405FEE4350BFFAC1AAD1B8EDA
:1040E000828F8312BD8112269D8A0E8B0FEE2406CD
:1040F000F510E43FF511EA450F700302C1B9E50A76
:104100002402F50CE4350BF50D8A828B83A3A3A35F
:10411000E0A2E55028851A82851B8312BD811227F3
:10412000F98A128B13EA45136020791212BD778544
:1041300012828513831211E2E9F50E707F851082D9
:10414000851183E0600979528011750E0E806D85AE
:104150000A82850B83A3A3A3A3E0F9E4F50AF50B78
:10416000780A1213F78E828F83A3A3E0F50A780AE8
:104170001213F78E828F83A3A3A312140E8E828F45
:104180008312CD1512BD7B12280B740612118AE919
:10419000F50E7011851082851183E0702D12BD7BA4
:1041A0001223F180257416650E7011750E007418B7
:1041B0001211C012C1E3E48010750E0112CEAB855E
:1041C0001482851583E8F0A3E9F0851082851183B8
:1041D000E0600479008002A90E740212118A7F0E39
:1041E0000212B612C1E722E0F8A3E0F5838882222A
:1041F00074EC1211E474F71211748A0C8B0D8C128A
:104200008D13EA2405FEE4350DFF750E00AC1AADE2
:104210001B8E828F8312BD8112269D8A0A8B0BEA28
:10422000450B700302C3AFE50C2402F50C500205E8
:104230000D8A828B83A3A3A3E0A2E5502F851A8267
:10424000851B8312BD811227F98A0E8B0FEA450F59
:10425000604F7912AC0AAD0B12BD7B850E82850FC3
:10426000831211E2E9F50E600302C3B2850C828568
:104270000D83E0F50AA3E0F50BAA0AFB1227EDEA8D
:104280004B70197AFF7BFF1227EDEA4B700302C3D4
:10429000A58A828B83E50AF0A3E50BF0750A0080FE
:1042A00008750E0E02C3B2050A90030DE0F8E50A88
:1042B000C398400302C3A5850A10751100740378E2
:1042C000101211618A828B83A3A3E02510F8A3E06A
:1042D000351112C77970D08E828F8312C3CD12B977
:1042E000C38E828F83A3A312C3CD12B9C1EE24045F
:1042F000F50AE43FF50B850A82F583E0888289831D
:10430000A3A3A3A3F0A3E4F0EE2405F510E43FF586
:1043100011851082F58312C3CDA3A3A3A312B9C143
:1043200075140775150078141213F7EEFCEFFD7481
:10433000041211D21233BD740212118AE4F51478FA
:10434000141213F7850A82850B83E0FC7D00791730
:1043500012BD7B12276F740212118A74071211C0EA
:1043600012B9C374071211C0E0FA4B603D850A828E
:10437000850B8312C3C41213F78510828511831233
:10438000CD151233BD740212118A74021211DA12A1
:10439000BD7B1223F7E9602674071211C012BD819C
:1043A0001234418019750E098008750E118003754D
:1043B0000E0112CEAB85128285138312C3D8A90ECB
:1043C00074098028E0F50A750B00780A2212BD8571
:1043D000888289832212C3DEE8F0A3E9F022E0F8A4
:1043E000A3E0F985108285118322740412118A7F5B
:1043F0000C0212B674EC1211E412C4E8751200EE4D
:104400002402F50EE43FF50F850E82F58312BD817F
:104410001227ED8A0A8B0BEA450B700302C4CC8588
:104420000C82850D83E06401600302C4C1AC0AAD57
:104430000BAA0CAB0D1227E1E9606E850A82850B91
:104440008312B74EEE2406F50CE43FF50D8E828FF5
:1044500083A3A312140E8E828F83A3A3A3A312148B
:104460000E850C82850D8312140E79188E828F832F
:1044700012C4FA12BD8112280B740612118AE9F8CF
:10448000741668700B850C82850D83E4F0A380148C
:10449000E860128E828F8312BD8185108285118320
:1044A000EAF0A3EBF08812801878101213F7AC0A28
:1044B000AD0BEEFAEFFB1227E7740212118AE9F551
:1044C00012AA0AAB0B1227F3E512700E850E828535
:1044D0000F8312BD811223FD8009741665127003CB
:1044E000751200A91202C3EFEAFEEBFF8C108D11CA
:1044F000EE2405F50CE43FF50D2212CFA4850E82C3
:10450000850F832274EA1211E4750A00750B007E90
:10451000007F00750C00EC2402F512E43DF51380D9
:1045200035EC650A7003ED650B600302C5B988823E
:104530008983A3A3E06A7003A3E06B707C888289FF
:1045400083A3A3A3A312CEAFEE28FEEF39FFEA2880
:10455000FAEB39FB050C12C689503A850C0E750F23
:10456000007403780E12116185128285138312C6BE
:104570007C12C779601FE50A450B70A58C0A8D0B6C
:104580008882898312B74C88828983A3A3E02EFA9C
:10459000A3E03F80BEE50CC39402500302C67775CA
:1045A0000A00750B00EE4F6010EEFAEFFB12343B81
:1045B0008A108B11EA45117005790002C679750DD4
:1045C0000002C64C850D0E750F007403780E121193
:1045D00061851282851383E0250EF50EA3E0350F69
:1045E000F50FE50E2406F516E4350FF5178516824E
:1045F000F58312C77E6042E50E2404F514E4350FFE
:10460000F515851482F58312140EE510250AFAE5D6
:1046100011350BFB1233BD740212118A8514828589
:104620001583E0250AF50AA3E0350BF50B85168204
:1046300085178312BD81123441E50D600D7C087D24
:10464000007900AA0EAB0F1233D5050DE50DC39509
:104650000C500302C5C485128285138312CEAF8825
:10466000828983A3A3A3A3A3A3E510F0A3E511125A
:10467000B2DFEEF0A3EFF0790102C1DE12C68022B4
:10468000E0250EF8A3E0350F2290030DE0F8E50CCD
:10469000C3982274F01211E48A108B118C0C8D0DCA
:1046A000750F00750E0080507916EE2406F50AE4A9
:1046B0003FF50B8E828F83A3A312140E8E828F83FD
:1046C000A3A3A3A312140E850A82850B8312140ED2
:1046D000851082851183A3A312BD8112280B740655
:1046E00012118AE9F50F7416650F706C850A8285C0
:1046F0000B83E4F0A3F0050E90030DE0F8E50EC384
:10470000985066AA0E8A0A750B007403780A121173
:1047100061850C82850D83A3A312C7C8E8FEE9FF5B
:104720008E828F8312C77E6040EA2401F50AE4344A
:1047300000F50B90030DE0650A7002E50B6014882C
:10474000828983A3A3A3A3A3A3A3A312BDB06003E1
:1047500002C6A8791802C6AAE9609B12CEAB7410F3
:104760001211C012C77012C3D8A90F7F080212B667
:10477000E0FAA3E0F5838A8222F98882898312CF46
:10478000A4EC4D2274F61211E47C0080010C90031D
:104790006AE0F8ECC398501E8C0A750B007402781E
:1047A0000A12116112C7BDE06A7003A3E06B70DDED
:1047B000E8FAE9FB80047A007B0002C86090030BF2
:1047C00012C7C88882898322E0250AF8A3E0350B46
:1047D000F92274F21211E48A0A8B0B750C008027FF
:1047E0008E828F83A3A3A3A312B2D6600312344197
:1047F0007C087D007900EEFAEFFB1233D58E828FB4
:1048000083E4F0A3F0050C12C6895027850C0E75C1
:104810000F007403780E121161850A82850B83A341
:10482000A3E0250EFEA3E0350FFF8E828F8312BD1D
:10483000B070AD850A82850B8374FFF0A3F002CFC0
:104840009874F61211E412279F8A828B83E58245C1
:104850008370067A007B008007A3A3A3A312BD8107
:104860007F020212B674F41211E4890A8C828D83DD
:10487000E06402703C12CE4EFEA3E0F9EEF8740242
:104880006870037429697029750C02750D00780C25
:104890001213F774101211C012140E74101211C0FA
:1048A00012140EA90A1230FF740612118AE9F98057
:1048B00002790102B31374E81211E474FB1211744B
:1048C000E9851A82851B83F08A188B19ECFEEDFFAF
:1048D0007512008E828F83A3A3A3E0A2E4502D74EF
:1048E0001D1211C012BD811227F98A828B83E582C5
:1048F0004583700302CCED790AEEFCEFFDAA18ABFC
:10490000191211E2E9F512600302CCF0741F1211C2
:10491000C0E0F50AA3E0F50B74211211C0E0F50C1C
:10492000A3E0F50D74231211C0E0F510A3E0F5111A
:104930008E828F83E06402600302CC8EA312CEAF1E
:10494000850A82850B83A3858214858315EE240650
:10495000F50EE43FF50F8882898312CD2DF516E41C
:1049600039F517781612148101000028012890C922
:104970000700022855CA0328C3C9002984CB01298E
:10498000AFCB022950CB032984CB042928CC8ECC71
:10499000E5104511600302CC89850E82850F8312D4
:1049A000CEAFE8FAE9FB8A828B83E0850C82850D25
:1049B0008312CD381213F78A828B83A3E0FCA3E025
:1049C00002CC12E5104511600302CC89850C82856A
:1049D0000D837401F012CD22850A82850B83F07C51
:1049E000007D008E828F83A3A3A3A3E02401FAA3FA
:1049F000E03400FB12269DEA4B60408A828B83E004
:104A00002402F8850C82850D83E028F0EA2404F85E
:104A1000E43BF988828983E085148285158312CD71
:104A20004612CD381213F78A828B83A312CD15E577
:104A30000A2403FAE4350BFB02CC17850C82850DA2
:104A400083E02404F07C047D007900AA14AB1512E5
:104A500033D502CCF0E5104511600302CC8912CDAC
:104A600022FEA3E0FF850C82850D837404F0EE85A1
:104A70000A82850B83F0EF851482851583F0740319
:104A80001211DAEEFAEFFB12269D8A0E8B0FEA4521
:104A90000F700302CB338A828B83A3A312B74C74AB
:104AA000011211CA8810891178101213F7740512B7
:104AB00011C012140E7CFF7DFF1226A37404121184
:104AC0008A8B11EA45117033850E82850F8312CDD2
:104AD000191213F7850E82850F83A312140E7C0220
:104AE0007D007A537B8412249F740412118AE9702A
:104AF0000A74011211C074FFF0A3F08E828F83E05C
:104B000064027039750E02750F00780E1213F78E5D
:104B1000828F83A312CD15E50A2404FAE4350BFB3A
:104B20001233BD740212118A850C82850D83E02434
:104B300002800974011211C0EEF0A3EFF0740112AB
:104B400011C012CD0774011211C012CCFE02CC8329
:104B5000E5104511600302CC89850E82850F831212
:104B6000CF9DAA18AB19123105850C82850D83746F
:104B700002F0850A82850B83EAF08514828515830D
:104B8000EB02CC86E5104511600302CC8912CD22E0
:104B9000F8A3E0F9850C82850D837402F0E8850A9C
:104BA00082850B83F0E985148285158302CC868586
:104BB0000E82850F8312BD811233B7EAFAF8C395CE
:104BC00010E49511405CE86510451170047A00808E
:104BD00021851A82851B83E0FCE5102CFCE435114D
:104BE000FDC3EC98ED94005003E08005E510CAC3C6
:104BF0009AFAEA850C82850D83F08A0C750D00788F
:104C00000C1213F7850E82850F83E02510FCA3E0BC
:104C10003511FDAA0AAB0B1233BD740212118A02C0
:104C2000CCF075120702CCF0E5104511705B850ED3
:104C300082850F8312CEAF850C82850D837407F0B9
:104C40008882898312CCFF12CCF7E0851482851507
:104C500083F0E82402FAE439FB8A828B8312CD07C1
:104C60008A828B8312CCFEA3A312B2DE12CD0CF08B
:104C7000E82405F85001098882898312CD0CA3121B
:104C8000CD46A3A3A3A3F0806775120B8062741DA9
:104C90001211C012BD8112279F8A828B83E5824543
:104CA00083604A12CEAF880E890FE8450F603E74CC
:104CB000251211C0E0F51278121213FB78101213AE
:104CC000F7780C1213F7780A1213F774071211C051
:104CD000E0F9EEFCEFFDAA18AB19850E82850F8373
:104CE0001211E2740712118AE9F512800375120E8F
:104CF000A912740502C044F088828983A322A3E02C
:104D0000850A82850B832212CD4DF02212CD4DA350
:104D1000A32290031112CFA422E0F51075110078A0
:104D20001022850E82850F8312C1E7E022E0FAA3EC
:104D3000E0F8E4C8F9EA2822F08A828B83E0F50CD7
:104D4000750D00780C2212CCF712CD4D22E0850AA9
:104D500082850B83A3A32274EE1211E474FE121158
:104D6000748A0A8B0BECFEEDFF890CAC1AAD1BEEBE
:104D7000FAEFFB12269D8A0E8B0FEA450F70030295
:104D8000CE3F851A82851B8312BD8112279F8A829E
:104D90008B83E5824583700302CE3AA3A312CEAF84
:104DA00088108911E84511700302CE3A741412116B
:104DB000C0E0F512A3E0F513E50CF50D780D121324
:104DC000FB74191211C012140E78121213F7741B0F
:104DD0001211C0E0F9AC0EAD0FAA0AAB0B85108220
:104DE0008511831211E2740512118AE9F50D7052D2
:104DF00074FE650C604C850E82850F83E064027042
:104E00004112CE4EFAA3E0F9EAF874026870037416
:104E10002969702E85128285138312CD2DF50EE43B
:104E200039F50F780E1213F7EEFCEFFDAA0AAB0B63
:104E3000122823740212118A8008750D0E800375E2
:104E40000D01A90D740212118A7F0A0212B6A31273
:104E5000CEB388828983E02274F61211E474FE12C4
:104E60001174740C1211C012CEAFE8851A82851B22
:104E700083F074011211C0E9F0E4F50AF50B780A29
:104E80001213F7750A02780A1213F774041211CA82
:104E9000880A890B780A1213F779FE12280B740618
:104EA00012118A740212118A02C8608E828F8312D4
:104EB000CEB322E0F8A3E0F92274F71211E4EAFE7F
:104EC000EBFF890A90032812CD15123105EA54022E
:104ED000600BA90AEEFAEFFB122691800279017F9E
:104EE000010212B674F21211E474FE121174EAFE99
:104EF000EBFF890C7401650C60147402650C60038F
:104F000002CF937901122A2DE9600302CF93EEFAC2
:104F1000EFFB1227EDEA4B60031227F3A81AA91B37
:104F2000880A890B780A1213F7750A02750B007844
:104F30000A1213F7750A4D750B84780A1213F77C61
:104F4000FF7DFF7A017B00122697740612118A807A
:104F500038850A82850B83A3A3A3A3A3A312CF9DA5
:104F6000EEFAEFFB1230EDE4F50EF50F780E1213AA
:104F7000F774021211C012140E7CFF7DFFAA0AAB57
:104F80000B1226A3740412118A8A0A8B0BE50A45B8
:104F90000B70BE740212118A7F060212B612C1E7AC
:104FA00012CFA422E0FCA3E0FD2274F41211E48AE3
:104FB0000A8B0BECFEEDFF90171CE0F4604B7A09B6
:104FC0007B001233E1EA4B60408A828B8374B1F03C
:104FD000A3E412D00CF08A828B83A3A3E50AF0A38A
:104FE000E50B12D00CA3EEF0A3EFF0740C1211C07D
:104FF00012CEAF8A828B83A3A3A3A3A3A3A312C3BE
:10500000D890171CE0F91233ED02B313F08A828BAB
:1050100083A3A3A3A32274F01211E474FA121174EF
:10502000890BECFEEDFF750A008A0C8B0D780C12D3
:10503000143B0004103CD259D077D091D0A9D0C7EE
:10504000D0DFD002D11AD12ED158D1D3D1E4D1FBA7
:10505000D116D23CD23CD26ED17401650B600302F2
:10506000D2378E828F83E0F8C39403400302D23795
:10507000E890184B02D2137402650B600302D2371A
:105080008E828F8312D99A90184CE8F0A3E902D24D
:10509000137401650B600302D23712D2644003021D
:1050A000D237E890076102D2137401650B600302E6
:1050B000D2378E828F83E0F8C39405400302D23743
:1050C000E890076202D2137401650B600302D237C5
:1050D00012D264400302D237E890076302D21374FD
:1050E00010650B600302D237750C10750D00780C3B
:1050F0001213F77A647B071233BD740212118A020D
:10510000D25D7401650B600302D23712D264400392
:1051100002D237E890077402D2137401650B600362
:1051200002D2378E828F83E090184F02D21374041C
:10513000650B600302D2378E828F83780E12102C9B
:1051400090839F780E120E5F500302D2379007763D
:10515000780E12103B02D25DE9600302D2371226AC
:1051600037E970051230B1805590080980617407E5
:10517000650B600302D237750C06750D00780C12B2
:1051800013F78E828F83A3AC82AD8374021211D287
:105190001233C3740212118A7C007D00AA1AAB1B61
:1051A0008E828F83E0F912305DE9FEC3940A4003DA
:1051B00002D25A122637E9700CEEF91230B7795044
:1051C000123501806D740A2EF582E43408F583747B
:1051D0000180407401650B705E12D2645059E890F2
:1051E0000775802F7401650B704D8E828F83E0F8F8
:1051F000C3940A5042E890184E80187401650B70F1
:10520000368E828F83E0F874F928C3940A5028E818
:10521000901850F080477401650B701B900808E0EF
:10522000F88E828F83E0900808F0E87030E0640127
:10523000702B1230A58026750A188021C3EA9427A6
:10524000EB940050157402650B700F8E828F8312E1
:10525000E47A1224B7E9F50A8003750A02A90A74F0
:105260000602D5888E828F83E0F8C3940222A90AB1
:10527000800312118A7F040212B674F01211E474D2
:10528000B11211748C0C8D0D90835C74201211DAA4
:10529000740612108774201211DA12305DE9FF745F
:1052A0005F1211C0E0F50BEFC3940A400302D3FC78
:1052B00075F006EFA4F50A74411211DA7A0E742023
:1052C000250AF91234FBE97009744D1211C0E0FE91
