:020000040000FA
:104000004FEBFFFF0D00007C42424242FFFFFFFFEB
:10401000FFFFFFFFFFFFFFFFFFFFFFFFFFFFFFFFB0
:10402000000102030405060708090A0BFFFFFFFF52
:1040300002467F025451FFFFFFFFFFFFFFFFFFFF1C
:10404000FFFFFFFFFFFFFFFFFFFFFFFFFFFFFFFF80
:10405000FFFFFFFFFFFFFFFFFFFFFF025BC2FFFF4E
:10406000FFFFFF025B99FFFFFFFFFFFFFFFFFFFF67
:10407000FFFFFFFFFFFFFFFFFFFFFFFFFFFFFFFF50
:10408000FFFFFF0254C7FFFFFFFFFFFFFFFFFFFF20
:10409000FFFFFFFFFFFFFFFFFFFFFF025B4CFFFF84
:1040A000FFFFFFFFFFFFFFFFFFFFFF025B72FFFF4E
:1040B000FFFFFF0252A701120A0A0A0286840100CA
:1040C00000638402B48401000018161056820100B7
:1040D000008202028E84030000850202B484010083
:1040E000001916108681030000870202B4840100C3
:1040F000001A161096820300001B16120A020A0A02
:104100000286840100006F8402B4840100005C1602
:1041100010A6810100008A02028E840300008E0234
:1041200002B4840100005D1610D6800300009002E6
:1041300002B4840100005F1610F6800300006016D0
:1041400002B4840100005E1610E6800100009102B6
:10415000028E84030000A102FF0000B400002800CA
:104160002800283075A000A000A000A000000800D2
:1041700008E001F000100010001000100010001006
:104180000050005000500010001000D00700000048
:104190000000000F0001000500307507001000014D
:1041A0000081FF00000000FFFFFF5B5E795E615E43
:1041B0009D5EFF02020208025000A0000000E8031A
:1041C0000286840100007B8402B48401000014177D
:1041D000029084010000E10202B48401000015177E
:1041E000029284010000F70202B484010000161755
:1041F000029484010000F90202B484010000171740
:1042000002A084080000FA0202B48401000018171A
:1042100002AE840100001917FF0100FF200286840E
:10422000010000758402B4840100007D1702A2849D
:104230000000000000028E8403000028031700091C
:1042400065096509650965096509650965096509FE
:10425000650965096509650965C167D367BB6712AB
:104260000808028684010000608402B48401000012
:10427000C01710D6820100004707028E8403000099
:104280004D0702B484010000C11710C6820200006D
:104290004F0702B484010000C21710B6820200006A
:1042A0005707020202020202020202010D00000090
:1042B0001001028684010000698402B484010000B8
:1042C000031802AA84010000580702B48401000008
:1042D000041802A884010000C58002B48401000013
:1042E000051802A684010000B88302B4840100000E
:1042F000061802A484010000B38002B48401000007
:104300000718029E84010000B38302B484010000F8
:104310000818029C84010000AE8302B484010000EE
:104320000918029A84010000A18002B484010000EF
:104330000A18029884010000268302B48401000058
:104340000B180296840100000C18124D6561732E43
:1043500020446174612E000A416374696F6E2E20DF
:1043600043616C6C2E000A506572696F642E2044A4
:104370006174612E00028684010000728402B4849C
:10438000010000AB18106682010000B707028E849E
:10439000030000BC07028C84010000AC1802B48446
:1043A000010000B818104682030000BE07028C848A
:1043B000010000B91802B484010000C71810368249
:1043C000030000BF07028C84010000C81801E80345
:1043D0000577100A120A0A0A028684010000818405
:1043E00002B48401000035191016820100007C0817
:1043F000028E84030000820802B484010000361992
:10440000100682030000840802B4840100003719FA
:1044100010F68103000038190380000080700061ED
:1044200080120A0A0A0286840100006C8402B484A5
:10443000010000821910D6810100000F09028E844C
:10444000030000130902B484010000831910C6811F
:10445000030000150902B484010000841910B6811C
:104460000300008519120A0A1E0286840100007EDC
:104470008402B484010000C619109681010000185E
:1044800009028E840300001C0902B484010000C7E5
:10449000191076810300001E0902B484010000C8CF
:1044A00019106681030000C919120A0A0A028684DB
:1044B000010000788402B4840100000A1A104681C9
:1044C0000100002109028E84030000270902B48440
:1044D0000100000B1A103681030000290902B48480
:1044E0000100000C1A1016810300000D1A1C028630
:1044F00084010000668402B4840100004E1A10306A
:10450000800200002A09028E840300002C09028C1C
:1045100084010000348302B4840100004E1A10406C
:10452000800200002B09028E840300002E09028CF9
:10453000840100004183FFFFFFFFFF00013075038E
:104540000201060000000000000000000000000062
:10455000000000000000000000000000000000FF5C
:10456000FF0600800CE8030A0953656E736F7254EE
:104570006167051250002003020A00020105544938
:1045800020424C452053656E736F72205461670062
:10459000D007E803E803E803E803E803636E0000DC
:1045A000696E6F6E756E816E7B6E876E8D6E936EAB
:1045B000996E104B65792050726573732053746146
:1045C0007465000286840100005D8402B4840100E9
:1045D00000131B02B2840000001516028E84030033
:1045E000001616028C84010000141BE5C754F84421
:1045F00004F5C779012200000080FB1245EBB900E9
:1046000003024669E479217808B800028004F709BA
:10461000D8FCE479297802B800028004F709D8FCB4
:10462000E4900280789979148002F0A3D8FCD9FA3A
:10463000781C9040B67A01BA00028007E493A3F692
:1046400008DAF97A187B169040B778357906801524
:10465000E493A3AD82AE838A828B83F0A3AA82AB5C
:10466000838D828E83D8E9D9E775827975837F74CB
:10467000001246917582F675834574001246917555
:10468000D00075813F751A80751B02759F00024529
:10469000FBC09FF59FE473D09F22D083D082C09F40
:1046A000E493C0E0740193C0E0740293F59F22E0AC
:1046B00066701008A3E066700A08A3E0667004083C
:1046C000A3E06622C3E7960809E7960809E796087B
:1046D00009E79622C3E09608A3E09608A3E09608AF
:1046E000A3E09622C00AC3E096F50A08A3E096422A
:1046F0000A08A3E096420A08A3E096450A7001D38F
:10470000D00A22080808EAC0E0EBC0E086F0E7A47F
:10471000FA180986F0E7A42AFA180986F0E7A42A0D
:10472000FA180986F0E7A42AFA1986F0E7A4FBE54F
:10473000F02AFA190886F0E7A42BFBE5F03AFA19FB
:104740000886F0E7A42BFBE5F03AFA18180986F082
:10475000E7A4C5F02BFBE43AFA1908E7C5F0C6A4B4
:1047600026F6E5F03BFBE43AFA1886F0E7A4F6E516
:10477000F00826F6E43B08F6E43A08F6D0E0FBD071
:10478000E0FA22E4CFC0E0E4CEC0E0E4CDC0E0E453
:10479000CCC0E075F020E626F608E633F608E633EE
:1047A000F608E633F6181818EC33FCED33FDEE335B
:1047B000FEEF33FFC3EC9709ED9709EE9709EF97EA
:1047C000191919400FFFEC97FC09ED97FD09EE97B9
:1047D000FE191906D5F0BFECF709EDF709EEF70958
:1047E000EFF7191919D0E0FCD0E0FDD0E0FED0E0E1
:1047F000FF226016080808C6C313C618C613C618D9
:10480000C613C618C613C6D5E0EA22700908080800
:10481000226016181818C6C333C608C633C608C6A1
:1048200033C608C633C6D5E0EA22E627F60809E60D
:1048300037F60809E637F60809E637F622E026F6E5
:1048400008A3E036F608A3E036F608A3E036F62221
:10485000E026F008A3E036F008A3E036F008A3E075
:1048600036F022C3E697F60809E697F60809E697B8
:10487000F60809E697F622C3E096F008A3E096F062
:1048800008A3E096F008A3E096F022E056F608A30D
:10489000E056F608A3E056F608A3E056F622E056E6
:1048A000F008A3E056F008A3E056F008A3E056F0A5
:1048B00022E0F608A3E0F608A3E0F608A3E0F6225B
:1048C000E6F008A3E6F008A3E6F008A3E6F022E08D
:1048D000FAA3E0FBA3E0FCA3E0FD22EAF0A3EBF0E7
:1048E000A3ECF0A3EDF022E0F8A3E0F9A3E0FAA333
:1048F000E0FB22E8F0A3E9F0A3EAF0A3EBF022CA80
:10490000C0E0E6F0A308DAFAD0E0FA22CAC0E0E09C
:10491000A3C582CCC582C583CDC583F0A3C582CC97
:10492000C582C583CDC583DAE6D0E0CA22C3E49848
:10493000F8E499F912496E8026C3E49AFAE49BFBE5
:10494000E920E7E912496EE498F8E499F922C3E412
:1049500098F8E499F912496EE498F8E499F9C3E4F7
:104960009AFAE49BFB22EB20E7CFE920E7E0B900CD
:1049700010BB0008E88AF084F8AAF022E4FBC8FA29
:1049800022EB70227B10C833C8C933C9335007C328
:104990009AC3DBF280069A50012ADBEAC833F4C8D6
:1049A000C933F4C9FA2275F008E4C833C8C933C959
:1049B00033C99AC99B5004C92AC93BD5F0ECFBC83E
:1049C00033F4C8E4C9FA22600D08C6A2E713C6187A
:1049D000C613C6D5E0F322600C08C6C313C618C6BA
:1049E00013C6D5E0F422700422600D18C6C333C686
:1049F00008C633C6D5E0F41822251A10AF08F51AF8
:104A0000400C151B8008F51A4002151BD2AF22007E
:104A1000C0D0251A10AF08F51A500C051B8008F5F8
:104A20001A5002051BD2AFD0D022251AF58210AF42
:104A300008F51A400C151B8008F51A4002151BD208
:104A4000AF851B8322251AF582E4351BF5832225C9
:104A50001AF8E4351BF922251AFAE4351BFB222546
:104A60001AFCE4351BFD22E473251AC582C0E0E57B
:104A70001B34FFC583C0E0E51AC3958224F810AF4C
:104A80000885831B85821A800885831B85821AD23C
:104A9000AFCEF0A3E520F0A3780AE608F0A3DEFA93
:104AA000EFF0A3E58124FAF8E608F0A3E608F0A306
:104AB000E608F0A30808E608F0A3E608F0A31581CD
:104AC0001581D0E0FED0E0F8158115811581E8C090
:104AD000E0EEC0E022251AC582C0E0E51B34FFC528
:104AE00083C0E0E51AC3958224F910AF0885831BC3
:104AF00085821A800885831B85821AD2AFCEF0A3E7
:104B0000E520F0A3780AE608F0A3DEFAEFF0A3E5CB
:104B10008124FBF8E608F0A3E608F0A30808E608FD
:104B2000F0A3E608F0A315811581D0E0FED0E0F8EF
:104B300015811581E8C0E0EEC0E022851B83851A4F
:104B400082E0A3FEE0A3F520780AE0A3F608DFFAEE
:104B5000E0A3FFE0A3C0E0E0A3C0E0E0A3C0E0E08A
:104B6000A3C0E0E0A3C0E010AF0885821A85831BD4
:104B7000800885821A85831BD2AFD083D0820246FB
:104B800097851B83851A82E0A3FEE0A3F520780AAF
:104B9000E0A3F608DFFAE0A3FFE0A3C0E0E0A3C0D3
:104BA000E0E0A3C0E0E0A3C0E010AF0885821A8572
:104BB000831B800885821A85831BD2AFD083D08265
:104BC00022C0D0251AC582C0E0E51B34FFC583C0D2
:104BD000E0E51AC3958224F310AF0885831B858214
:104BE0001A800885831B85821AD2AFC8F0A3E9F02A
:104BF000A3EAF0A3EBF0A3790AE709F0A3D8FAEC53
:104C0000F0A3EDF0A3EEF0A3EFF0A3D0E0F0A3D07B
:104C1000E0F0A3D0E0F0A3E520F0A3E5F0F0A322BC
:104C2000851B83851A82E0C0E0A3E0F9A3E0FAA324
:104C3000E0FBA3780AE0F608A3DFFAE0FCA3E0FDBE
:104C4000A3E0FEA3E0FFA3E0C0E0A3E0C0E0A3E098
:104C5000F5D0A3E0F520A3E0A3F5F010AF0885831D
:104C60001B85821A800885831B85821AD2AFD08269
:104C7000D083D0E0F8D0E032740480067402800261
:104C80007401C0E0F404124A2AD0E01248FF2274F2
:104C900004800474028000CCC0E0EDC0E0E51AC3DB
:104CA0009CCCAD1B50011D10AF068C1A8D1B8006CD
:104CB0008C1A8D1BD2AF12490CD0E0FDD0E0FC2243
:104CC000D083D082E9C0E0E493A3C386F0C5F09519
:104CD000F0F908E493A386F0C5F095F0700BE49327
:104CE000A3C3994005E9048002A3E475F002A4255A
:104CF00082F582E5F03583F583D0E0F9E493A3C033
:104D0000E0E493C0E022D083D082ECC0E0EDC0E0CC
:104D1000E493A3FCE493A3FDED4C600D124D52EC23
:104D200024FFFCED34FFFD80EFE493A3FCE493A3A8
:104D3000FDED4C600D124D91EC24FFFCED34FFFDB8
:104D400080EFD0E0FDD0E0FCE493A3C0E0E493C0AA
:104D5000E022C0E0C3E49396087401939618400FD4
:104D6000E49366700808740193661870007019A3C4
:104D7000A3C3E49396087401939618A3A3400DD09F
:104D8000E0D0E0D0E0024D42A3A3A3A3A3A3D0E0D0
:104D900022C0E0C0F088F0E49366700808740193C4
:104DA00066187000A8F0A3A3700BD0F0D0E0D0E09C
:104DB000D0E0024D42A3A3D0F0D0E02274F6124A14
:104DC000D5EAFEEBFF8C0A8D0BEE2434F8E43FF9B4
:104DD000E8FCE9FDEE24351250F6FAEE24371250C5
:104DE000F6F8850AF0A4C885F00C850BF0A4250C14
:104DF000F9EA28F8E439F97A257B0012496EEA8C41
:104E0000828D83F0FA131313541FF8EE28F8E43F51
:104E1000F9E8245DF582E439F583E0C0E074075ACF
:104E2000F8D0E0B800028004C313D8FCA2E0EE5032
:104E3000082434F582E43F801824361250F6F5F049
:104E4000EA84A8F0EE28F8E43FF9E82438F582E493
:104E500039F583E0F97F03024B8174F7124AD5EAF2
:104E6000FEEBFFEE24341250F6C0E0EE2435F5825E
:104E7000E43FF583D0E0F08E828F83A3A3A3A3A3A6
:104E8000A3A3C082C0838E828F83A3A3A3A3A312F4
:104E90004F5FD083D082E0C398F50AA3E099F50B69
:104EA000EE247F1250F66401705DEE2480124F599B
:104EB0008E828F83A3A3A3A3A3A3A31252998E824E
:104EC0008F83A3A3A3A3A3E0FAA3E0FBC3EA9CEB15
:104ED0009D5010C3EC98ED99402DC3EA98EB995082
:104EE00026800EC3EA98EB994007C3EC98ED9940F1
:104EF000167CD27D04EEFAEFFB126449EE247FF5B6
:104F000082E43FF583E4F0AC0AAD0BEEFAEFFB125E
:104F10004DBCE9F9125B3E7F02024B81C082C08327
:104F2000851A82851B83124F5FC3EA9CEB9D50104C
:104F3000C3EC98ED99401BC3EA98EB995014800E8E
:104F4000C3EA98EB994007C3EC98ED9940047901C6
:104F500080027900D083D08222F582E43FF583E09D
:104F6000F8A3E0F922EAC39CFAEB9DFB2274EF124E
:104F70004AD5900398E064086005E06407702A90C1
:104F800061C8E060249003C6E0F4601DE0F875F0AD
:104F90000AA4C8AAF02AF974C828FE740339FF8E3F
:104FA000828F83A3A3A3E0700302507B906060E034
:104FB000C0E0EE2468F582E43FF583D0E0F0750EA2
:104FC00042750F05750A00750B00E5D914F50CE55F
:104FD000D95403F5106012740365106043E50C604A
:104FE0000AEE24671250F67002807590053DE06469
:104FF00001601F1250F360047A0480027A00E50C0D
:10500000C39AFA95E0FB1262F38A0A8B0BEA450B0E
:10501000700512668980641250F370048A0E8B0F3B
:10502000E50C6012850E82850F83F50DE5D9F0A39E
:10503000150DE50D70F61250F3604474FC250CF567
:105040000C780E124C7CAC0CA910EEFAEFFB12653A
:10505000037402124A0FE97026AA0AAB0B126D0103
:10506000793D8E828F83A3A3A3A3E0FA7B00126114
:1050700055EEFAEFFB12646D1265157900806F74BE
:105080000365106051850C127513007812124C7C68
:10509000AC0EAD0FAA0AAB0B1264C77402124A0F12
:1050A000EE24681250F664807004747F8001E0F58D
:1050B0000E780E124C80E510F50E780E124C80A979
:1050C0000CAC0AAD0B9003C6E0FA7B0012612B74A6
:1050D00002124A0F8013900398E06408600BAC0E34
:1050E000AD0FEEFAEFFB12658712669579017F0A24
:1050F000024B81EE2482F582E43FF583E02274F2D4
:10510000124AD574FC1249F9EAFEEBFF890BA2AFF3
:10511000E433F50AC2AF0251BAE0601B780E124CBC
:105120007CAC0DA910EEFAEFFB1264FD7402124A7A
:105130000F7404250DF50D7401250DF5D98510D9D1
:10514000E50D6018F50C850E82850F83E0F5D9A377
:1051500085820E85830F150CE50C70EA75E195EEDE
:105160002463F8E43FF97A007B00A2AFE433F50D45
:10517000C2AF125295EC4D603288828983E0FAA367
:10518000E0FB8A828B8312529988828983ECF0A398
:10519000EDF08A828B83E4F0A3F0125295EC4D700F
:1051A0000A88828983A3A3E4F0A3F0E50DA2E0922C
:1051B000AF126D019004D9E004F0EE2463124F5950
:1051C000E8496064EE24631250F62402F8A3E03448
:1051D00000F988828983E5822402F50EE43583F59F
:1051E0000FE0F50DA3E0F510EE24621250F6640115
:1051F00070369061D0E0F81250F360047C048002B5
:105200007C007480C398FA95E0FBE50D2CF8E4343B
:1052100000F9E82402F8500109C3EA98EB99A2D2F8
:1052200065D03340030251199004D9E0604D9004D9
:10523000DAE0F89004D9E0C398500C7402650B7062
:105240003A9004DBE060348E828F83A3A3A3A3E0B3
:10525000851A82851B8312528B7402124A45E8120A
:10526000528B9004D8E028F07402124A5FAA1AAB5D
:105270001B790112617F9004D9E4F0E50AA2E09263
:10528000AF7404124A0F7F07024B81F0A3E4F09041
:1052900004D9E0F82288828983E0FCA3E0FD22FFA4
:1052A0008521878522C622C0E074EB124BC1A2AFD4
:1052B000E433F50AC2AF759B00906182E0A2E05032
:1052C00030E591A2E0502A7591FE740165217021AC
:1052D00012543A1265D5125428124C8F1258E874A1
:1052E00004124A0FE964017005790112661D124F1C
:1052F0006D906182E0A2E5505DE591A2E5505775A1
:1053000091DF900398E064076005E06408702F1255
:10531000543A74016521703E1265D5125428124C1E
:105320008F1258E87404124A0FE96401700579017C
:1053300012661D7901EEFAEFFB1250FE8018E06450
:105340000D70139003BAE004F064287002E4F07A60
:1053500000E0F912669B906182E0A2E640030253EE
:10536000FDE591A2E640030253FD7591BF900398BD
:10537000E0640570081265BD1265C980031265C33B
:10538000752100126629E9900399F0790012661DD3
:105390001263B97A017B00900397E0F9126CD19007
:1053A0007803E064427056900541E014F0704EC2FC
:1053B000AF1253B400782AD0E0F618D0E0F6E59F9B
:1053C0005407F87005750FFF8003750F7FC4C0E0A8
:1053D0007829E6F50C08E6550FF50D740B780C12DC
:1053E00049D7D0E0250CF8906270E0A2E740F8E8D9
:1053F000C333906272F0906270E0D2E0F09061810D
:10540000E0A2E35009E5E9A2E3500375E9F7A3E060
:10541000A2E75009E591A2E7500375917FE50AA242
:10542000E092AF7F08024C208E828F83E0F8A3E0E9
:10543000C82416F582E438F583229003C6E0F87597
:10544000F00AA4C8AAF02AF974C828FE740339FF28
:1054500022C0E0C0D0C082C083906183E0A2E0504F
:1054600009E5BFA2E0500375BFFEE0A2E15009E5E7
:10547000BFA2E1500375BFFDE0A2E25009E5BFA263
:10548000E2500375BFFBE0A2E35009E5BFA2E35081
:105490000375BFF7E0A2E45009E5BFA2E45003752D
:1054A000BFEFE0A2E55009E5BFA2E5500375BFDFFD
:1054B000E0A2E65009E5BFA2E6500375BFBFD08366
:1054C000D082D0D0D0E032C0E074F2124BC1E5A758
:1054D000A2E6500FE5A1A2E6500953A7BF75A1BFF0
:1054E00012551BE5A7A2E5500CE5A1A2E550065315
:1054F000A7DF75A1DFE5A7A2E15009E5A1A2E15070
:105500000375A1FDE5A7A2E2500CE5A1A2E25006B9
:1055100053A7FB75A1FB7F01024C2074F7124AD5FB
:10552000752101900398E0640670151265398A822E
:105530008B83A3A3A3A3A3A3E0FAA3E0FB1265AB11
:10554000A2AFE433FED2AF90039EE0640170187AFC
:10555000207B00900397E0F9126DEB7A207B00909E
:105560000397E0F9126CD7906182E0D2E6F09005E3
:105570003EE0602185C622801690039DE0640170A4
:1055800008E5C654F84405F5C653BEFC1252A07493
:1055900001652160E4EEA2E092AF7F02024B81FF41
:1055A0008E238F24858228858327851A82851B83F5
:1055B000E0CEA3E0CF852882852783EBC9EAC8ED3A
:1055C000CBECCA75F010C3E833C8E933C9EA33CA73
:1055D000EB33CBC3EA9EF526EB9FF525B35004AB26
:1055E00025AA26EC33CCED33CDD5F0DAAE23AF24AB
:1055F0002274E9124AD574FA1249F9EAFEEBFF8CDB
:105600000C8D0D1265E1EAF8EBF9ECFAEDFB8E82F8
:105610008F831248F3900398E024F7C39405500653
:105620007516010257581265398A0A8B0BEA450B29
:105630007003025755EEFCEFFDAA1AAB1B1265DB97
:10564000850A82850B83A3A3780E1248B19084113A
:10565000780E12488B851A82851B8378121248B106
:10566000908411781212488B780E79121246C45029
:105670001F780E7912124863908405780E1246E462
:105680004047850E16850F1785101885111980451E
:1056900090840585121685131785141885151978B9
:1056A00016790E12486378161246E4501C751600DF
:1056B000751700751800751901781679121248636C
:1056C0007816790E12482A800C7516017517007528
:1056D00018007519007409781612480B90844578E3
:1056E0000E1248B17816790E124783850A82850B0F
:1056F00083A3A3A3A3A3A312577612496E880E898E
:105700000FE4F510F5117816790E12482A74041278
:105710004A4512577612496EE8FA8A0EE4F50F7878
:1057200016790E1246C450077816790E1248639007
:105730000398E06408600AE064066005E0640570B0
:105740002090840978161246E45016908429781621
:1057500012483D800C7516007517007518007519F4
:1057600000850C82850D8378161248C07406124A93
:105770000F7F10024B81E0F8A3E0F97AD07B03227F
:1057800074F7124AD51265F390053CE0640170107D
:10579000906245E4F0A3F053F4F343FE0C5390F30E
:1057A000126599E5C654B84441F5C6E59E54476470
:1057B0004170F8906185740FF090053AE0F4700242
:1057C000A3E0604E90053BE0600814601B14602E5F
:1057D0008040750A01750B0090053AE0780A12497D
:1057E000E6E50AF45280802A750A01750B009005DF
:1057F0003AE0780A1249E6E50AF452908014750AF4
:1058000001750B0090053AE0780A1249E6E50AF4C2
:1058100052A079007F02024B8174F7124AD5E9FE4B
:10582000EAFF1265F374016E700C7A807B009003BE
:1058300097E0F9126CD1906EE8E493F46008E49379
:10584000F91263AD800953C6B8E59E544770FA1249
:10585000659F90053CE0640170031263CB90053AAC
:10586000E0F47002A3E0604B90053BE06008146038
:105870001A14602C803D750A01750B0090053AE002
:10588000780A1249E6E50A42808028750A01750BFC
:105890000090053AE0780A1249E6E50A4290801342
:1058A000750A01750B0090053AE0780A1249E6E5A1
:1058B0000A42A01265398A0A8B0BA80AA90BE8498B
:1058C0006014E5E170FCE82414F582E439F583E026
:1058D000F46003E0F5E174016F700A7A01900397B8
:1058E000E0F9126D5B02581474F1124AD58A0A8BE2
:1058F0000B8C0C8D0D908411780A12488B740F124A
:105900004A45780E1248B1908411780E12488B786F
:105910000A790E1246C49084055010780A790E1246
:105920004863780A1246E44014800E780E790A1211
:105930004863780E1246E450047901800279007FB2
:1059400008024B8174ED124AD58A0A8B0B8C0C8DA0
:105950000D908411780A12488B7413124A45780E00
:105960001248B1908411780E12488B780E790A1281
:1059700046C44011780A790E124863AA0AAB0BACF0
:105980000CAD0D802275120075130075140075158D
:10599000017812790E1248637812790A12482AAAFD
:1059A00012AB13AC14AD157F0C024B8190841178AF
:1059B0000A1248B18A828B83780A12489E7F0402B9
:1059C0004B8174F5124AD58C828D83780A1248B1C6
:1059D0008A828B83780A124877125A1AC3E09CF0A5
:1059E000A3E09D125A0C40229083E1780A1248B13C
:1059F0008A828B83780A1248508A828B83A3A3A35E
:105A0000A3E02420F0A3E0344EF080A0F088828947
:105A100083C3E09420A3E0944E22EA2404F8E43BFC
:105A2000F98C828D83A3A3A3A3E0FCA3E0FD88826D
:105A300089832274F5124AD5E9FE9004F4E0FAA3B2
:105A4000E0FBEE29F8E433F974E628F58274823934
:105A5000F583E02AF50AA3E03BF50B780A124C7CAB
:105A60009083E91248CF1255A07402124A0F8A0A95
:105A70008B0B8C0C8D0D7410780A1247F2AA0AABAE
:105A80000B7F04024B8174F1124AD58A0E8B0F8C66
:105A9000108D117411124A45124C937411124A451B
:105AA000E02401F50AA3E03400F50BE4F50CF50D54
:105AB000780E790A124703908459780A1248B1780F
:105AC0000E790A124703AA0EAB0FAC10AD11125596
:105AD000A07402124A0F8B0BEA450B60047A018016
:105AE000027A00EC2AFCE43DFD7413124A45E0F80A
:105AF000A3E0F9E8FEE9FFECF8EDF97A717B021218
:105B0000496E880A890BE4F50CF50D8E828F837837
:105B10000A1248C0ECF8EDF97A717B0212496E8ADC
:105B20000A8B0B7405780A1249E68E828F83A3A331
:105B3000A3A3E50AF0A3E50BF07F08024B81C08226
:105B4000C083E9906000F0D083D08222C0E074F27C
:105B5000124BC1A2AFE433FED2AFE589A2E05003FD
:105B6000126B21758900C2C5EEA2E092AF7F0102DF
:105B70004C20C0E074F2124BC1A2AFE433FED2AFAE
:105B8000E58AA2E64006E58AA2E75003126B21757A
:105B90008A00758A00C2EB80CFC0E0C0D0E8C0E0C8
:105BA000E9C0E0A9A8D2AF758B00C2E8E9A2E7E49A
:105BB00033F8E9A2E792AFD0E0F9D0E0F8D0D0D046
:105BC000E032C0E0C0D0E8C0E0E9C0E0A9A8D2AFB0
:105BD000C2C7751C00E9A2E7E433F8E9A2E792AF77
:105BE000D0E0F9D0E0F8D0D0D0E032C2AF0200006F
:105BF0002212469A82F60312469AB4F60312469A85
:105C0000DDF60312469A7CF70312469ABDF703129B
:105C1000469AA0F80312469A6AD10312469A9CD17A
:105C20000312469AC5D10312469ABCD20312469A71
:105C300010D30312469A00D40312469A54DD03127D
:105C4000469A67DD0312469A98DD0312469AD2DD22
:105C50000312469A2BDE0312469A72DE0312469A0C
:105C6000BADE0312469AE9DE0312469A18DF0312DF
:105C7000469A4FDF0312469A96DF0312469AAFDF29
:105C80000312469A04E00312469A1DE00312469A54
:105C90006BE00312469AA5E00312469A00800312B5
:105CA000469A03810312469A3C810312469A5F8109
:105CB0000312469A71810312469AAF810312469AE3
:105CC0002B820312469AF3820312469A158303121B
:105CD000469AAC830312469AFE830312469A2F8497
:105CE0000312469A3C840312469AA6840312469AEB
:105CF000FD840312469A00850312469A39850312E1
:105D0000469A3C850312469A46850312469A9A851E
:105D10000312469ADB850312469A0E860312469AB0
:105D20004B860312469A4D870312469AF187031257
:105D3000469A5A880312469A98880312469A73D54F
:105D40000312469A9BD50312469AC8D50312469A67
:105D500000D60312469A5ED60312469AAAD60312BA
:105D6000469A11D70312469A51D70312469A8ED7F4
:105D70000312469ABCD70312469A66D80312469A73
:105D800070D80312469A7DD80312469AB0D80312EF
:105D9000469ABCD80312469AD4D80312469ADED843
:105DA0000312469A41AB0412469A4FAB0412469A2C
:105DB00067AB0412469A7EAB0412469ADCEC0112E1
:105DC000469A86ED0112469A99EE0112469A15EF0F
:105DD0000112469A33F00112469A6FF00112469A68
:105DE0000AF10112469AEEF10112469ABAF2011234
:105DF000469A48F40112469AB9F40112469A73F58C
:105E00000112469A65F60112469AA5F60112469AC3
:105E100059F70112469A8BF70112469A81F901123D
:105E2000469AC3F90112469AE1F90112469A47FAD5
:105E30000112469A16FB0112469ADAFB0112469AA3
:105E4000F9FD0112469A5DA00312469A47A103127A
:105E5000469AF2A10312469A43A20312469AF3A26B
:105E60000312469A64A30312469A49A40312469A5F
:105E70007DA40312469A76A50312469AB3A503128F
:105E8000469A8FA60312469ACEA60312469AEAA60F
:105E90000312469A06FE0112469A8AFE0112469A9B
:105EA000B5FE0112469ACFFF0112469A6CD9031231
:105EB000469A82D90312469AA0D90312469AB1DAB9
:105EC0000312469ABBDA0312469AE6DB0312469A9D
:105ED000DDDC0312469A4ADD0312469ABEAC031279
:105EE000469AEEAD0312469A25AE0312469A6FAE5D
:105EF0000312469A32B00312469AC8C80112469A53
:105F000054C90112469AB8CA0112469AC4CA01126B
:105F1000469AFFCA0112469A6ECB0112469A77CC76
:105F20000112469A80CD0112469A47CE0112469A36
:105F3000A4CF0112469AC2CF0112469ADFCF0112B6
:105F4000469A8CD00112469A09D10112469A31D153
:105F50000112469AFBD30112469A00D40112469AC6
:105F600019D60112469A67D60112469AD7D601125F
:105F7000469A15D70112469AF1D70112469AB1D81E
:105F80000112469AFDD80112469A00D90112469A8A
:105F900044D90112469A8CD90112469ACBD90112E2
:105FA000469AEDD90112469A21DA0112469A84DA0C
:105FB0000112469A01B20312469A0FB20312469A90
:105FC00062B20312469A81B20312469AC6B2031213
:105FD000469A0AB40312469AA5B40312469AE9B443
:105FE0000312469A13B50312469A82B50312469AD3
:105FF000C8B50312469A3FB60312469AF0B603128A
:10600000469A00800112469A10800112469AB18089
:106010000112469A0D810112469ACA810112469ACE
:10602000E6820112469A18830112469A47830112AA
:10603000469AF4840112469A6B870112469ADB89CC
:106040000112469ACD8A0112469AC68B0112469ACF
:10605000CD8D0112469AC1900112469AF09101121B
:10606000469AF4930112469A04950112469A939621
:106070000112469A84970112469AD2970112469AC3
:1060800041980112469A65980112469AB6980112F3
:10609000469A579D0112469A589E0112469AB99EF9
:1060A0000112469AE49E0112469AAA9F0112469A4C
:1060B00030CD0312469A3ACD0312469A7FCD031291
:1060C000469A93CD0312469A23CE0312469A5CCE8B
:1060D0000312469A97CE0312469AC0CE0312469AEE
:1060E00014CF0312469A29CF0312469A4BCF0312BC
:1060F000469A60CF0312469A74CF0312469A89CF0C
:106100000312469AC3CF0312469AEFCF0312469A60
:1061100038D00312469AAAD00312469AEDD0031241
:10612000469A17D10312469A42D10312469A69A69B
:106130000412469ABBDD0212469A9EDE0212469A6D
:1061400019DF0212469A54DF0212469AA5E00212A3
:10615000469A33E10212469AC5E30212469A77E460
:106160000212469A83E50212469AF6E60212469A0F
:106170004FE70212469A9EC40312469AE1C40312E4
:10618000469A65C50312469A3CC80312469A68FDB2
:106190000312469A1AFE0312469A16FF0312469AF3
:1061A00055FF0312469AAFFF0312469ACE9504128A
:1061B000469A31960412469ACE960412469A03974E
:1061C0000412469A33970412469A6E970412469A1E
:1061D0008E970412469A34FB0212469AC0FB0212B2
:1061E000469A7FFC0212469A97FD0212469AB1FF28
:1061F0000212469A27C70212469A4CC70212469AC2
:1062000019C80212469AEDC80212469A5AC90212D9
:10621000469A9AC90212469A36CA0212469A6ACB1E
:106220000212469A45CC0212469AA4CC0212469A11
:1062300030CD0212469A9ECD0212469A2ACE021202
:10624000469A70CE0212469AE2CE0212469A74CF55
:106250000212469A15D00212469A35D00212469A78
:106260007DD00212469AC6D00212469AE2D002129D
:10627000469A08D10212469A82D10212469A90D1C9
:106280000212469A1FD20212469A88D20212469AE7
:1062900002B70312469A87B70312469AC9B7031288
:1062A000469AADB80312469A1AB90312469A5EB9D5
:1062B0000312469AA2B90312469ACFB90312469A1C
:1062C000F7B90312469A2FBA0312469A6DBA03120F
:1062D000469A94BA0312469A0EBB0312469A58BBCA
:1062E0000312469AEC6E0012469A8B700012469A80
:1062F000C3720012469A17730012469A4273001234
:10630000469A1E740012469A4E740012469A7D7484
:106310000012469A90740012469AD1740012469A5E
:10632000FE740012469A4C750012469A8875001247
:10633000469ACD750012469A1A760012469A9476BD
:106340000012469AD5780012469ABF7A0012469AF1
:10635000FB7A0012469A8A7C0012469ACF7C001281
:10636000469A427D0012469A977D0012469A9C7D7D
:106370000012469A267E0012469A457F0012469ADF
:10638000567F0012469AF8E70212469A71E8021206
:10639000469A2BEE0212469A36EF0212469ADFF028
:1063A0000212469A6DF10212469AB0B40112469A50
:1063B00031B50112469A5EB50112469AA7B501128F
:1063C000469AA8B60112469A01B70112469A7DB8BC
:1063D0000112469AFFB80112469A1AB90112469A5A
:1063E0008BB90112469A48BA0112469A0BBB0112A8
:1063F000469A99BB0112469A50BC0112469A63BC58
:106400000112469AFCBC0112469A93BD0112469AAB
:10641000BABD0112469A23BE0112469A6DBE011200
:10642000469ABBBE0112469A62BF0112469A00C04C
:106430000112469A8DC00112469AFEC00112469A78
:1064400045C10112469A9DC10112469ACFC101125F
:10645000469A90C20112469A93C30112469ADCC32F
:106460000112469AF9C30112469A18C40112469ABB
:106470004BC50112469A02C60112469A27C601125E
:10648000469A3CC60112469AACC60112469AEDC61F
:106490000112469A11C80112469A92C80112469AF0
:1064A00097F10212469AE2F10212469AEEF10212B6
:1064B000469AC2F20212469AD9F20212469A16F38C
:1064C0000212469A47F30212469A7FF30212469A44
:1064D000D5F30212469AEBF30212469A27F40212FF
:1064E000469A3AF40212469A61F40212469A95F4D8
:1064F0000212469ABBF50212469A05F70212469A14
:1065000001F80212469A17F90212469AEE7F00121B
:10651000469A8D8E0212469ABC8E0212469A0E92AE
:106520000212469A65930212469A24940212469ADF
:106530008B970212469A77980212469AC9980212CD
:10654000469AE3980212469A15990212469A2099A1
:106550000212469A29990212469ADB990212469A29
:10656000AB9A0212469AF29A0212469A589B02126B
:10657000469ACA9B0212469A5CDB0112469A9CDE3E
:106580000112469AA2DE0112469A61E50112469A6C
:1065900086E90112469A0DE10312469AA3E103121D
:1065A000469AB9E10312469A12E20312469A56E25B
:1065B0000312469A90E20312469A28E30312469A7F
:1065C00097E30312469AA0E30312469AACE3031240
:1065D000469AC6E30312469AF0E30312469A05E48C
:1065E0000312469A67E40312469A8EE40312469A0F
:1065F000EEC80312469AFBC80312469A15C9031245
:10660000469A48C90312469A86C90312469AEBC9AC
:106610000312469A00CA0312469A0BCA0312469AFC
:1066200018CA0312469A2FCA0312469A3DCA031289
:10663000469A48CA0312469A54CA0312469A63CA33
:106640000312469A6ECA0312469A91CA0312469AD8
:1066500035CB0312469A45CB0312469A5FCB031201
:10666000469A7CCB0312469A97CB0312469ABCCB30
:106670000312469AC7CB0312469ADCCB0312469A02
:10668000F0CB0312469A51CC0312469A57CC031210
:10669000469A5DCC0312469A63CC0312469A7BCC91
:1066A0000312469AAECC0312469AA4B90212469A35
:1066B0003BBA0212469AD3BA0212469AC3BB0212DE
:1066C000469AFABB0212469A0DBC0212469A7BBC4D
:1066D0000212469A16BE0212469A3DBE0212469A0F
:1066E000DFBE0212469A14BF0212469A25BF02125A
:1066F000469A9EBF0212469ABFBF0212469AD7BF61
:106700000212469A2FC10212469A38C30212469AC2
:1067100088C50212469A8BC60212469ADAC602123F
:10672000469A00800212469AFD800212469AE8813B
:106730000212469AF2810212469A14820212469A74
:1067400020820212469A72830212469AA183021292
:10675000469AD1840212469A13850212469A3F86BF
:106760000212469A15870212469A67870212469AC3
:10677000C6870212469AFD870212469A388802128C
:10678000469AD38B0212469AEC8B0212469A6E8C72
:106790000212469A7C8C0212469AD18C0212469AB8
:1067A000DF8C0212469A4C8D0212469ABE8D02125E
:1067B000469A048E0212469AABD20212469ACDD263
:1067C0000212469AB7D40212469A5CD80212469A2E
:1067D0009FD90212469A79DA0212469A9C970412BD
:1067E000469AC1970412469A32980412469ABE8875
:1067F0000312469AC7880312469AD0880312469A13
:10680000018A0312469A208C0312469A568C031270
:10681000469A908C0312469AC68C0312469A008DB3
:106820000312469A348D0312469A608D0312469ADB
:10683000A98D0312469AE38D0312469A2B8E0312FA
:10684000469A818E0312469AB68E0312469A118F8B
:106850000312469A4B8F0312469A9C8F0312469A54
:10686000D28F0312469A0C900312469A3A90031262
:10687000469A5D900312469ACCAC0412469AF8AC44
:106880000412469A53AD0412469A5DAD0412469A1C
:106890006DAD0412469AB6840412469AE884041236
:1068A000469A05850412469AB3850412469AFF85D6
:1068B0000412469AB9860412469AF0870412469A40
:1068C00017880412469A41880412469A0EAC0412A4
:1068D000469A5BAC0412469A66AC0412469A92AC95
:1068E0000412469A0FFA0312469A41FA0312469A84
:1068F0005EFA0312469AEAFA0312469A2BFB031237
:10690000469AFAFB0312469A1AAF0412469A16A048
:106910000112469A7AA20112469A31A40112469AAD
:106920008EA40112469A90A50112469A18A6011249
:10693000469A9FA60112469AC4A60112469AB9A980
:106940000112469A2FAA0112469A1EAB0112469ACC
:1069500058AB0112469A98AB0112469A38AD011213
:10696000469A8DAD0112469ADAAD0112469A48AEAA
:106970000112469A6EAE0112469A88AE0112469AEC
:106980009EAF0112469AAEAF0112469A34B101127F
:10699000469A54B10112469A8AB10112469A0EB330
:1069A0000112469A4DB30112469A8BB40112469ACF
:1069B0001DC00312469A75C00312469ABDC1031248
:1069C000469A2CC20312469ADBC20312469AFAC2B6
:1069D0000312469A4EC30312469A8CC30312469A78
:1069E000DBEB0312469A0DEC0312469A36EC0312C7
:1069F000469AD5EC0312469A16ED0312469AF9ED23
:106A00000312469A569E0412469A669E0412469AAD
:106A10009F9E0412469A639F0412469A42A1041252
:106A2000469A77A10412469A94A10412469A10A29B
:106A30000412469A30A20412469AE8FF0212469ABD
:106A4000F4FF0212469AD6AF0412469A68AA0412BC
:106A5000469A78AA0412469A87AA0412469A3BAB31
:106A60000412469A7DA70412469A01A80412469A77
:106A700067A80412469AF8930412469A0C940412DA
:106A8000469A46940412469A9B940412469A369566
:106A90000412469A59950412469A65950412469A2C
:106AA00098950412469AEAA30412469A25A4041261
:106AB000469A90A40412469AC4A40412469AFAA4D0
:106AC0000412469A22A50412469A9AA20412469AE1
:106AD000CEA20412469AF7A20412469A6EA304129A
:106AE000469ADDA30412469AD88F0412469AF28F72
:106AF0000412469A1A900412469A41900412469A39
:106B0000DC900412469A1C910412469ADD9F0412EE
:106B1000469A05A00412469A77A00412469A92A0BB
:106B20000412469AECA00412469A36A10412469A20
:106B300039A10412469ABCE40312469ACAE403122D
:106B4000469A43E50312469A10E60312469AC9E7AD
:106B50000312469A0EE80312469A3BE80312469A3D
:106B6000069B0412469A0C9B0412469A529B0412EE
:106B7000469A869B0412469A9E9B0412469A209C33
:106B80000412469A39A50412469A84A50412469A1C
:106B9000DCA50412469A40A60412469AF87F001219
:106BA000469AA68D0412469A2E8F0412469A8F8F0B
:106BB0000412469AD58F0412469A4EE80312469A5A
:106BC00080E80312469AA9E80312469A48E903129C
:106BD000469A89E90312469A6CEA0312469A68EFCC
:106BE0000312469A9AEF0312469AC3EF0312469A8B
:106BF00062F00312469AA3F00312469A86F103123A
:106C0000469AF5F20312469A27F30312469A50F376
:106C10000312469AEFF30312469A30F40312469A8F
:106C200013F50312469AC1980312469A4A99031221
:106C3000469A61990312469A239A0312469A049B34
:106C40000312469AA19C0312469A729D0312469A19
:106C5000C69E0312469A4E9F0312469A77A90412C3
:106C6000469AA0A90412469AC9A90412469AE1A913
:106C70000412469A23AA0412469A4BA70312469A74
:106C800055A70312469A95A70312469ADEA7031248
:106C9000469A18A80312469A6EA80312469A8DA81F
:106CA0000312469A96A80312469AE7A80312469A38
:106CB00010A90312469A25A90312469A95A9031210
:106CC000469A23AA0312469A67AA0312469A8FAAE3
:106CD0000312469A0EAB0312469A51AB0312469A20
:106CE0008EAB0312469AA0AB0312469ABFAB0312B7
:106CF000469AC8AB0312469A92AC0312469AB89CC5
:106D00000412469A099D0412469A929D0412469ACC
:106D1000F89D0412469AE28A0412469A0C8B0412D9
:106D2000469A068C0412469A358C0412469ABB8CFD
:106D30000412469A80A80412469AF6910412469AC2
:106D40002C920412469A65920412469ABE9304123B
:106D5000469A77AD0412469A8DAD0412469A97ADC5
:106D60000412469AEDAD0412469ABBAE0412469A3E
:106D7000EB900312469AA8910312469AE3910312EC
:106D8000469A0B920312469A6D920312469AB99252
:106D90000312469A24930312469AA0930312469A2A
:106DA0009C940312469A23960312469AA6960312BF
:106DB000469A0A970312469A21970312469A179801
:106DC0000312469A63980312469A98BB0312469A96
:106DD000ADBB0312469A5DBC0312469A9DBC0312DA
:106DE000469AB6BC0312469AE9BC0312469A36BDCF
:106DF0000312469A6ABD0312469AACBD0312469A24
:106E0000AABF0312469A10C00312469A199D021295
:106E1000469AD0A00212469A62A20212469AB2A2E2
:106E20000212469AC9A20212469AE8A20212469A91
:106E300066A30212469AF8A40212469ADCA5021230
:106E4000469AEDA90212469AC1AA0212469A64AB6A
:106E50000212469A8DAD0212469A3FB10212469A2C
:106E600064B10212469A44B20212469A03B4021264
:106E7000469A95B40212469AF7B40212469A66B53B
:106E80000212469ADAB50212469A49B60212469A98
:106E9000BBB60212469A29B70212469AB5B7021239
:106EA000469A0AB80212469AAEB80212469A529907
:106EB0000412469AB9990412469A1E9A0412469AE6
:106EC000A59A0412469A1EAE0412469A7DAE04128A
:106ED000469A64AF0412469AAAAF0412469ADAFFA1
:106EE00003FFFFFFFFFFFFFFFFFFFFFF74F4124AE6
:106EF00069E9900397F01265ED907800E0C4540FB3
:106F0000540764037004793F8002797F750A06751F
:106F10000B00780A124C7C7C857D037AEA7B071291
:106F20006A617402124A0F900385E0F47049A3E08D
:106F3000F47044A3E0F4703FA3E0F4703AA3E0F4EB
:106F40007035A3E0F4703090780EE0900385F090F7
:106F5000780FE0900386F0907810E0900387F0902F
:106F60007811E0900388F0907812E0900389F09017
:106F70007813E090038AF090038B127082127DF5F3
:106F80009003B57406F0A3740D1278CF7441F0A38A
:106F90007401F09004E11270829004E0E4F0900437
:106FA000EEF0A374A01278CF7403F0A374071278E4
:106FB000CF74281278CF04F0A3E4F0900517F09076
:106FC000053A74FFF0A3E4F090053CF090053E0410
:106FD000F090053F7490F0A37401F01263C5126243
:106FE000F912659379017A417B051264A9900541F4
:106FF000E075F01484E5F004F0790C7A627B0512F8
:1070000064A91264C17A00900397E0F9126D5B9055
:107010007803E064427056900541E014F0704EC26F
:10702000AF12702400782AD0E0F618D0E0F6E59F81
:107030005407F87005750BFF8003750B7FC4C0E023
:107040007829E6F50A08E6550BF50B740B780A1259
:1070500049D7D0E0250AF8906270E0A2E740F8E84E
:10706000C333906272F0906270E0D2E0F09003C29D
:10707000E4F0A3F07A80FB900397E0F9126CD10260
:10708000754774FF127415F0A3F02274F4124A6964
:10709000EAFEEBFFEEA2E05040900399E0C394803B
:1070A000E0500F25E0F8E433F974A028F582741756
:1070B000800EF425E0F8E433F974AE28F5827417F5
:1070C00039F583127C7C124A677A00900397E0F9C5
:1070D000126D5BEE640102729F54026037750A0004
:1070E000780A124C80E4F50B780A124C7C780A126C
:1070F0004C7C780A124C7C780A124C7C7D007C0116
:107100007A007B00793C12614F7409124A0FEE64D9
:107110000202729FEE540470030271A89003C6E04D
:10712000F875F00AA4C8AAF02AF974C828FA7403FA
:1071300039FBEA242AF582E43BF583E0F50A780A74
:10714000124C80EA24321272ABF50B7404780A12E6
:1071500049D7780A124C7CEA2420F582E43BF58377
:10716000124C93EA242E1272ABC313F50BE50A13EB
:10717000F50A780A124C7CEA2403F50AEB3401F58F
:107180000B780A124C7C1272B7FD7C018A828B83C9
:10719000A3A3A3A3E0FA7B00790012614F74091244
:1071A0004A0FEE640402729FEE54406037750A0085
:1071B000780A124C80E4F50B780A124C7C780A129B
:1071C0004C7C780A124C7C780A124C7C7D007C0145
:1071D0007A007B00793B12614F7409124A0FEE640A
:1071E0004002729FEE5480603790053F1278C7606E
:1071F0002A7900126D5590053FE0F50AA3E0F50BE2
:10720000E4F50CF50D780A124C787A007B019003B6
:1072100097E0F9126DDF7404124A0FEE6480807FEC
:10722000EF5401600C7901126D55EEFAEF640180A4
:1072300070EF5402600AC2AF75C9AB75C95B80FEBE
:10724000EF5404600A125BEBEEFAEF640480529094
:10725000039EE06401704DEE54206048900398E076
:1072600014601214600F14600C14600924FD601186
:1072700014600E8027790012634D790112634D80EE
:107280001B793F9003C6E0FA75F00AA4CAA8F0285B
:10729000FB74C82AFA74033BFB126473EE6420FA91
:1072A000EFFB80047A007B00027547F582E43BF532
:1072B00083E0F50AA3E022EA2409F582EB3401F524
:1072C00083E02274F6124A69EA540F600478018060
:1072D000027800E8F98A0A8B0B7404780A1249D7FD
:1072E000E50A29F50A750B007404780A1249E6E5E7
:1072F0000A2408FAE4350BFB126CFB8A0A8B0BA8F4
:107300000AA90BE8496009E82404FAE439FB80047F
:107310007A007B00027A5E74F6124A69EA2405FA62
:1073200050010B126CFB8A0A8B0BA80AA90BE849C7
:107330006009E82405FAE439FB80047A007B000246
:107340007A5EC082C083C2AF1265C3E5E170FC758E
:10735000E1011263B375E1F11265F91263A77907D0
:1073600012666B7901126671790212662312664108
:1073700012665F7900126665790112666590840D68
:107380001248CF12660B9004EEE4F0A3F0A3F09045
:1073900004F27407F09004F17403F09004F7E4F041
:1073A0009004F6F0900517F012645B12650F1264FA
:1073B0007979001266779004D274FF127415741FE5
:1073C000F0906012E4F0A3F0906063F075210090FB
:1073D0000398F09004D7F09004D8740CF09004D97E
:1073E000E4F09004DA04F09004DBE4F09004DC04B0
:1073F000F09004DDE4F090039AF0A3F090039DF088
:1074000090039E04F09003B404F090053DE4F0D2A4
:10741000AFF9027D90F0A3F0A3F0A3F0A322C08205
:10742000C0839003851275819003861275ABF0902E
:1074300003871275B69003881275BC900389127584
:10744000C190038A1275ABA3A3A3A3027D8DC08252
:10745000C0838A828B83E090038B127DD3E09003FC
:107460008C12757B90038D127DDA90038E127DE66F
:1074700090038F127DE1E0900390027D8DC082C069
:10748000831263D1E9F970051266417900027D909B
:1074900074F7124A69EAFEEBFF890A1263D1E9F92F
:1074A000702CE50A600A7401650A600A7912801E70
:1074B0007C00790080047C007901EEFAEFFB126613
:1074C00047E9F87403687004790780027900027C48
:1074D0008574F6124A69EA4B600EEC4D600A740A34
:1074E000124A45127DC770047912800F780A124C37
:1074F0007C1264BB7402124A0F7900027A5E74F443
:10750000124A69EAFEEBFF890A900398E064096079
:1075100014E0640A600FE0640B600AE0640C60052C
:10752000E0640D7004790C801E1265398B0DEA45FC
:107530000D700BA90AEEFAEFFB1264A98009900303
:107540009AE04440F0790D7F04024B3B74F6124AF6
:1075500069EA4B6003E970047912801CEAFEEBFFD4
:10756000890A1264A3E98E828F83F0A3AE82AF836F
:10757000150AE50A70EC7900027A5E127DD3A3E069
:1075800022E08A828B83F022C082C083E9F87401F2
:1075900068700B90053D7401F07900027D90E870F1
:1075A0000690053DE480F1791280F01275AF22E07B
:1075B0008A828B83A3221275AFA3F0221275C7F0C3
:1075C000221275C7A3F0221275AFA3A322C082C0F6
:1075D00083900398E0640C701290618EE0F87480E0
:1075E0006870258C828D83747F8029C3EB940F5043
:1075F00013EA4B700F9003CBE0700479028018906F
:10760000043080D87912800F90039CE0F9E8C39988
:107610008C828D83F07900027D9074F7124A69E9BB
:10762000FE74056E601E74136E601974146E60141F
:1076300074156E600F741A6E600A74296E6005749A
:107640003B6E7026C3EB940F5020EA4B701C9003E6
:10765000CBE0700479028026900431E0640170165A
:10766000A3E064027008793A8014791280101276CF
:107670008112644380061276811264377900027C9D
:1076800085EE9004BCF09003E5E4F0A3F079027A73
:10769000C87B032274EC124A69EC4D6014E9C39470
:1076A0001C500E7414124A45E0F8600A74016860B8
:1076B0000579120278ADC3EB940F5019EA4B70159F
:1076C0009003CBE070047902800D9004D8E0700A3A
:1076D00079070278AD79120278ADEC24FEFCED3426
:1076E000FFFD8C828D83E9F0E870047402800274DF
:1076F00001A3F0EC24FEFCED34FFFD7A2B7B041299
:107700006491A9A8C2AF9004D8E014F0E9A2E7E41C
:1077100033F8E9A2E792AF900398E064086008E0CC
:10772000640760030278AB9003C6E060030278ABA5
:1077300079007AC87B031250FE9061D0E07003029A
:1077400078AB9004DCE0640160030278AB9003E561
:107750001278C770030278ABA2AFE433F50EC2AF64
:107760001265398A0A8B0BAE0AAF0B1265D58A0AED
:107770008B0B8C0C8D0D8A128B138C148D159084B1
:1077800039781212483D7812124C788E828F83A37A
:10779000A31248CF1258E87404124A0FE96401603A
:1077A000030278A59003F6E02406F512A3E0340066
:1077B000F513E4F514F515780A791212482A780AB7
:1077C000124C788E828F83A3A31248CF1258E8748C
:1077D00004124A0FE9640160030278A5EE2408F55B
:1077E00010E43FF511851082F583124C8FAA0AAB85
:1077F0000BAC0CAD0D1259447404124A0F9003F6F1
:10780000124C931255A07402124A0F8A0A8B0B8CE9
:107810000C8D0D7410780A1247F29003D11278B2D1
:107820009003CDE8F0A3E9F0E82CF8E9350BF9A3D3
:10783000E8F0A3E9F0851082851183C082C083122D
:1078400078B8124703D083D082780A12483D9084DA
:1078500011780A12488B8E828F83A3A3780A12486C
:10786000C01278B812482A908415780A12483D90C0
:107870008411780A12488BEE2416F582E43FF583D2
:10788000E50AF0A3E50BF0A3E50CF0A3E50DF090FD
:1078900003FDE09003FCF07AC87B03124E5AEEFA27
:1078A000EFFB12651BE50EA2E092AF79007F0C02A0
:1078B0004B3BE0F8A3E0F9229003F6E0F512A3E0D9
:1078C000F513780A791222E0F8A3E0F9E84922F0EA
:1078D000A3E4F0A32274F6124A69EAFEEBFF890BD7
:1078E000740B124A45E0F50A740C124A451278B23C
:1078F000E50B60487401650B60127403650B60262C
:107900007402650B60207404650B707DE849607932
:10791000E50A60067401650A706F7403650B600602
:107920007402650B702AEE2460FAEF127A6E5059D9
:10793000EC2460FAED127A6E4016804DEE24E0FAE7
:10794000EF127A635043EC24E0FAED127A63503977
:10795000C3EC9EED9F4032740A124A45E0FC60057C
:1079600074016C7024740F124A45E0FA600F7401C0
:107970006A600A74026A600574036A700C740E12FD
:107980004A45E0FB74075B70057912027A5E900449
:10799000EEE064017005790C027A5E74075B900476
:1079A000F2F0E50B9004F1F0EA9004F3F0EC9004AF
:1079B000E0702FE4F0900385E09004E1F0900386FE
:1079C000E09004E2F0900387E09004E3F0900388F5
:1079D000E09004E4F0900389E09004E5F090038ADD
:1079E000802E7401F090038BE09004E1F090038C02
:1079F000E09004E2F090038DE09004E3F090038EB9
:107A0000E09004E4F090038FE09004E5F0900390A0
:107A1000E09004E6F07401650B700B127A79900423
:107A2000EFE4F0A380357404650B7005127A798059
:107A300023EA70047900801974016A700479018066
:107A40001074026A70047902800774036A70057901
:107A50000312664D9004EFEEF0A3EFF079007F0281
:107A6000024B3B34FFFBC3EA94E1EB943F2234FF2B
:107A7000FBC3EA9461EB943F22E50AA3F088828974
:107A800083E09004E8127AAEE09004E9127AAEA3A3
:107A9000E09004EA127AAEA3A3E09004EB127AB568
:107AA000E09004EC127AB5A3E09004EDF022F088A7
:107AB000828983A322F088828983A3A3A3A322744B
:107AC000F6124A69E9FEC39420500BEE9004F7F0D9
:107AD000601EEA4B70047912801E127CC6124C7C28
:107AE000EAFCEBFD7AF87B04126C7D7402124A0FFB
:107AF0009004F67401F07900027A5E74F4124A6917
:107B0000E9FF900398E064097003027C05E0640AD1
:107B10007003027C05E0640B7003027C05E0640CDA
:107B20007003027C05E0640D7003027C059004F193
:107B3000E0601664016012E06403600DE0640260BE
:107B400008E064046003027C789004E0E06007646D
:107B5000016003027C789004F1E064036005E06456
:107B60000270109004EFC3E094A0A3E094005003CF
:107B7000027C78EF7003027C11146003027C789021
:107B800004EEE06401607E9004F1E060096401604D
:107B900005E064047008126545E954FD70677901D9
:107BA00012652D9004DEEAF0A3EBF09004EE740170
:107BB000F0900398E070551265D58A0A8B0B8C0CF7
:107BC0008D0D908419780A12483D908411780A121C
:107BD000488B9004DE127C7CA3A3780A1248C090E4
:107BE00004DEE0F8A3E0C82406F582E438F583E477
:107BF000F0A3F01263D7E960107ADE7B04126533DC
:107C00009004EEE4F0792180051265157900027583
:107C1000479004EEE060EEA2AFE433FEC2AF7ADE3E
:107C20007B041265339004EEE4F012654BE9704179
:107C30001265C3906182E0C2E6F0E5E170FC75E197
:107C4000017591BF75E1F190039EE0640170187AAF
:107C5000207B00900397E0F9126DEB7A207B009077
:107C60000397E0F9126CD77A00900397E0F9126D50
:107C70005BEEA2E092AF809479128092E0F8A3E0EC
:107C8000F5838882227F01024B3B74F6124A69E930
:107C9000FEC39420500BEE900517F0601EEA4B7067
:107CA000047912801E127CC6124C7CEAFCEBFD7A31
:107CB000187B05126C7D7402124A0F9004F6740151
:107CC000F07900027A5EE0F50A750B00780A22C0AE
:107CD00082C083900398E064076004790C805CECB8
:107CE0004D605BC3EB940F5055EA4B70519003CB42
:107CF000E07004790280447A008C828D83E0C0E0D9
:107D0000EAF8C3E498F895E0F9749528F5827404CC
:107D100039F583A3A3A3A3D0E0F00A8C828D83A3BB
:107D2000AC82AD83EAC3941040CF90049B7401F001
:107D300079057AC87B031264377900027D90791245
:107D400080F9C082C083900398E064076004790CD6
:107D50008039C3EB940F5020EA4B701C9003CBE0AA
:107D60007004790280259004A4E06401700E9004F0
:107D7000BC7406F07902800A7912800FA37406F0B1
:107D8000790D7AC87B0312643779008003F079009B
:107D9000D083D082024697790C024697C082C08376
:107DA000E9F890053EE07004790C800EE8600E144E
:107DB000701190039D7401F07900027D9090039DF5
:107DC000E480F4791280F3E0F50AA3E0F50BE50A0C
:107DD000450B22F08A828B83A322127DD3A3A3E0DA
:107DE00022127DEBA322127DEBE022F08A828B83AC
:107DF000A3A3A3A322900385E0900391F0900386B0
:107E0000E0900392F0900387E0900393F090038852
:107E1000E0900394F0900389E0900395F090038A3A
:107E2000E0900396F02274F7124A6974FF1249F940
:107E3000EA4B60078A828B837401F0EC4D600990F5
:107E400003C5E08C828D83F0740A124A451278C70C
:107E50007003027F327F007E0080787401F0E0C002
:107E6000E0E82CF582E439F583D0E0F0EA2403124F
:107E700072BAC0E0127F3CD0E0F00FEA2404127224
:107E8000BAC0E0127F3CD0E0F00FEA24051272BACB
:107E9000C0E0127F3CD0E0F00FEA24061272BAC0B4
:107EA000E0127F3CD0E0F00FEA24071272BAC0E083
:107EB000127F3CD0E0F00FEA24081272BAC0E01240
:107EC0007F3CD0E0F00F1272B7C0E0127F3CD0E0F0
:107ED000F00F0E9003C5E0FAEEC39A5055EEFAC3C8
:107EE000E4940F50EDEA70EA9003CBE060E4EE75A5
:107EF000F00AA4CAACF02CFB74C82AFA74033BFB4A
:107F0000EFFCE82CF582E439F583EEF074012CFCEB
:107F100074012CFF8A828B83E0FDA3E0F5838D82C0
:107F2000E06480851A82851B836003027E5BE40225
:107F30007E5D79007401124A0F027C85E82FF5827C
:107F4000E439F58322C082C083EA4B60069003C502
:107F5000127581027D8E74F6124A69790112646786
:107F60008A0A8B0B74FF650A700474FF650B70043A
:107F7000791280027900027A5E53BEFBE59DA2E68B
:107F800050FAE5C654804449F5C6E59E547F6449DD
:107F900070F853C67FE59EA2E740FA53C680E59E7F
:107FA000547F70FA43BE049062707408F043FE017F
:107FB00043FD1043FE0243FD80D29143FD2043FF69
:107FC0000143FE3C758F4E7900126C59126A4F12B4
:107FD0006DAF126CE3D2AF7902126C597901126D58
:107FE00055126E57126CE97A007B000246970246E2
:107FF00097FFFFFFFFFFFFFF851C87C2AF02469779
:10800000C082C083E990177CF0D083D0820246976B
:1080100074F6124A69E990030AF090036AE0F50ADF
:10802000750B007402780A1249E6AA0AAB0B126DAE
:108030004390030B1289C390030B128DB0606F90B5
:10804000036AE075F003A4FAABF0126D43900328C5
:108050001289C3900328128DB0700B90030B128D00
:1080600081126D498048900328129D157AFF7BFF8D
:108070001269AD7A0080198A0A750B007402780AB9
:108080001249E61297BD74FF1281C3E4F0A3F00A0F
:1080900090036AE0F8EAC39840DD79051260179012
:1080A000030AE0F9125F037AA17B601262930298DF
:1080B0006074F4124A698A0A8B0BEB548060479013
:1080C000030AE0F9126CB98A0C8B0DAE0CAF0DEE01
:1080D0004F602A8E828F83E064B0701A126029E9A3
:1080E00060148E828F83A3A3A3A3E0F9EE2405FA84
:1080F000E43FFB125FF9EEFAEFFB126CA7AA0AE568
:108100000B6480FB80047A007B0002831374F212FC
:108110004A6974FB1249F9EAFEEBFFEE4F604574C1
:1081200003124A45EEF0A3EFF0851A82851B83EC1B
:10813000F0A3EDF07402124A45E9F0AA1AAB1B1243
:108140005EFDE9F50A70757413124A45E0F50CA35B
:10815000E0F50DE50C450D60638E828F8312874C30
:10816000EE4F7005750A0280537A067B00126D434C
:108170008A0E8B0FA80EA90FE8497005750A1380A7
:108180003B88828983E41281C3EEF0A3EF1282DF81
:10819000E50CF0A3E50DF090030E1282D890030ECB
:1081A0006017E0FCA3E08003EAFCEBFD8C828D838A
:1081B0001282D870F38C828D831293D8A90A740529
:1081C000029F95F0A3129CF7A32274F2124A6989C8
:1081D0000A890E750F007403780E1249E6850E0C9D
:1081E000850F0D90030DF090030B1291E31282D6D0
:1081F000602E126D497900801D890E750F00740282
:10820000780E1249E690030B12967C8882F583A3C0
:10821000A3E4F0A3F00990036AE0F8E9C39840D919
:1082200090036AE0FA850CF0A4CAA8F0850DF0A4CA
:1082300028FB126D438A0E8B0FAE0EAF0FEE4F7000
:10824000030282CC90036AE0FC850CF0A4CCA8F079
:10825000850DF0A428FD7900126C957C0080318D8D
:108260000E750F007403780E1249E68A828B831212
:1082700082D188828983E4F01282DEA3A3F0A3F086
:108280000DEDC3950A40D8EE250CFEEF350DFF0C21
:1082900090036AE0F8ECC39850288C0E750F0074B8
:1082A00002780E1249E690030B1282D1E8240250A4
:1082B0000109FAE9FB8A828B83EEF0A3EFF07D00DF
:1082C00080BFE50A90030DF0790080027913029FC8
:1082D00098129680F922A3A3128D85EA4B22A3124D
:1082E0009CF7A3A3A32274F4124A697900EAA2E0DE
:1082F000501F750A6C750B83780A124C7C79107CC0
:10830000047D007A7E7B171260117402124A0FE915
:10831000F980007F04024B3BC082C08390030E12A1
:108320008DB0601C88828983A3A3E06A7003A3E0F8
:108330006B8882898370E8A3A3A3A3128D81800434
:108340007A007B0002800974F2124A6974FD1249B6
:10835000F9EAFEEBFF851A82851B83E4F0A3F07433
:1083600002124A457401F0128DAD70141261CD12E3
:108370006D439003111289C3128DAD70030284D92D
:10838000128AC3EE2404F50CE43FF50D850C82F54A
:1083900083E024FE603C24FC607424FE607E24FEA6
:1083A000700302842924FE700302843624FE7003C5
:1083B00002844324FE700302845024FE700302846E
:1083C0005D24FC700302847E24FE70030284960206
:1083D00084D21261CD900313EAF0A3EB1284E5126C
:1083E0005C45E960030284D2900313124C938E82A1
:1083F0008F83A3A3A3A3A3129D15850A82850B8354
:10840000128D81125FE17402124A0F0284D2AC1AFB
:10841000AD1BEEFAEFFB12602F0284A1AC1AAD1B6C
:10842000EEFAEFFB1260358078AC1AAD1BEEFAEF76
:10843000FB12603B806BAC1AAD1BEEFAEFFB1260D7
:1084400041805EAC1AAD1BEEFAEFFB126047805123
:10845000AC1AAD1BEEFAEFFB12604D8044740212B1
:108460004A4F880E890F780E124C7C7402124A5FB4
:10847000EEFAEFFB1260537402124A0F8023AC1A1B
:10848000AD1BEEFAEFFB126059E9F8701674021298
:108490004A45E4F0803CAC1AAD1BEEFAEFFB1260EB
:1084A0005FE9F8E8602C8E828F83A3E06414602279
:1084B000850C82850D83E0900313F0851A82851B5D
:1084C00083128D819003141289C3E8A31284E512EC
:1084D0005C3FEEFAEFFB125FB77402124A45E0F917
:1084E0007403029F95F07C137D03850A82850B83BC
:1084F000128D852274E8124A6974FA1249F97404DB
:10850000124A45ECF0A3EDF08A148B15EA2405F528
:1085100010E43515F511EA2402F512E43515F513CA
:10852000851282F583128D81125D358A0C8B0D7553
:108530000A007C037D0079007A137B03126C95E5B9
:10854000102402F518E43511F5197402124A4F8807
:108550000E890F780E124C7C851082851183A3A39F
:10856000A3A3E0F50E750F00780E124C7CE51024E5
:1085700005F50EE43511F50F780E124C7C85188246
:10858000851983129088125F1B7406124A0F8A0E97
:108590008B0FE50E450F70030287158020851A8228
:1085A000851B83E088828983F0050A851A82851BF2
:1085B00083A3E0C0E0128756D0E0F0050AE50C2462
:1085C000FBFAE50D34FFFBC3E50A9AE49B40030286
:1085D00087157E007F00851482851583A3A3A3A33E
:1085E000E0F50B780B124C80E4F516F517781612AF
:1085F0004C7C7516107517037816124C7C9003117D
:10860000124C937409124A45124C93E50C24F9F963
:10861000AC0EAD0F851282851383128D8112608995
:108620007409124A0FE960030286B685108285112B
:1086300083A3A3A3A3A3A3A3E0F8900310E068700F
:1086400075E0F5168E177816124C7C129D12851067
:1086500082851183A3A3A3A3A3A3A3A3128D811235
:108660006C8F7402124A0FE9604C900314128DB0A3
:10867000703BE4F5167816124C7C7CFF7DFF790781
:10868000851282851383128D81125FF37402124A60
:108690000F128DB67017851082851183129EAF74EC
:1086A00004124A451297701290B9028749850E82CA
:1086B000850F8312874CA81AA91B8816891778166C
:1086C000124C7C7404124A45124C93851882851909
:1086D000831289B9125F277404124A0F8A0E8B0F16
:1086E000EE4F7003028592128756EE128761129048
:1086F0006FEF128761F8A3E03400F9E50E450F60D3
:108700000302859D8882898374FFF0050A128756CB
:1087100074FFF0050AE50A601A1313543F1289C961
:10872000125C51E96009900314128D81126D017978
:10873000008016851082851183129EAF7404124A40
:10874000451297701293D8790A029042A3A3A3A36B
:10875000E0FEA3E0FF22A80A900314E02812906F25
:1087600022F0050A08900314E0282274E8124A69EE
:1087700074FA1249F97402124A451289C374041238
:108780004A45ECF0A3EDF07402124A45E0240512CC
:108790009058E0F50EA3E0F50F7402124A45E0246C
:1087A00002F512A3E03400F513851282F583128DD1
:1087B00081125D35750A00750B00EA24FCFEEB346E
:1087C000FFFF8008050EE50E7002050FA80AC3EE34
:1087D00098EF94005003028975A81AA91B88108984
:1087E000117810124C7C851682851783A3A3A3A34E
:1087F000129D19124C7CE5162405F510E43517F589
:10880000117810124C7C8516828517831289B71255
:108810005F1B7406124A0F8A108B11EA4511700310
:10882000028975EA2404F518E43511F519851882D2
:10883000F583E0F50EA3E0F50F851A82851B831200
:108840009D158A828B83A3A3A3E0F98512828513E9
:1088500083128D81125F09E9F50B6003028975743B
:1088600002124A4512907FF50B780B124C80E4F50A
:1088700014F5157814124C7C7514107515037814C2
:10888000124C7C900311124C937407124A45124CFF
:1088900093EEF9AC10AD11851282851383128D8190
:1088A0001260897409124A0FE9F50B600302897599
:1088B000E50A703FE4F510F5117810124C7C7CFF4E
:1088C0007DFF7909851282851383128D81125FF3F2
:1088D0007402124A0F1290A5700D7404124A4512C8
:1088E00089AC79110289A9900310E0240290031445
:1088F000F08014900314E0FA900310E07900240251
:108900005001096A497072A80A900310E0FAE82A37
:10891000FAE43400FBEE9AEF9B405A8518828519E1
:1089200083E0C0E090031512875BD0E0F0050A8574
:108930001882851983A3E0C0E00890031512875BB5
:10894000D0E0F0050A900310129D19124C7C129D84
:1089500012A80A12904C126C7D7402124A0F9003F6
:1089600010E0250AF50A74FF650E700474FF650FA8
:1089700060030287C4E50A601F900314E0F5F0E588
:108980000A841289C9125C57E96009900315128D97
:1089900081126D0179008011E50B7003750B0A746B
:1089A00004124A451289ACA90B0290421291E7E5E4
:1089B0000EF0A3E50FF022A3A3129FA4AA0EAB0F03
:1089C00022A3A3EAF0A3EBF022900313F07C137D23
:1089D00003851282851383128D852274EC124A69F5
:1089E00074FC1249F91294E87402124A5F128D7BEA
:1089F000125F218A0E8B0FEA450F7003028AB312B1
:108A00008AC3A81AA91B881289137812124C7C7C7D
:108A1000FF7DFF790B850A82850B83128D81125FA2
:108A2000F37402124A0F128BB9700C850C82850DFB
:108A3000831290B6028AC08E828F83A3A3A3A3E081
:108A4000F5147814124C80E4F514F5157814124CD2
:108A50007C7514137515037814124C7C7812124C23
:108A60007C7409124A45124C937409124A45E0F984
:108A7000AC0EAD0F850A82850B83128D8112608941
:108A80007409124A0FE9FE70157C137D03850A8272
:108A9000850B83128D81125C5DE97009802074164C
:108AA0006E70027E00900314128D81126D01EE70C3
:108AB00004800B7E01850C82850D831293D5EEF91F
:108AC0000293EAEE2402F50AE43FF50B2274EC125D
:108AD0004A6974FC1249F9EAFEEBFF8C108D11EE25
:108AE0002405F50AE43FF50B7402124A5F850A82F9
:108AF000850B83128D81125F218A0E8B0FEA450F41
:108B00007003028BA9EE2402F50CE43FF50DA81AC0
:108B1000A91B881289137812124C7C7CFF7DFF7987
:108B20000D128D7B125FF37402124A0F128BB97013
:108B30000B850A82850B831290B6807A8E828F8392
:108B4000A3A3A3A3E0F5147814124C80850A8285B0
:108B50000B83A3A3124C9375141375150378141289
:108B60004C7C7812124C7C7409124A45124C937456
:108B700009124A45E0F9128D771260897409124A88
:108B80000FE9FE700F7C137D03128D7B125C63E98D
:108B90007009802074166E70027E00900314128D8E
:108BA00081126D01EE7004800B7E01850A82850BB7
:108BB000831293D5EEF90293EA128DC0F512A3E069
:108BC000F513EA45132274E8124A6974FE1249F952
:108BD0008A188B198C168D17EA2405F50EE43519C1
:108BE000F50FEA2402F510E43519F511851082F528
:108BF00083128D81125D358A0A8B0B750D007C0303
:108C00007D0079007A137B03126C95750C00E50AE0
:108C100014F5120424FFF50AE50B34FFF50B80541C
:108C2000900313E0FA900310E0F8EA28F8E4340027
:108C3000F9E50A98E50B99500D900313E0F8E51259
:108C4000C398900310F0E0F5147515007814124CD9
:108C50007C129D12900314E02AFAA3E03400FB1268
:108C60006C7D7402124A0F900310E0F8900313E039
:108C700028F0050C850E82850F83A3A312968C40E5
:108C800003028D5C900313E0C3950AE4950B400347
:108C9000028D5CAE0CEE2EFEE433FF128D9BAC1AFF
:108CA000AD1B129D2DE439FB125F218A148B15AC8C
:108CB00014AD15EC4D701B750D01128D8B1293D9EF
:108CC0009003141282D86003126D01A90D74020280
:108CD0009044851882851983A3A3A3A3E0F50D789A
:108CE0000D124C80E4F514F5157814124C7C7514B3
:108CF000107515037814124C7C900311124C937468
:108D000007124A45124C93A91285108285118312CD
:108D10008D811260897409124A0FE9F50D709B90DC
:108D20000314128DB06003028C20E4F514F515785D
:108D300014124C7C7CFF7DFF790F85108285118396
:108D4000128D81125FF37402124A0F128DB6600306
:108D5000028C20128D8B1290BA028CCD7C137D0375
:108D6000851082851183128D81125C69E96003028E
:108D70008CC07900028CCDAC0EAD0F850C82850DB8
:108D800083128D8522E0FAA3E0FB22128D9BE0FA8C
:108D9000A3E0F9EA85168285178322850E82850F66
:108DA00083E02EF8A3E03FF98882898322900311A3
:108DB000129EB3E84922128DC0F8A3E0F9E84922D7
:108DC000900314EAF0A3EBF0900314E02274E8128D
:108DD0004A6974FA1249F97404124A451289C38C1B
:108DE000188D197404124A45E02405F510A3E034E7
:108DF00000F5117404124A45E02402129058128DB5
:108E000081125D358A0C8B0D7F007E00A81AA91B8C
:108E1000880A890B780A124C7C851082851183A3FD
:108E2000A3A3A3E0F50A8E0B780A124C7CE510246C
:108E300005F50AE43511F50B780A124C7C85108291
:108E4000851183A3A3129088125F1B7406124A0F28
:108E50008A0E8B0F8029129079F00F129079F00F03
:108E60009003101293C4124C7C129D12EFF81290D2
:108E70004C126C7D7402124A0F900310E02FFFE534
:108E80000E450F7003028F08851A82851B8312948A
:108E9000FAA3A3A3E0F9851682851783128D8112A8
:108EA0005F09E9FEE50E2404F512E4350FF513EE33
:108EB00070507404124A4512907FF50A780A124CD9
:108EC00080E4F50AF50B780A124C7C750A10750BD4
:108ED00003780A124C7C900311124C937407124AC7
:108EE00045124C93E50C24FAF9AC0EAD0F851682B1
:108EF000851783128D811260897409124A0FE9FE69
:108F000060391290951293D8EF700302902F90035E
:108F100014E0F5F0EF84900313F07C137D038516C5
:108F200082851783128D81125C6FE96009900315A9
:108F3000128D81126D0179000290428F0AEF703B11
:108F4000E4F514F5157814124C7C7CFF7DFF791143
:108F5000851682851783128D81125FF37402124A7F
:108F60000F1290A570091290951290B9029042903C
:108F70000310E02404900314F08035900310E0F80F
:108F8000900314E0FAE82404FCE43400FDEC6A4D9C
:108F90006003028F0EE50C24FAFAE50D34FFFBE5C1
:108FA0000A28F8E43400F9EA98EB995003028F0E8E
:108FB000851282851383E0C0E0900315E02FF8A3AB
:108FC000E034008882F583D0E0F00F8512828513AB
:108FD00083A3E0C0E0129066D0E0F00F7402124A62
:108FE0004F880A890B780A124C7C7402124A451287
:108FF0004C938510828511831289B7125F27740400
:10900000124A0F8A0E8B0FEA450F7003028E5674B8
:1090100002124A45E0C0E0129066D0E0F00F740200
:10902000124A45A3E0C0E0129066D0E0028E5EEEE8
:1090300070027E0A85108285118312909B1293D84C
:10904000EEF97406124A0F7F10024B3B900315E0B5
:1090500028FAA3E03400FB22F516A3E03400F5174C
:10906000851682F5832212906A22900315E02FFA6A
:10907000A3E034008A82F5832212906A74FF2212E0
:1090800091E7A3A3A3A3E022129FA48510828511D8
:1090900083128D8522851282851383129EB38518D3
:1090A0008285198322900315EAF0A3EBF090031553
:1090B000129EB3E849221293DEE8F0A3E9F0791199
:1090C0002274EA124A6974FE1249F98A0A8B0B8CDF
:1090D000148D15EA2405FEE4350BFFAC1AAD1B8E8A
:1090E000828F83128D81125F218A0E8B0FEE2406F0
:1090F000F510E43FF511EA450F70030291B9E50A56
:109100002402F50CE4350BF50D8A828B83A3A3A30F
:10911000E0A2E55028851A82851B83128D8112609A
:109120007D8A128B13EA451360207912128D7785A0
:109130001282851383124A67E9F50E707F851082CB
:10914000851183E0600979528011750E0E806D855E
:109150000A82850B83A3A3A3A3E0F9E4F50AF50B28
:10916000780A124C7C8E828F83A3A3E0F50A780ADA
:10917000124C7C8E828F83A3A3A3124C938E828F7A
:1091800083129D15128D7B12608F7406124A0FE9AF
:10919000F50E7011851082851183E0702D128D7B84
:1091A000125C7580257416650E7011750E007418AA
:1091B000124A451291E3E48010750E01129EAB85B0
:1091C0001482851583E8F0A3E9F085108285118368
:1091D000E0600479008002A90E7402124A0F7F0E2B
:1091E000024B3B1291E722E0F8A3E0F5838882224C
:1091F00074EC124A6974F71249F98A0C8B0D8C12BF
:109200008D13EA2405FEE4350DFF750E00AC1AAD92
:109210001B8E828F83128D81125F218A0A8B0BEA4B
:10922000450B70030293AFE50C2402F50C500205C8
:109230000D8A828B83A3A3A3E0A2E5502F851A8217
:10924000851B83128D8112607D8A0E8B0FEA450F7C
:10925000604F7912AC0AAD0B128D7B850E82850FA3
:1092600083124A67E9F50E60030293B2850C82858A
:109270000D83E0F50AA3E0F50BAA0AFB126071EA80
:109280004B70197AFF7BFF126071EA4B70030293F7
:10929000A58A828B83E50AF0A3E50BF0750A0080AE
:1092A00008750E0E0293B2050A90030DE0F8E50A68
:1092B000C39840030293A5850A10751100740378C2
:1092C000101249E68A828B83A3A3E02510F8A3E05D
:1092D000351112977970D08E828F831293CD1289B7
:1092E000C38E828F83A3A31293CD1289C1EE24046F
:1092F000F50AE43FF50B850A82F583E088828983CD
:10930000A3A3A3A3F0A3E4F0EE2405F510E43FF536
:1093100011851082F5831293CDA3A3A3A31289C153
:109320007514077515007814124C7CEEFCEFFD7473
:1093300004124A57126C7D7402124A0FE4F5147835
:1093400014124C7C850A82850B83E0FC7D00791722
:10935000128D7B125FF37402124A0F7407124A4592
:109360001289C37407124A45E0FA4B603D850A82B0
:10937000850B831293C4124C7C8510828511831255
:109380009D15126C7D7402124A0F7402124A5F120C
:109390008D7B125C7BE960267407124A45128D8131
:1093A000126D018019750E098008750E1180037504
:1093B0000E01129EAB8512828513831293D8A90EDB
:1093C00074098028E0F50A750B00780A22128D8551
:1093D00088828983221293DEE8F0A3E9F022E0F884
:1093E000A3E0F9851082851183227404124A0F7F4D
:1093F0000C024B3B74EC124A691294E8751200EEB1
:109400002402F50EE43FF50F850E82F583128D815F
:109410001260718A0A8B0BEA450B70030294CC85AB
:109420000C82850D83E0640160030294C1AC0AAD37
:109430000BAA0CAB0D126065E9606E850A82850B84
:109440008312874EEE2406F50CE43FF50D8E828FD5
:1094500083A3A3124C938E828F83A3A3A3A3124C46
:1094600093850C82850D83124C9379188E828F839D
:109470001294FA128D8112608F7406124A0FE9F865
:10948000741668700B850C82850D83E4F0A380143C
:10949000E860128E828F83128D8185108285118300
:1094A000EAF0A3EBF0881280187810124C7CAC0A1A
:1094B000AD0BEEFAEFFB12606B7402124A0FE9F586
:1094C00012AA0AAB0B126077E512700E850E828528
:1094D0000F83128D81125C818009741665127003EE
:1094E000751200A9120293EFEAFEEBFF8C108D11AA
:1094F000EE2405F50CE43FF50D22129FA4850E82A3
:10950000850F832274EA124A69750A00750B007E82
:10951000007F00750C00EC2402F512E43DF5138089
:1095200035EC650A7003ED650B60030295B988821E
:109530008983A3A3E06A7003A3E06B707C888289AF
:1095400083A3A3A3A3129EAFEE28FEEF39FFEA2860
:10955000FAEB39FB050C129689503A850C0E750F03
:10956000007403780E1249E68512828513831296E1
:109570007C129779601FE50A450B70A58C0A8D0B4C
:109580008882898312874C88828983A3A3E02EFA7C
:10959000A3E03F80BEE50CC39402500302967775AA
:1095A0000A00750B00EE4F6010EEFAEFFB126CFB39
:1095B0008A108B11EA451170057900029679750DB4
:1095C0000002964C850D0E750F007403780E12493B
:1095D000E6851282851383E0250EF50EA3E0350F94
:1095E000F50FE50E2406F516E4350FF517851682FE
:1095F000F58312977E6042E50E2404F514E4350FDE
:10960000F515851482F583124C93E510250AFAE5C9
:1096100011350BFB126C7D7402124A0F8514828582
:109620001583E0250AF50AA3E0350BF50B851682B4
:10963000851783128D81126D01E50D600D7C087D0B
:10964000007900AA0EAB0F126C95050DE50DC395C0
:109650000C50030295C4851282851383129EAF8835
:10966000828983A3A3A3A3A3A3E510F0A3E511120A
:1096700082DFEEF0A3EFF079010291DE12968022F4
:10968000E0250EF8A3E0350F2290030DE0F8E50C7D
:10969000C3982274F0124A698A108B118C0C8D0DBC
:1096A000750F00750E0080507916EE2406F50AE459
:1096B0003FF50B8E828F83A3A3124C938E828F83F0
:1096C000A3A3A3A3124C93850A82850B83124C9308
:1096D000851082851183A3A3128D8112608F740679
:1096E000124A0FE9F50F7416650F706C850A8285B2
:1096F0000B83E4F0A3F0050E90030DE0F8E50EC334
:10970000985066AA0E8A0A750B007403780A1249EB
:10971000E6850C82850D83A3A31297C8E8FEE9FFB6
:109720008E828F8312977E6040EA2401F50AE4342A
:1097300000F50B90030DE0650A7002E50B601488DC
:10974000828983A3A3A3A3A3A3A3A3128DB06003C1
:109750000296A879180296AAE9609B129EAB741033
:10976000124A451297701293D8A90F7F08024B3BFB
:10977000E0FAA3E0F5838A8222F988828983129F26
:10978000A4EC4D2274F6124A697C0080010C90030F
:109790006AE0F8ECC398501E8C0A750B00740278CE
:1097A0000A1249E61297BDE06A7003A3E06B70DD10
:1097B000E8FAE9FB80047A007B0002986090030BD2
:1097C0001297C88882898322E0250AF8A3E0350B26
:1097D000F92274F2124A698A0A8B0B750C008027F1
:1097E0008E828F83A3A3A3A31282D66003126D017E
:1097F0007C087D007900EEFAEFFB126C958E828F6B
:1098000083E4F0A3F0050C1296895027850C0E75A1
:109810000F007403780E1249E6850A82850B83A334
:10982000A3E0250EFEA3E0350FFF8E828F83128DFD
:10983000B070AD850A82850B8374FFF0A3F0029FA0
:109840009874F6124A691260238A828B83E58245F6
:109850008370067A007B008007A3A3A3A3128D81E7
:109860007F02024B3B74F4124A69890A8C828D8311
:10987000E06402703C129E4EFEA3E0F9EEF8740222
:109880006870037429697029750C02750D00780CD5
:10989000124C7C7410124A45124C937410124A45B3
:1098A000124C93A90A1269BF7406124A0FE9F98093
:1098B00002790102831374E8124A6974FB1249F9B0
:1098C000E9851A82851B83F08A188B19ECFEEDFF5F
:1098D0007512008E828F83A3A3A3E0A2E4502D749F
:1098E0001D124A45128D8112607D8A828B83E5822A
:1098F00045837003029CED790AEEFCEFFDAA18ABDC
:1099000019124A67E9F5126003029CF0741F124AAB
:1099100045E0F50AA3E0F50B7421124A45E0F50C89
:10992000A3E0F50D7423124A45E0F510A3E0F5110C
:109930008E828F83E064026003029C8EA3129EAF2E
:10994000850A82850B83A3858214858315EE240600
:10995000F50EE43FF50F88828983129D2DF516E4FC
:1099600039F5177816124D06010000280128909944
:1099700007000228559A0328C3990029849B0129CE
:10998000AF9B0229509B0329849B0429289C8E9C11
:10999000E51045116003029C89850E82850F8312B4
:1099A0009EAFE8FAE9FB8A828B83E0850C82850D05
:1099B00083129D38124C7C8A828B83A3E0FCA3E047
:1099C000029C12E51045116003029C89850C82857A
:1099D0000D837401F0129D22850A82850B83F07C31
:1099E000007D008E828F83A3A3A3A3E02401FAA3AA
:1099F000E03400FB125F21EA4B60408A828B83E0F7
:109A00002402F8850C82850D83E028F0EA2404F80E
:109A1000E43BF988828983E0851482851583129D51
:109A200046129D38124C7C8A828B83A3129D15E5C9
:109A30000A2403FAE4350BFB029C17850C82850D82
:109A400083E02404F07C047D007900AA14AB151295
:109A50006C95029CF0E51045116003029C89129DF3
:109A600022FEA3E0FF850C82850D837404F0EE8551
:109A70000A82850B83F0EF851482851583F07403C9
:109A8000124A5FEEFAEFFB125F218A0E8B0FEA4556
:109A90000F7003029B338A828B83A3A312874C74BB
:109AA00001124A4F881089117810124C7C740512EB
:109AB0004A45124C937CFF7DFF125F277404124AC3
:109AC0000F8B11EA45117033850E82850F83129D2D
:109AD00019124C7C850E82850F83A3124C937C0255
