:020000040000FA
:0600000002011A0226793C
:03002B00022DF5AE
:03003300022DCDCE
:030053000226EF93
:03006B00022D74EF
:03007B00022D9CB7
:100083000224CFE5C754F84401F5C77901220000E3
:100093000080FB120086B90003020104E479217891
:1000A30008B800028004F709D8FCE479297802B87B
:1000B30000028004F709D8FCE490028178317914B6
:1000C3008002F0A3D8FCD9FA781A90014A7A01BACF
:1000D30000028007E493A3F608DAF97AB17B15905E
:1000E300014B786579058015E493A3AD82AE838ACD
:1000F300828B83F0A3AA82AB838D828E83D8E9D9C6
:10010300E77582AC75838F740412012C7582917527
:100113008300740012012C75D00075813F7518811E
:10012300751902759F00020096C09FF59FE473D076
:100133009F22D083D082C09FE493C0E0740193C018
:10014300E0740293F59F2201120A0A0A02EE830168
:100153000000CF8302EC83010000B1151036820149
:100163000000830202F683030000860202EC83018F
:100173000000B215101682030000880202EC83010E
:100183000000B315107681030000B415120A020AA9
:100193000A02EE83010000D58302EC83010000F51F
:1001A3001510B6800100008B0202F6830300008F56
:1001B3000202EC83010000F61510C68003000091D3
:1001C3000202EC83010000F81510E680030000F939
:1001D3001502EC83010000F71510D6800100009290
:1001E3000202F683030000A202FF0000B40000280D
:1001F300002800283075A000A000A000A00000087F
:100203000008E001F00010001000100010001000C2
:10021300100050005000500010001000D0070000E4
:10022300000000000F0001000500307507001000FA
:10023300010081FF00000000FFFFFF190837081FBE
:10024300085B08FF02020208025000A0000000E859
:100253000302EE83010000E78302EC83010000AD9B
:100263001602F883010000E20202EC83010000AEF3
:100273001602FA83010000F80202EC83010000AFCA
:100283001602FE83010000FA0202EC83010000B0B3
:1002930016020484080000FB0202EC83010000B193
:1002A30016021484010000B216FF0100FF2002EEC3
:1002B30083010000E18302EC8301000016170206AC
:1002C30084000000000002F68303000029031700E6
:1002D300C70EC70EC70EC70EC70EC70EC70EC70E73
:1002E300C70EC70EC70EC70EC70E7F119111791126
:1002F30012080802EE83010000CC8302EC830100A4
:10030300005917106682010000480702F6830300B4
:10031300004E0702EC830100005A171056820200B8
:1003230000500702EC830100005B171046820200B5
:10033300005807020202020202020202010D00003B
:1003430000100102EE83010000DB8302EC83010055
:10035300009C17021084010000590702EC8301007E
:10036300009D17020E84010000A58002EC830100AA
:10037300009E17020C840100001F8302EC8301001E
:10038300009F17020A84010000818002EC830100B0
:1003930000A0170208840100001A8302EC83010005
:1003A30000A117020284010000248302EC830100F0
:1003B30000A217020084010000938002EC83010075
:1003C30000A31702FC83010000B68202EC83010044
:1003D30000A417021A84010000A51701E80305779A
:1003E300100A120A0A0A02EE83010000D88302EC03
:1003F300830100004B1810E6810100001D0802F67E
:1004030083030000230802EC830100004C1810D67C
:1004130081030000250802EC830100004D1810C67B
:10042300810300004E180380000080700061801279
:100433000A0A0A02EE83010000E48302EC8301004E
:1004430000981810A681010000B00802F68303008B
:1004530000B40802EC830100009918109681030090
:1004630000B60802EC830100009A1810868103008D
:10047300009B18120A0A1E02EE83010000DE8302AB
:10048300EC83010000DC18105681010000B908025A
:10049300F683030000BD0802EC83010000DD1810A1
:1004A3004681030000BF0802EC83010000DE181040
:1004B3003681030000DF18120A0A0A02EE830100E4
:1004C30000D28302EC830100002019100681010091
:1004D30000C20802F683030000C80802EC8301008F
:1004E30000211910F680030000CA0802EC83010002
:1004F3000022191066810300002319FFFFFF00018A
:100503003075030201060000000000000000000037
:1005130000000000000000000000000000000000D8
:100523000000FFFF0600800CE8030A0953656E73A1
:100533006F72546167051250002003020A00020122
:1005430005544920424C452053656E736F72205405
:10055300616700D007E803E803E803E803E8032D35
:100563001800005D186318691875186F187B1887D1
:10057300188D18104B65792050726573732053746E
:100583006174650002EE83010000C98302EC8301FC
:100593000000DC19021884000000AE1502F6830384
:1005A3000000AF1502F283010000DD1912013515B9
:1005B300BA031201354CBA0312013575BA0312019D
:1005C300353DBB03120135A6BB03120135B4BC0391
:1005D300120135DB8B03120135128C031201353BFB
:1005E3008C03120135808D03120135138E03120122
:1005F30035628F03120135D5DA03120135E8DA03C8
:1006030012013519DB0312013553DB03120135AC3B
:10061300DB03120135F3DB031201353BDC0312016B
:10062300356ADC0312013599DC03120135D0DC0392
:1006330012013517DD0312013530DD031201358553
:10064300DD031201359EDD03120135ECDD031201DA
:100653003526DE031201350EDB0212013511DC02F1
:100663001201354ADC021201356DDC021201357FBD
:10067300DC02120135BDDC0212013539DD02120143
:100683003501DE0212013523DE02120135BADE0224
:100693001201350CDF021201353DDF021201354A2A
:1006A300DF02120135B4DF021201350BE002120141
:1006B300350EE00212013547E0021201354AE0022D
:1006C30012013554E002120135A8E002120135E9A6
:1006D300E0021201351CE10212013559E102120157
:1006E300355BE202120135FFE20212013568E302D3
:1006F300120135A6E30212013524CF031201354C52
:10070300CF0312013579CF03120135B1CF031201A3
:10071300350FD0031201355BD003120135C2D0036C
:1007230012013502D1031201353FD1031201356D98
:10073300D10312013517D20312013521D20312015D
:10074300352ED20312013561D2031201356DD20366
:1007530012013585D2031201358FD2031201350CF4
:100763008D041201351A8D04120135328D041201E4
:1007730035498D04120135E1CF011201358BD001CA
:100783001201359ED1011201351AD20112013538F9
:10079300D30112013574D3011201350FD4011201B3
:1007A30035F3D401120135BFD5011201354DD701FF
:1007B300120135BED70112013578D8011201356A0D
:1007C300D901120135AAD9011201355EDA011201EC
:1007D3003590DA0112013586DC01120135C8DC01DE
:1007E300120135E6DC011201354CDD011201351B26
:1007F300DE01120135DFDE01120135FEE0011201D7
:10080300358DF30212013577F40212013522F50218
:1008130012013573F50212013523F60212013594E4
:10082300F60212013579F702120135ADF702120112
:1008330035A6F802120135E3F802120135BFF902B9
:10084300120135FEF9021201351AFA021201352B93
:10085300F903120135AFF903120135DAF903120175
:1008630035F4FA031201351DD30312013533D303D3
:1008730012013551D30312013562D4031201356CD1
:10088300D40312013597D5031201358ED603120115
:1008930035FBD6031201357BFA02120135ABFB029D
:1008A300120135E2FB021201352CFC02120135EF75
:1008B300FD02120135F06B001201357C6C00120150
:1008C30035E06D00120135EC6D00120135276E0025
:1008D300120135966E001201359F6F00120135A883
:1008E30070001201356F7100120135CC72001201D4
:1008F30035EA7200120135077300120135B4730033
:100903001201353174001201355974001201352377
:100913007700120135287700120135417900120161
:10092300358F7900120135FF79001201353D7A00C8
:10093300120135197B00120135D97B0012013525CF
:100943007C00120135287C001201356C7C001201F9
:1009530035B47C00120135F37C00120135157D009E
:10096300120135497D00120135AC7D001201350FAE
:1009730091031201351D9103120135709103120188
:10098300358F9103120135D4910312013518930366
:10099300120135B39303120135F793031201352185
:1009A3009403120135909403120135D69403120176
:1009B300354D9503120135FE95031201352C2E009A
:1009C3001201353C2E00120135DD2E00120135399E
:1009D3002F00120135F62F001201351231001201DA
:1009E30035443100120135733100120135203300D3
:1009F300120135973500120135073800120135F918
:100A03003800120135F23900120135F93B001201A9
:100A130035ED3E001201351C400012013520420025
:100A2300120135304300120135BF4400120135B0C5
:100A33004500120135FE45001201356D46001201D5
:100A430035914600120135E24600120135834B0011
:100A5300120135844C00120135E54C0012013510AA
:100A63004D00120135D64D00120135E7C6031201C0
:100A730035F1C60312013536C7031201354AC703E0
:100A8300120135DAC70312013513C8031201354EBB
:100A9300C80312013577C803120135CBC80312010D
:100AA30035E0C80312013502C90312013517C90322
:100AB3001201352BC90312013540C9031201357ADE
:100AC300C903120135A6C903120135EFC903120187
:100AD3003561CA03120135A4CA03120135CECA0314
:100AE300120135F9CA03120135F38A04120135AD37
:100AF300B30212013590B4021201350BB502120193
:100B03003546B50212013597B60212013525B702F3
:100B1300120135B7B90212013569BA0212013575EE
:100B2300BB02120135E8BC0212013541BD021201BC
:100B330035EDA80312013530A903120135B4A90319
:100B43001201358BAC0312013537F003120135E97D
:100B5300F003120135E5F10312013524F20312010A
:100B6300357EF20312013500FD0312013563FD03E7
:100B730012013500FE0312013535FE0312013565FE
:100B8300FE03120135A0FE03120135C0FE0312015C
:100B9300350E9B031201359A9B03120135599C03B1
:100BA300120135719D031201358B9F031201351913
:100BB3009D021201353E9D021201350B9E02120168
:100BC30035DF9E021201354C9F021201358C9F02C4
:100BD30012013528A0021201355CA102120135373A
:100BE300A20212013596A20212013522A3021201BA
:100BF3003590A3021201351CA40212013562A4022E
:100C0300120135D4A40212013566A502120135077B
:100C1300A60212013527A6021201356FA6021201A0
:100C230035B8A602120135D4A602120135FAA6027E
:100C330012013574A70212013582A7021201351180
:100C4300A8021201357AA802120135C29F031201CC
:100C53003547A00312013589A0031201356DA103A5
:100C6300120135DAA1031201351EA2031201356206
:100C7300A2031201358FA203120135B7A203120199
:100C830035EFA2031201352DA30312013554A3033B
:100C9300120135CEA30312013518A4031201350B3B
:100CA300E101120135AAE201120135E2E401120168
:100CB3003536E50112013561E5011201353DE601E5
:100CC3001201356DE6011201359CE601120135AFC3
:100CD300E601120135F0E6011201351DE7011201AB
:100CE300356BE701120135A7E701120135ECE70186
:100CF30012013539E801120135B3E801120135F467
:100D0300EA01120135DEEC011201351AED0112017F
:100D130035A9EE01120135EEEE0112013561EF0145
:100D2300120135B6EF01120135BBEF011201354552
:100D3300F00112013564F10112013575F10112015F
:100D430035D2C7021201354BC80212013505CE0256
:100D530012013510CF02120135B9D0021201354705
:100D6300D1021201353A9801120135BB98011201E3
:100D730035E89801120135319901120135329A0192
:100D83001201358B9A01120135079C011201358935
:100D93009C01120135A49C01120135159D0112011C
:100DA30035D29D01120135959E01120135239F0114
:100DB300120135DA9F01120135ED9F0112013586CB
:100DC300A0011201351DA10112013544A101120137
:100DD30035ADA101120135F7A10112013545A2017B
:100DE300120135ECA2011201358AA3011201351754
:100DF300A40112013588A401120135CFA401120107
:100E03003527A50112013559A5011201351AA6018D
:100E13001201351DA70112013566A70112013583A1
:100E2300A701120135A2A701120135D5A8011201AC
:100E3300358CA901120135B1A901120135C6A901E9
:100E430012013536AA0112013577AA011201359B29
:100E5300AB011201351CAC0112013571D102120133
:100E630035BCD102120135C8D1021201359CD20220
:100E7300120135B3D202120135F0D202120135212B
:100E8300D30212013559D302120135AFD302120135
:100E930035C5D30212013501D40212013514D4022F
:100EA3001201353BD4021201356FD402120135957C
:100EB300D502120135DFD602120135DBD70212014A
:100EC30035F1D802120135F27F001201358D8E0201
:100ED300120135BC8E021201350E920212013565E4
:100EE30093021201352494021201358B97021201E9
:100EF30035779802120135C99802120135E3980239
:100F03001201351599021201352099021201352972
:100F13009902120135DB9902120135AB9A021201D3
:100F230035F29A02120135589B02120135CA9B020F
:100F330012013561BE01120135A1C101120135A7AC
:100F4300C10112013566C8011201358BCC011201B2
:100F5300358EDE0312013524DF031201353ADF0338
:100F630012013593DF03120135D7DF031201351167
:100F7300E003120135A9E00312013518E103120160
:100F83003521E1031201352DE10312013547E10358
:100F930012013571E10312013586E103120135E8CF
:100FA300E1031201350FE203120135A5C203120159
:100FB30035B2C203120135CCC203120135FFC2039D
:100FC3001201353DC303120135A2C303120135B724
:100FD300C303120135C2C303120135CFC303120188
:100FE30035E6C303120135F4C303120135FFC3030E
:100FF3001201350BC4031201351AC403120135253E
:10100300C40312013548C403120135ECC4031201B1
:1010130035FCC40312013516C50312013533C5036C
:101023001201354EC50312013573C5031201357E16
:10103300C50312013593C503120135A7C503120178
:101043003508C6031201350EC60312013514C60353
:101053001201351AC60312013532C6031201356572
:10106300C6031201359DF10112013534F20112015B
:1010730035CCF201120135BCF301120135F3F30152
:1010830012013506F40112013574F4011201350F12
:10109300F60112013536F601120135D8F6011201B7
:1010A300350DF7011201351EF70112013597F701CE
:1010B300120135B8F701120135D0F70112013528B5
:1010C300F90112013531FB0112013581FD011201D4
:1010D3003584FE01120135D3FE0112013500800271
:1010E300120135FD8002120135E88102120135F249
:1010F300810212013514820212013520820212018B
:1011030035728302120135A18302120135D18402A3
:101113001201351385021201353F8602120135157E
:101123008702120135678702120135C68702120151
:1011330035FD8702120135388802120135D38B023F
:10114300120135EC8B021201356E8C021201357CD3
:101153008C02120135D18C02120135DF8C0212018F
:10116300354C8D02120135BE8D02120135048E02FB
:101173001201359DA802120135BFA802120135A93B
:10118300AA021201354EAE0212013591AF021201CD
:10119300356BB0021201350080041201352580043D
:1011A300120135968004120135CCE302120135D5C4
:1011B300E302120135DEE3021201350FE5021201EB
:1011C300352EE70212013564E7021201359EE7026C
:1011D300120135D4E7021201350EE802120135423D
:1011E300E8021201356EE802120135B7E802120176
:1011F30035F1E80212013539E9021201358FE902AE
:10120300120135C4E9021201351FEA0212013559F0
:10121300EA02120135AAEA02120135E0EA021201DA
:10122300351AEB0212013548EB021201356BEB0262
:10123300120135D98D04120135058E041201356072
:101243008E041201356A8E041201357A8E0412015E
:101253003521CB0312013558CB0312013575CB036E
:1012630012013559CC03120135DACC03120135B121
:10127300CD0312013510960312013537960312017F
:1012830035729603120135278F04120135424E0041
:10129300120135525100120135E752001201356235
:1012A30053001201350E5400120135B154001201DE
:1012B30035495500120135785500120135105A0091
:1012C300120135A25A00120135DE5B0012013548C6
:1012D3005C00120135FC5C00120135B25F001201A3
:1012E30035EC5F00120135566000120135B3600022
:1012F3001201351061001201356D6100120135587C
:1013030062001201359E6200120135E9620012018A
:10131300350C630012013553640012013567640014
:10132300120135D6650012013515660012013555D7
:101333006600120135A86600120135C96600120164
:10134300350767001201352D69001201356E6900FA
:10135300120135096A001201357B6A00120135BC9E
:101363006B001201353A8603120135E08603120140
:1013730035258803120135AE88031201359B890395
:10138300120135DA8903120135448A03120135B299
:101393008A031201353DAD0312013574AD03120109
:1013A300359DAD0312013565AE03120135CEAE0393
:1013B300120135DCAF0312013523FB031201353370
:1013C300FB0312013578FB0312013556FC031201AE
:1013D30035EEFC03120135B68104120135E98104AF
:1013E3001201350782041201359C8204120135B9BA
:1013F30082041201354B8304120135DCFF02120112
:1014030035CEFE03120135DEFE03120135F2FE0373
:10141300120135FAFF031201357FE5031201352767
:10142300E60312013569E803120135A9F20312013B
:1014330035C3F20312013526F30312013594F30386
:101443001201354AF40312013569F40312013579A7
:10145300F403120135B8F403120135F5F403120154
:10146300355D83041201359783041201350A840420
:10147300120135548404120135938404120135A5F5
:101483008404120135DA8404120135FE8404120146
:10149300354D85041201357F85041201351186040B
:1014A3001201358D86041201353DE20312013551D7
:1014B300E2031201357AE203120135A3E2031201BA
:1014C300356BE303120135B6E3031201356DE50312
:1014D3001201359F8604120135D286041201354E5E
:1014E30087041201356E8704120135D38704120174
:1014F300351B88041201351E880412013558A403D4
:1015030012013571A40312013507A503120135F841
:10151300A5031201354DA8031201358DA80312014D
:1015230035CFA80312013507F50312013518F5036A
:1015330012013561F5031201358DF503120135AD45
:10154300F5031201354CF6031201351FF70312019F
:10155300352C88041201357B88041201350B89046C
:101563001201358C8904120135F87F00120135848C
:10157300E80312013571EA03120135DDEA031201B2
:101583003528EB031201355DBE0312013594BE030A
:10159300120135BDBE0312013585BF03120135EEBD
:1015A300BF03120135FCC00312013585B1031201DB
:1015B30035BCB103120135E5B103120135ADB203F8
:1015C30012013516B30312013524B403120135CDCC
:1015D300B50312013504B6031201352DB60312010A
:1015E30035F5B6031201355EB7031201356CB80346
:1015F300120135847E00120135B57E00120135DFFC
:101603007E00120135FF7E001201355D7F0012015D
:1016130035F9EB021201350EEC021201356AEC02C8
:10162300120135D5EC021201351DED021201358F81
:10163300ED02120135B8ED02120135C6ED021201B9
:101643003528EE0212013566EE0212013581EE02F3
:101653001201351CEF02120135C5EF0212013548A4
:10166300F00212013581F0021201350CF102120170
:101673003563F102120135C1F102120135D3F102D2
:10168300120135F9F10212013502F2021201355944
:10169300F30212013531F70312013598F7031201F2
:1016A3003555F803120135D3F80312013505D70375
:1016B30012013538D7031201356AD803120135AE4A
:1016C300D8031201358AD903120135B989041201ED
:1016D30035978A041201352BEB0312013570EB03A6
:1016E300120135B6EB031201357FED0312013520EC
:1016F300FF011201353BFF011201354BFF011201BE
:1017030035B0FF01120135848E04120135EABD02A2
:10171300120135C6BE021201350DBF021201354A50
:10172300BF02120135B8BF0212013512C002120105
:101733003582C00212013552C10212013541C20283
:10174300120135B8C20212013554C402120135E147
:10175300C40212013554C502120135D0C50212016B
:1017630035E7C5021201350CC70212013566C702FF
:101773001201350080031201352080031201352642
:101783008103120135728103120135928103120123
:1017930035E5810312013552820312013598820324
:1017A300120135FC8203120135A885031201352984
:1017B30086031201351D84011201354A8901120184
:1017C300354D8C01120135768C011201358D8C015A
:1017D300120135B68C01120135688D0112013551A4
:1017E3008F011201359C9001120135B59001120150
:1017F30035EC9501120135259601120135699601E3
:101803001201357A970112013552AC01120135D418
:10181300AE01120135C2B201120135E8B201120163
:101823003513B30112013507B4011201358AB4012E
:1018330012013566B50112013591B501120135BCAE
:10184300B501120135E7B50112013512B6011201D6
:101853003549B60112013574B6011201359FB6013F
:1018630012013546B701120135EBB701120135926A
:10187300B80112013537B901120135E0B90112017E
:101883003587BA0112013558BB0112013525BC0158
:10189300120135B3BC011201356CBD01120135C310
:1018A300ED031201354CEE03120135BEEE031201B6
:1018B300358DEF03120135078C04120135B38C0407
:1018C300120135239004120135C67F00120135BE83
:1018D300FF02E066701008A3E066700A08A3E066E2
:1018E300700408A3E06622C3E7960809E79608098F
:1018F300E7960809E79622C3E09608A3E09608A3B3
:10190300E09608A3E09622C008C3E096F50808A372
:10191300E096420808A3E096420808A3E09645082B
:101923007001D3D00822080808EAC0E0EBC0E086C3
:10193300F0E7A4FA180986F0E7A42AFA180986F052
:10194300E7A42AFA180986F0E7A42AFA1986F0E729
:10195300A4FBE5F02AFA190886F0E7A42BFBE5F0CF
:101963003AFA190886F0E7A42BFBE5F03AFA1818BF
:101973000986F0E7A4C5F02BFBE43AFA1908E7C59A
:10198300F0C6A426F6E5F03BFBE43AFA1886F0E746
:10199300A4F6E5F00826F6E43B08F6E43A08F6D0A8
:1019A300E0FBD0E0FA22E4CFC0E0E4CEC0E0E4CD37
:1019B300C0E0E4CCC0E075F020E626F608E633F696
:1019C30008E633F608E633F6181818EC33FCED3363
:1019D300FDEE33FEEF33FFC3EC9709ED9709EE9766
:1019E30009EF97191919400FFFEC97FC09ED97FDC3
:1019F30009EE97FE191906D5F0BFECF709EDF709C3
:101A0300EEF709EFF7191919D0E0FCD0E0FDD0E0AB
:101A1300FED0E0FF226016080808C6C313C618C626
:101A230013C618C613C618C613C6D5E0EA22700932
:101A3300080808226016181818C6C333C608C63328
:101A4300C608C633C608C633C6D5E0EA22E627F67B
:101A53000809E637F60809E637F60809E637F622F5
:101A6300E026F608A3E036F608A3E036F608A3E07E
:101A730036F622E026F008A3E036F008A3E036F0BD
:101A830008A3E036F022C3E697F60809E697F608BE
:101A930009E697F60809E697F622C3E096F008A34D
:101AA300E096F008A3E096F008A3E096F022E05653
:101AB300F608A3E056F608A3E056F608A3E056F6A8
:101AC30022E056F008A3E056F008A3E056F008A37E
:101AD300E056F022E0F608A3E0F608A3E0F608A338
:101AE300E0F622E6F008A3E6F008A3E6F008A3E692
:101AF300F022E0FAA3E0FBA3E0FCA3E0FD22EAF07E
:101B0300A3EBF0A3ECF0A3EDF022E0F8A3E0F9A33C
:101B1300E0FAA3E0FB22E8F0A3E9F0A3EAF0A3EBE9
:101B2300F022CAC0E0E6F0A308DAFAD0E0FA22CA4B
:101B3300C0E0E0A3C582CCC582C583CDC583F0A335
:101B4300C582CCC582C583CDC583DAE6D0E0CA227F
:101B5300C3E498F8E499F9121B948026C3E49AFA33
:101B6300E49BFBE920E7E9121B94E498F8E499F974
:101B730022C3E498F8E499F9121B94E498F8E499E1
:101B8300F9C3E49AFAE49BFB22EB20E7CFE920E7D1
:101B9300E0B90010BB0008E88AF084F8AAF022E458
:101BA300FBC8FA22EB70227B10C833C8C933C93390
:101BB3005007C39AC3DBF280069A50012ADBEAC8B6
:101BC30033F4C8C933F4C9FA2275F008E4C833C83A
:101BD300C933C933C99AC99B5004C92AC93BD5F033
:101BE300ECFBC833F4C8E4C9FA22600D08C6A2E7C7
:101BF30013C618C613C6D5E0F322600C08C6C31378
:101C0300C618C613C6D5E0F422700422600D18C6A8
:101C1300C333C608C633C6D5E0F41822251810AF5F
:101C230008F518400C15198008F51840021519D24B
:101C3300AF2200C0D0251810AF08F518500C0519B5
:101C43008008F51850020519D2AFD0D0222518F517
:101C53008210AF08F518400C15198008F5184002DA
:101C63001519D2AF851983222518F582E43519F5A4
:101C730083222518F8E43519F9222518FAE43519D1
:101C8300FB222518FCE43519FD22E4732518C582CF
:101C9300C0E0E51934FFC583C0E0E518C39582248D
:101CA300F810AF0885831985821880088583198504
:101CB3008218D2AFCEF0A3E520F0A37808E608F0AF
:101CC300A3DEFAEFF0A3E58124FAF8E608F0A3E631
:101CD30008F0A3E608F0A30808E608F0A3E608F076
:101CE300A315811581D0E0FED0E0F815811581158B
:101CF30081E8C0E0EEC0E0222518C582C0E0E51906
:101D030034FFC583C0E0E518C3958224F910AF08FA
:101D13008583198582188008858319858218D2AF37
:101D2300CEF0A3E520F0A37808E608F0A3DEFAEFEF
:101D3300F0A3E58124FBF8E608F0A3E608F0A30886
:101D430008E608F0A3E608F0A315811581D0E0FEAC
:101D5300D0E0F815811581E8C0E0EEC0E0228519D6
:101D630083851882E0A3FEE0A3F5207808E0A3F6BC
:101D730008DFFAE0A3FFE0A3C0E0E0A3C0E0E0A334
:101D8300C0E0E0A3C0E0E0A3C0E010AF0885821884
:101D93008583198008858218858319D2AFD083D0B3
:101DA30082020132851983851882E0A3FEE0A3F540
:101DB300207808E0A3F608DFFAE0A3FFE0A3C0E081
:101DC300E0A3C0E0E0A3C0E0E0A3C0E010AF08855B
:101DD30082188583198008858218858319D2AFD02C
:101DE30083D08222C0D02518C582C0E0E51934FF14
:101DF300C583C0E0E518C3958224F310AF0885833B
:101E0300198582188008858319858218D2AFC8F096
:101E1300A3E9F0A3EAF0A3EBF0A37908E709F0A3A1
:101E2300D8FAECF0A3EDF0A3EEF0A3EFF0A3D0E02B
:101E3300F0A3D0E0F0A3D0E0F0A3E520F0A3E5F019
:101E4300F0A322851983851882E0C0E0A3E0F9A3FB
:101E5300E0FAA3E0FBA37808E0F608A3DFFAE0FCCE
:101E6300A3E0FDA3E0FEA3E0FFA3E0C0E0A3E0C086
:101E7300E0A3E0F5D0A3E0F520A3E0A3F5F010AFD5
:101E8300088583198582188008858319858218D26D
:101E9300AFD082D083D0E0F8D0E0327404800674EF
:101EA3000280027401C0E0F404121C50D0E0121B43
:101EB30025227404800474028000CCC0E0EDC0E0ED
:101EC300E518C39CCCAD1950011D10AF068C188DBD
:101ED3001980068C188D19D2AF121B32D0E0FDD0B9
:101EE300E0FC22D083D082E9C0E0E493A3C386F070
:101EF300C5F095F0F908E493A386F0C5F095F0706A
:101F03000BE493A3C3994005E9048002A3E475F0AD
:101F130002A42582F582E5F03583F583D0E0F9E468
:101F230093A3C0E0E493C0E022D083D082ECC0E06E
:101F3300EDC0E0E493A3FCE493A3FDED4C600D122C
:101F43001F78EC24FFFCED34FFFD80EFE493A3FC4A
:101F5300E493A3FDED4C600D121FB7EC24FFFCEDE1
:101F630034FFFD80EFD0E0FDD0E0FCE493A3C0E0BC
:101F7300E493C0E022C0E0C3E4939608740193960F
:101F830018400FE493667008087401936618700094
:101F93007019A3A3C3E49396087401939618A3A39B
:101FA300400DD0E0D0E0D0E0021F68A3A3A3A3A319
:101FB300A3D0E022C0E0C0F088F0E4936670080884
:101FC30074019366187000A8F0A3A3700BD0F0D02F
:0F1FD300E0D0E0D0E0021F68A3A3D0F0D0E0225E
:101FE40074F6121CFBEAFEEBFF8C088D09EE243418
:101FF400F8E43FF9E8FCE9FDEE243512231EFAEE7D
:10200400243712231EF88508F0A4C885F00A850930
:10201400F0A4250AF9EA28F8E439F97A257B0012B4
:102024001B94EA8C828D83F0FA131313541FF8EE79
:1020340028F8E43FF9E8245DF582E439F583E0C04B
:10204400E074075AF8D0E0B800028004C313D8FC47
:10205400A2E0EE50082434F582E43F8018243612BE
:10206400231EF5F0EA84A8F0EE28F8E43FF9E8240A
:1020740038F582E439F583E0F97F03021DA774F78C
:10208400121CFBEAFEEBFFEE243412231EC0E0EE2A
:102094002435F582E43FF583D0E0F08E828F83A36C
:1020A400A3A3A3A3A3A3C082C0838E828F83A3A36D
:1020B400A3A3A3122187D083D082E0C398F508A3F9
:1020C400E099F509EE247F12231E6401705DEE246D
:1020D400801221818E828F83A3A3A3A3A3A3A3121F
:1020E40024C18E828F83A3A3A3A3A3E0FAA3E0FB5E
:1020F400C3EA9CEB9D5010C3EC98ED99402DC3EAC4
:1021040098EB995026800EC3EA98EB994007C3ECEC
:1021140098ED9940167CD37D04EEFAEFFB120E077E
:10212400EE247FF582E43FF583E4F0AC08AD09EEDC
:10213400FAEFFB121FE4E9F9122D667F02021DA7D4
:10214400C082C083851882851983122187C3EA9CC3
:10215400EB9D5010C3EC98ED99401BC3EA98EB99A2
:102164005014800EC3EA98EB994007C3EC98ED999C
:102174004004790180027900D083D08222F582E480
:102184003FF583E0F8A3E0F922EAC39CFAEB9DFB58
:102194002274EF121CFB900399E064086005E0646C
:1021A40007702A9061C8E060249003C7E0F4601DC2
:1021B400E0F875F00AA4C8AAF02AF974C928FE74D4
:1021C4000339FF8E828F83A3A3A3E070030222A3AB
:1021D400906060E0C0E0EE2468F582E43FF583D0CF
:1021E400E0F0750C43750D05750800750900E5D917
:1021F40014F50AE5D95403F50E60127403650E60F4
:1022040043E50A600AEE246712231E70028075906B
:10221400053EE06401601F12231B60047A048002FF
:102224007A00E50AC39AFA95E0FB120CB18A088B8E
:1022340009EA45097005121047806412231B7004D3
:102244008A0C8B0DE50A6012850C82850D83F50BD3
:10225400E5D9F0A3150BE50B70F612231B6044744B
:10226400FC250AF50A780C121EA2AC0AA90EEEFA95
:10227400EFFB120EC17402121C35E97026AA08ABDA
:102284000912169B793D8E828F83A3A3A3A3E0FA40
:102294007B00120B13EEFAEFFB120E2B120ED37906
:1022A40000806F7403650E6051850A107511007803
:1022B40010121EA2AC0CAD0DAA08AB09120E857447
:1022C40002121C35EE246812231E64807004747F8D
:1022D4008001E0F50C780C121EA6E50EF50C780CC6
:1022E400121EA6A90AAC08AD099003C7E0FA7B0048
:1022F400120AE97402121C358013900399E06408F1
:10230400600BAC0CAD0DEEFAEFFB120F451210533F
:1023140079017F0A021DA7EE2482F582E43FF5834A
:10232400E02274F2121CFB74FC121C1FEAFEEBFF89
:102334008909A2AFE433F508C2AF0223E2E0601BCF
:10234400780C121EA2AC0BA90EEEFAEFFB120EBB18
:102354007402121C357404250BF50B7401250BF55E
:10236400D9850ED9E50B6018F50A850C82850D8395
:10237400E0F5D9A385820C85830D150AE50A70EA78
:1023840075E195EE2463F8E43FF97A007B00A2AF8F
:10239400E433F50BC2AF1224BDEC4D603288828960
:1023A40083E0FAA3E0FB8A828B831224C1888289AA
:1023B40083ECF0A3EDF08A828B83E4F0A3F0122483
:1023C400BDEC4D700A88828983A3A3E4F0A3F0E5F1
:1023D4000BA2E092AF12169B9004DAE004F0EE2414
:1023E40063122181E8496064EE246312231E2402EF
:1023F400F8A3E03400F988828983E5822402F50C8D
:10240400E43583F50DE0F50BA3E0F50EEE2462123E
:10241400231E640170369061D0E0F812231B60041F
:102424007C0480027C007480C398FA95E0FBE50B81
:102434002CF8E43400F9E82402F8500109C3EA98BE
:10244400EB99A2D265D03340030223419004DAE031
:10245400604D9004DBE0F89004DAE0C398500C740B
:10246400026509703A9004DCE060348E828F83A3A5
:10247400A3A3A3E08518828519831224B3740212DE
:102484001C6BE81224B39004D9E028F07402121CE7
:1024940085AA18AB197901120B3D9004DAE4F0E532
:1024A40008A2E092AF7404121C357F07021DA7F046
:1024B400A3E4F09004DAE0F82288828983E0FCA3A4
:1024C400E0FD22008521878522C622C0E074EB123C
:1024D4001DE7A2AFE433F508C2AF759B009061829B
:1024E400E0A2E05030E591A2E0502A7591FE74011B
:1024F40065217021122662120F93122650121EB506
:10250400122B107404121C35E96401700579011250
:102514000FDB122195906182E0A2E5505DE591A266
:10252400E550577591DF900399E064076005E06416
:1025340008702F12266274016521703E120F9312E7
:102544002650121EB5122B107404121C35E96401B6
:1025540070057901120FDB7901EEFAEFFB122326E5
:102564008018E0640D70139003BBE004F0642870DD
:1025740002E4F07A00E0F9121059906182E0A2E6D8
:102584004003022625E591A2E64003022625759123
:10259400BF900399E064057008120F7B120F8780C7
:1025A40003120F81752100120FE7E990039AF07965
:1025B40000120FDB120D777A017B00900398E0F98B
:1025C40012166B907803E064427056900542E01452
:1025D400F0704EC2AF1225DC00782AD0E0F618D095
:1025E400E0F6E59F5407F87005750DFF8003750D3F
:1025F4007FC4C0E07829E6F50A08E6550DF50B74AA
:102604000B780A121BFDD0E0250AF8906270E0A254
:10261400E740F8E8C333906272F0906270E0D2E071
:10262400F0906181E0A2E35009E5E9A2E35003756B
:10263400E9F7A3E0A2E75009E591A2E750037591F9
:102644007FE508A2E092AF7F08021E468E828F8348
:10265400E0F8A3E0C82416F582E438F58322900359
:10266400C7E0F875F00AA4C8AAF02AF974C928FECC
:10267400740339FF22C0E0C0D0C082C0839061835C
:10268400E0A2E05009E5BFA2E0500375BFFEE0A25E
:10269400E15009E5BFA2E1500375BFFDE0A2E2509D
:1026A40009E5BFA2E2500375BFFBE0A2E35009E5D0
:1026B400BFA2E3500375BFF7E0A2E45009E5BFA24F
:1026C400E4500375BFEFE0A2E55009E5BFA2E55071
:1026D4000375BFDFE0A2E65009E5BFA2E65003752B
:1026E400BFBFD083D082D0D0D0E032C0E074F21229
:1026F4001DE7E5A7A2E6500FE5A1A2E6500953A7FE
:10270400BF75A1BF122743E5A7A2E5500CE5A1A21E
:10271400E5500653A7DF75A1DFE5A7A2E15009E55F
:10272400A1A2E1500375A1FDE5A7A2E2500CE5A129
:10273400A2E2500653A7FB75A1FB7F01021E46745B
:10274400F7121CFB752101900399E06406701512C1
:102754000EF78A828B83A3A3A3A3A3A3E0FAA3E027
:10276400FB120F69A2AFE433FED2AF90039FE06483
:102774000170187A207B00900398E0F91217977A79
:10278400207B00900398E0F9121671906182E0D2E8
:10279400E6F090053FE0602185C622801690039EF6
:1027A400E064017008E5C654F84405F5C653BEFC60
:1027B4001224C87401652160E4EEA2E092AF7F02A6
:1027C400021DA7008E238F248582288583278518E0
:1027D40082851983E0CEA3E0CF852882852783EB09
:1027E400C9EAC8EDCBECCA75F010C3E833C8E933C5
:1027F400C9EA33CAEB33CBC3EA9EF526EB9FF52532
:10280400B35004AB25AA26EC33CCED33CDD5F0DAA6
:10281400AE23AF242274E9121CFB74FA121C1FEAC3
:10282400FEEBFF8C0A8D0B120F9FEAF8EBF9ECFA22
:10283400EDFB8E828F83121B19900399E024F7C35A
:1028440094055006751401022980120EF78A088B2C
:1028540009EA4509700302297DEEFCEFFDAA18ABD5
:1028640019120F99850882850983A3A3780C121A7B
:10287400D7908381780C121AB185188285198378D0
:1028840010121AD79083817810121AB1780C79102B
:102894001218EA501F780C7910121A8990837578EF
:1028A4000C12190A4047850C14850D15850E1685E2
:1028B4000F178045908375851014851115851216A0
:1028C4008513177814790C121A89781412190A507E
:1028D4001C751400751500751600751701781479A8
:1028E40010121A897814790C121A50800C7514017C
:1028F40075150075160075170074097814121A31CD
:102904009083BD780C121AD77814790C1219A98502
:102914000882850983A3A3A3A3A3A312299E121B40
:1029240094880C890DE4F50EF50F7814790C121ABD
:10293400507404121C6B12299E121B94E8FA8A0C20
:10294400E4F50D7814790C1218EA50077814790C10
:10295400121A89900399E06408600AE0640660052D
:10296400E064057020908399781412190A50169027
:1029740083C57814121A63800C75140075150075DC
:102984001600751700850A82850B837814121AE6DF
:102994007406121C357F10021DA7E0F8A3E0F97A33
:1029A400D07B032274F7121CFB120FB190053DE09B
:1029B40064017010906245E4F0A3F053F4F343FE15
:1029C4000C5390F3120F57E5C654B84441F5C6E5CD
:1029D4009E5447644170F8906185740FF090053BF4
:1029E400E0F47002A3E0604E90053CE060081460DF
:1029F4001B14602E804075080175090090053BE0AA
:102A04007808121C0CE508F45280802A75080175B8
:102A1400090090053BE07808121C0CE508F452907C
:102A2400801475080175090090053BE07808121CB4
:102A34000CE508F452A079007F02021DA774F71276
:102A44001CFBE9FEEAFF120FB174016E700C7A8070
:102A54007B00900398E0F912166B902E24E493F413
:102A64006008E493F9120D6B800953C6B8E59E54CF
:102A74004770FA120F5D90053DE064017003120D7A
:102A84008990053BE0F47002A3E0604B90053CE0C4
:102A9400600814601A14602C803D750801750900E3
:102AA40090053BE07808121C0CE5084280802875EC
:102AB400080175090090053BE07808121C0CE50834
:102AC4004290801375080175090090053BE0780871
:102AD400121C0CE50842A0120EF78A088B09A808FC
:102AE400A909E8496014E5E170FCE82414F582E4DE
:102AF40039F583E0F46003E0F5E174016F700A7A5C
:102B040001900398E0F91216FB022A3C74F1121C9E
:102B1400FB8A088B098C0A8D0B9083817808121A22
:102B2400B1740F121C6B780C121AD7908381780C35
:102B3400121AB17808790C1218EA9083755010783B
:102B440008790C121A89780812190A4014800E7830
:102B54000C7908121A89780C12190A500479018028
:102B64000279007F08021DA774ED121CFB8A088BF2
:102B7400098C0A8D0B9083817808121AB174131290
:102B84001C6B780C121AD7908381780C121AB178C6
:102B94000C79081218EA40117808790C121A89AADB
:102BA40008AB09AC0AAD0B802275100075110075D5
:102BB40012007513017810790C121A8978107908AB
:102BC400121A50AA10AB11AC12AD137F0C021DA740
:102BD4009083817808121AD78A828B837808121A14
:102BE400C47F04021DA774F5121CFB8C828D8378AC
:102BF40008121AD78A828B837808121A9D122C42E3
:102C0400C3E09CF0A3E09D122C34402290834178D1
:102C140008121AD78A828B837808121A768A828BD2
:102C240083A3A3A3A3E02420F0A3E0344EF080A068
:102C3400F088828983C3E09420A3E0944E22EA249E
:102C440004F8E43BF98C828D83A3A3A3A3E0FCA343
:102C5400E0FD888289832274F5121CFBE9FE90044E
:102C6400F5E0FAA3E0FBEE29F8E433F974A628F5BD
:102C740082748239F583E02AF508A3E03BF50978EC
:102C840008121EA2908361121AF51227C874021248
:102C94001C358A088B098C0A8D0B74107808121A5B
:102CA40018AA08AB097F04021DA774F1121CFB8A41
:102CB4000C8B0D8C0E8D0F7411121C6B121EB974BB
:102CC40011121C6BE02401F508A3E03400F509E4BB
:102CD400F50AF50B780C790812192990837978088C
:102CE400121AD7780C7908121929AA0CAB0DAC0E5C
:102CF400AD0F1227C87402121C358B09EA4509600E
:102D0400047A0180027A00EC2AFCE43DFD7413127B
:102D14001C6BE0F8A3E0F9E8FEE9FFECF8EDF97AC2
:102D2400717B02121B9488088909E4F50AF50B8E5D
:102D3400828F837808121AE6ECF8EDF97A717B0237
:102D4400121B948A088B0974057808121C0C8E8255
:102D54008F83A3A3A3A3E508F0A3E509F07F0802EA
:102D64001DA7C082C083E9906000F0D083D0822286
:102D7400C0E074F2121DE7A2AFE433FED2AFE589DE
:102D8400A2E050031214EB758900C2C5EEF8EEA25E
:102D9400E092AF7F01021E46C0E074F2121DE7A26A
:102DA400AFE433FED2AFE58AA2E64006E58AA2E7A5
:102DB40050031214EB758A00758A00C2EBEEF8EE2C
:102DC400A2E092AF7F01021E46C0E0C0D0E8C0E09E
:102DD400E9C0E0A2AFE433F8D2AF758B00C2E8E8F3
:102DE400F9E8A2E092AFD0E0F9D0E0F8D0D0D0E09A
:102DF40032C0E0C0D0E8C0E0E9C0E0A2AFE433F8FC
:102E0400D2AFC2C7751A00E8F9E8A2E092AFD0E0E9
:0F2E1400F9D0E0F8D0D0D0E032C2AF02000022F7
:102E2400FFFFFFFFFFFFFFFFC082C083E99017157C
:102E3400F0D083D08202013274F6121C8FE9900321
:102E44000BF090036BE0F508750900740278081222
:102E54001C0CAA08AB091216E390030C1237EF906E
:102E6400030C123BDC606F90036BE075F003A4FA73
:102E7400ABF01216E39003291237EF900329123BAB
:102E8400DC700B90030C123BAD1216E980489003E2
:102E940029124B417AFF7BFF1213657A0080198A4D
:102EA4000875090074027808121C0C1245E974FFB5
:102EB400122FEFE4F0A3F00A90036BE0F8EAC39852
:102EC40040DD79051209D590030BE0F91208C17AA7
:102ED4005F7B0A120C5102468C74F4121C8F8A0810
:102EE4008B09EB5480604790030BE0F91216538A68
:102EF4000A8B0BAE0AAF0BEE4F602A8E828F83E0F3
:102F040064B0701A1209E7E960148E828F83A3A358
:102F1400A3A3E0F9EE2405FAE43FFB1209B7EEFAA5
:102F2400EFFB121641AA08E5096480FB80047A00CD
:102F34007B0002313F74F2121C8F74FB121C1FEAD7
:102F4400FEEBFFEE4F60457403121C6BEEF0A3EF33
:102F5400F0851882851983ECF0A3EDF07402121C3D
:102F64006BE9F0AA18AB191208BBE9F5087075747F
:102F740013121C6BE0F50AA3E0F50BE50A450B60A0
:102F8400638E828F83123578EE4F70057508028048
:102F9400537A067B001216E38A0C8B0DA80CA90D3C
:102FA400E8497005750813803B88828983E4122FF1
:102FB400EFEEF0A3EF12310BE50AF0A3E50BF0906E
:102FC400030F12310490030F6017E0FCA3E08003A9
:102FD400EAFCEBFD8C828D8312310470F38C828DBC
:102FE40083124204A9087405024DC1F0A3124B23B5
:102FF400A32274F2121C8F8908890C750D007403C6
:10300400780C121C0C850C0A850D0B90030EF090A5
:10301400030C12400F123102602E1216E97900805F
:103024001D890C750D007402780C121C0C90030C95
:103034001244A88882F583A3A3E4F0A3F0099003C3
:103044006BE0F8E9C39840D990036BE0FA850AF085
:10305400A4CAA8F0850BF0A428FB1216E38A0C8BF3
:103064000DAE0CAF0DEE4F70030230F890036BE021
:10307400FC850AF0A4CCA8F0850BF0A428FD790007
:1030840012162F7C0080318D0C750D007403780CA2
:10309400121C0C8A828B831230FD88828983E4F0AF
:1030A40012310AA3A3F0A3F00DEDC3950840D8EEA6
:1030B400250AFEEF350BFF0C90036BE0F8ECC39888
:1030C40050288C0C750D007402780C121C0C9003A3
:1030D4000C1230FDE82402500109FAE9FB8A828BC4
:1030E40083EEF0A3EFF07D0080BFE50890030EF0BF
:1030F400790080027913024DC41244ACF922A3A3CF
:10310400123BB1EA4B22A3124B23A3A3A32274F4D0
:10311400121C8F7900EAA2E0501F7508D27509824B
:103124007808121EA279107C047D007A177B17128E
:1031340009CF7402121C35E9F980007F04021D6175
:10314400C082C08390030F123BDC601C8882898399
:10315400A3A3E06A7003A3E06B8882898370E8A369
:10316400A3A3A3123BAD80047A007B00022E357426
:10317400F2121C8F74FD121C1FEAFEEBFF851882ED
:10318400851983E4F0A3F07402121C6B7401F0122D
:103194003BD97014120B8B1216E39003121237EF03
:1031A400123BD970030233051238EFEE2404F50AFA
:1031B400E43FF50B850A82F583E024FE603C24FCA1
:1031C400607424FE607E24FE700302325524FE7077
:1031D4000302326224FE700302326F24FE70030283
:1031E400327C24FE700302328924FC70030232AA6A
:1031F40024FE70030232C20232FE120B8B900314BF
:10320400EAF0A3EB123311120603E960030232FE63
:10321400900314121EB98E828F83A3A3A3A3A312B7
:103224004B41850882850983123BAD12099F7402C4
:10323400121C350232FEAC18AD19EEFAEFFB12097E
:10324400ED0232CDAC18AD19EEFAEFFB1209F380A2
:1032540078AC18AD19EEFAEFFB1209F9806BAC18D3
:10326400AD19EEFAEFFB1209FF805EAC18AD19EE52
:10327400FAEFFB120A058051AC18AD19EEFAEFFB18
:10328400120A0B80447402121C75880C890D780C88
:10329400121EA27402121C85EEFAEFFB120A1174BC
:1032A40002121C358023AC18AD19EEFAEFFB120A9A
:1032B40017E9F870167402121C6BE4F0803CAC1829
:1032C400AD19EEFAEFFB120A1DE9F8E8602C8E82C4
:1032D4008F83A3E064146022850A82850B83E090C7
:1032E4000314F0851882851983123BAD90031512DF
:1032F40037EFE8A31233111205FDEEFAEFFB1209C2
:10330400757402121C6BE0F97403024DC1F07C1455
:103314007D03850882850983123BB12274E8121C5F
:103324008F74FA121C1F7404121C6BECF0A3EDF0E2
:103334008A128B13EA2405F50EE43513F50FEA24FB
:1033440002F510E43513F511851082F583123BADB7
:103354001206F38A0A8B0B7508007C037D00790042
:103364007A147B0312162FE50E2402F516E4350FAA
:10337400F5177402121C75880C890D780C121EA2A4
:10338400850E82850F83A3A3A3A3E0F50C750D001E
:10339400780C121EA2E50E2405F50CE4350FF50D8C
:1033A400780C121EA2851682851783123EB4120869
:1033B400D97406121C358A0C8B0DE50C450D70036F
:1033C4000235418020851882851983E088828983AB
:1033D400F00508851882851983A3E0C0E0123582C0
:1033E400D0E0F00508E50A24FBFAE50B34FFFBC343
:1033F400E5089AE49B40030235417E007F00851274
:1034040082851383A3A3A3A3E0F5097809121EA65A
:10341400E4F514F5157814121EA27514117515032C
:103424007814121EA2900312121EB97409121C6B96
:10343400121EB9E50A24F9F9AC0CAD0D851082858C
:103444001183123BAD120A477409121C35E960035B
:103454000234E2850E82850F83A3A3A3A3A3A3A3AF
:10346400E0F8900311E0687075E0F5148E15781497
:10347400121EA2124B3E850E82850F83A3A3A3A323
:10348400A3A3A3A3123BAD1216297402121C35E99F
:10349400604C900315123BDC703BE4F51478141275
:1034A4001EA27CFF7DFF7907851082851183123B64
:1034B400AD1209B17402121C35123BE27017850E6D
:1034C40082850F83124CDB7404121C6B12459C1210
:1034D4003EE5023575850C82850D83123578A81872
:1034E400A919881489157814121EA27404121C6B6D
:1034F400121EB98516828517831237E51208E57402
:1035040004121C358A0C8B0DEE4F70030233BE126D
:103514003582EE12358D123E9BEF12358DF8A3E005
:103524003400F9E50C450D60030233C988828983B0
:1035340074FFF0050812358274FFF00508E5086091
:103544001A1313543F1237F512060FE9600990035A
:1035540015123BAD12169B79008016850E82850FDD
:1035640083124CDB7404121C6B12459C12420479C6
:103574000A023E6EA3A3A3A3E0FEA3E0FF22A808D1
:10358400900315E028123E9B22F0050808900315CD
:10359400E0282274E8121C8F74FA121C1F740212A1
:1035A4001C6B1237EF7404121C6BECF0A3EDF07477
:1035B40002121C6BE02405123E84E0F50CA3E0F536
:1035C4000D7402121C6BE02402F510A3E03400F524
:1035D40011851082F583123BAD1206F37508007550
:1035E4000900EA24FCFEEB34FFFF8008050CE50C1F
:1035F4007002050DA808C3EE98EF9400500302373B
:10360400A1A818A919880E890F780E121EA2851474
:1036140082851583A3A3A3A3124B45121EA2E5140E
:103624002405F50EE43515F50F780E121EA2851447
:10363400828515831237E31208D97406121C358A61
:103644000E8B0FEA450F70030237A1EA2404F51626
:10365400E4350FF517851682F583E0F50CA3E0F544
:103664000D851882851983124B418A828B83A3A30B
:10367400A3E0F9851082851183123BAD1208C7E9D6
:10368400F50960030237A17402121C6B123EABF5FC
:10369400097809121EA6E4F512F5137812121EA277
:1036A4007512117513037812121EA2900312121EC2
:1036B400B97407121C6B121EB9EEF9AC0EAD0F856E
:1036C4001082851183123BAD120A477409121C350E
:1036D400E9F50960030237A1E508703FE4F50EF54A
:1036E4000F780E121EA27CFF7DFF7909851082855A
:1036F4001183123BAD1209B17402121C35123ED172
:10370400700D7404121C6B1237D879110237D590DE
:103714000311E02402900315F08014900315E0FADD
:10372400900311E0790024025001096A497072A8DB
:1037340008900311E0FAE82AFAE43400FBEE9AEF69
:103744009B405A851682851783E0C0E090031612C9
:103754003587D0E0F00508851682851783A3E0C07D
:10376400E008900316123587D0E0F00508900311A5
:10377400124B45121EA2124B3EA808123E78121696
:10378400177402121C35900311E02508F50874FF24
:10379400650C700474FF650D60030235F0E5086084
:1037A4001F900315E0F5F0E508841237F5120615AD
:1037B400E96009900316123BAD12169B7900801143
:1037C400E509700375090A7404121C6B1237D8A931
:1037D40009023E6E124013E50CF0A3E50DF022A39E
:1037E400A3124DD0AA0CAB0D22A3A3EAF0A3EBF0D5
:1037F40022900314F07C147D0385108285118312BA
:103804003BB12274EC121C8F74FC121C1F12431463
:103814007402121C85123BA71208DF8A0C8B0DEA76
:10382400450D70030238DF1238EFA818A919881063
:1038340089117810121EA27CFF7DFF790B85088206
:10384400850983123BAD1209B17402121C35123979
:10385400E5700C850A82850B83123EE20238EC8EF9
:10386400828F83A3A3A3A3E0F5127812121EA6E409
:10387400F512F5137812121EA2751214751303783B
:1038840012121EA27810121EA27409121C6B121EB0
:10389400B97409121C6BE0F9AC0CAD0D8508828576
:1038A4000983123BAD120A477409121C35E9FE70F4
:1038B400157C147D03850882850983123BAD1206AD
:1038C4001BE97009802074166E70027E0090031547
:1038D400123BAD12169BEE7004800B7E01850A82AA
:1038E400850B83124201EEF9024216EE2402F5081A
:1038F400E43FF5092274EC121C8F74FC121C1FEABD
:10390400FEEBFF8C0E8D0FEE2405F508E43FF50960
:103914007402121C85850882850983123BAD120846
:10392400DF8A0C8B0DEA450D70030239D5EE2402B3
:10393400F50AE43FF50BA818A91988108911781025
:10394400121EA27CFF7DFF790D123BA71209B174F0
:1039540002121C351239E5700B8508828509831221
:103964003EE2807A8E828F83A3A3A3A3E0F512782C
:1039740012121EA6850882850983A3A3121EB97597
:1039840012147513037812121EA27810121EA27458
:1039940009121C6B121EB97409121C6BE0F9123B5C
:1039A400A3120A477409121C35E9FE700F7C147DBA
:1039B40003123BA7120621E97009802074166E7069
:1039C400027E00900315123BAD12169BEE7004802C
:1039D4000B7E01850882850983124201EEF90242B9
:1039E40016123BECF510A3E0F511EA45112274E838
:1039F400121C8F74FE121C1F8A168B178C148D15C3
:103A0400EA2405F50CE43517F50DEA2402F50EE475
:103A14003517F50F850E82F583123BAD1206F38A36
:103A2400088B09750B007C037D0079007A147B03F5
:103A340012162F750A00E50814F5100424FFF50882
:103A4400E50934FFF5098054900314E0FA9003115A
:103A5400E0F8EA28F8E43400F9E50898E509995013
:103A64000D900314E0F8E510C398900311F0E0F50D
:103A7400127513007812121EA2124B3E900315E029
:103A84002AFAA3E03400FB1216177402121C3590B4
:103A94000311E0F8900314E028F0050A850C8285F0
:103AA4000D83A3A31244B84003023B88900314E09F
:103AB400C39508E495094003023B88AE0AEE2EFE46
:103AC400E433FF123BC7AC18AD19124B59E439FB70
:103AD4001208DF8A128B13AC12AD13EC4D701B75F8
:103AE4000B01123BB7124205900315123104600317
:103AF40012169BA90B7402023E70851682851783E9
:103B0400A3A3A3A3E0F50B780B121EA6E4F512F50C
:103B1400137812121EA27512117513037812121E55
:103B2400A2900312121EB97407121C6B121EB9A9BB
:103B340010850E82850F83123BAD120A4774091259
:103B44001C35E9F50B709B900315123BDC600302F6
:103B54003A4CE4F512F5137812121EA27CFF7DFF95
:103B6400790F850E82850F83123BAD1209B1740261
:103B7400121C35123BE26003023A4C123BB7123E70
:103B8400E6023AF97C147D03850E82850F83123B8D
:103B9400AD120627E96003023AEC7900023AF9AC67
:103BA4000CAD0D850A82850B83123BB122E0FAA38A
:103BB400E0FB22123BC7E0FAA3E0F9EA8514828510
:103BC400158322850C82850D83E02EF8A3E03FF94E
:103BD4008882898322900312124CDFE84922123B27
:103BE400ECF8A3E0F9E84922900315EAF0A3EBF01E
:103BF400900315E02274E8121C8F74FA121C1F74CF
:103C040004121C6B1237EF8C168D177404121C6B84
:103C1400E02405F50EA3E03400F50F7404121C6BC8
:103C2400E02402123E84123BAD1206F38A0A8B0B87
:103C34007F007E00A818A919880889097808121E2F
:103C4400A2850E82850F83A3A3A3A3E0F5088E09A2
:103C54007808121EA2E50E2405F508E4350FF509CF
:103C64007808121EA2850E82850F83A3A3123EB488
:103C74001208D97406121C358A0C8B0D8029123E49
:103C8400A5F00F123EA5F00F9003111241F0121E81
:103C9400A2124B3EEFF8123E781216177402121C51
:103CA40035900311E02FFFE50C450D7003023D3400
:103CB400851882851983124326A3A3A3E0F98514EA
:103CC40082851583123BAD1208C7E9FEE50C240476
:103CD400F510E4350DF511EE70507404121C6B12DE
:103CE4003EABF5087808121EA6E4F508F509780835
:103CF400121EA27508117509037808121EA29003FA
:103D040012121EB97407121C6B121EB9E50A24FAAA
:103D1400F9AC0CAD0D851482851583123BAD120AE6
:103D2400477409121C35E9FE6039123EC11242047F
:103D3400EF7003023E5B900315E0F5F0EF8490030F
:103D440014F07C147D03851482851583123BAD1217
:103D5400062DE96009900316123BAD12169B7900FB
:103D6400023E6E8F08EF703BE4F512F513781212E1
:103D74001EA27CFF7DFF7911851482851583123B79
:103D8400AD1209B17402121C35123ED17009123EF3
:103D9400C1123EE5023E6E900311E0240490031527
:103DA400F08035900311E0F8900315E0FAE824045C
:103DB400FCE43400FDEC6A4D6003023D3AE50A245C
:103DC400FAFAE50B34FFFBE50828F8E43400F9EAD5
:103DD40098EB995003023D3A851082851183E0C027
:103DE400E0900316E02FF8A3E034008882F583D036
:103DF400E0F00F851082851183A3E0C0E0123E92AB
:103E0400D0E0F00F7402121C758808890978081232
:103E14001EA27402121C6B121EB9850E82850F83BA
:103E24001237E31208E57404121C358A0C8B0DEA70
:103E3400450D7003023C827402121C6BE0C0E01258
:103E44003E92D0E0F00F7402121C6BA3E0C0E012AB
:103E54003E92D0E0023C8AEE70027E0A850E828594
:103E64000F83123EC7124204EEF97406121C357F0A
:103E740010021D61900316E028FAA3E03400FB222F
:103E8400F514A3E03400F515851482F58322123E5F
:103E94009622900316E02FFAA3E034008A82F58379
:103EA40022123E9674FF22124013A3A3A3A3E0227E
:103EB400124DD0850E82850F83123BB1228510826C
:103EC400851183124CDF8516828517832290031691
:103ED400EAF0A3EBF0900316124CDFE849221242F9
:103EE4000AE8F0A3E9F079112274EA121C8F74FE37
:103EF400121C1F8A088B098C128D13EA2405FEE418
:103F04003509FFAC18AD198E828F83123BAD1208B0
:103F1400DF8A0C8B0DEE2406F50EE43FF50FEA451F
:103F24000D7003023FE5E5082402F50AE43509F5BE
:103F34000B8A828B83A3A3A3E0A2E5502885188271
:103F4400851983123BAD120A3B8A108B11EA451185
:103F540060207912123BA3851082851183121C8D77
:103F6400E9F50C707F850E82850F83E06009795234
:103F74008011750C0E806D850882850983A3A3A327
:103F8400A3E0F9E4F508F5097808121EA28E828FE1
:103F940083A3A3E0F5087808121EA28E828F83A360
:103FA400A3A3121EB98E828F83124B41123BA71218
:103FB4000A4D7406121C35E9F50C7011850E8285C4
:103FC4000F83E0702D123BA712063380257416650B
:103FD4000C7011750C007418121C6B12400FE480E5
:103FE40010750C01124CD7851282851383E8F0A357
:103FF400E9F0850E82850F83E0600479008002A9D0
:104004000C7402121C357F0E021D6112401322E053
:10401400F8A3E0F58388822274EC121C8F74F712E3
:104024001C1F8A0A8B0B8C108D11EA2405FEE435C3
:104034000BFF750C00AC18AD198E828F83123BAD4B
:104044001208DF8A088B09EA450970030241DBE59F
:104054000A2402F50A5002050B8A828B83A3A3A3C8
:10406400E0A2E5502F851882851983123BAD120A10
:104074003B8A0C8B0DEA450D604F7912AC08AD09F3
:10408400123BA7850C82850D83121C8DE9F50C600B
:10409400030241DE850A82850B83E0F508A3E0F57F
:1040A40009AA08FB120A2FEA4B70197AFF7BFF1248
:1040B4000A2FEA4B70030241D18A828B83E508F010
:1040C400A3E509F07508008008750C0E0241DE05B1
:1040D4000890030EE0F8E508C39840030241D18537
:1040E400080E750F007403780E121C0C8A828B83E1
:1040F400A3A3E0250EF8A3E0350F1245A570D08EDA
:10410400828F831241F91237EF8E828F83A3A31219
:1041140041F91237EDEE2404F508E43FF50985086A
:1041240082F583E088828983A3A3A3A3F0A3E4F0A8
:10413400EE2405F50EE43FF50F850E82F58312415A
:10414400F9A3A3A3A31237ED751207751300781210
:10415400121EA2EEFCEFFD7404121C7D12161774DD
:1041640002121C35E4F5127812121EA2850882850B
:104174000983E0FC7D007917123BA71209B1740290
:10418400121C357407121C6B1237EF7407121C6B68
:10419400E0FA4B603D8508828509831241F0121EC6
:1041A400A2850E82850F83124B41121617740212D8
:1041B4001C357402121C85123BA7120639E96026CD
:1041C4007407121C6B123BAD12169B8019750C09F7
:1041D4008008750C118003750C01124CD785108270
:1041E400851183124204A90C74098028E0F508752E
:1041F4000900780822123BB1888289832212420A7C
:10420400E8F0A3E9F022E0F8A3E0F9850E82850F37
:1042140083227404121C357F0C021D6174EC121C81
:104224008F124314751000EE2402F50CE43FF50DD3
:10423400850C82F583123BAD120A2F8A088B09EA9A
:10424400450970030242F8850A82850B83E0640104
:1042540060030242EDAC08AD09AA0AAB0B120A23B3
:10426400E9606E85088285098312357AEE2406F5A5
:104274000AE43FF50B8E828F83A3A3121EB98E82AC
:104284008F83A3A3A3A3121EB9850A82850B83126D
:104294001EB979188E828F83124326123BAD120AFF
:1042A4004D7406121C35E9F8741668700B850A8281
:1042B400850B83E4F0A38014E860128E828F83124E
:1042C4003BAD850E82850F83EAF0A3EBF088108066
:1042D40018780E121EA2AC08AD09EEFAEFFB120A12
:1042E400297402121C35E9F510AA08AB09120A3523
:1042F400E510700E850C82850D83123BAD12063FCE
:104304008009741665107003751000A91002421B11
:10431400EAFEEBFF8C0E8D0FEE2405F50AE43FF563
:104324000B22124DD0850C82850D832274EA121C57
:104334008F7508007509007E007F00750A00EC2463
:1043440002F510E43DF5118035EC65087003ED6568
:104354000960030243E588828983A3A3E06A7003AA
:10436400A3E06B707C88828983A3A3A3A3124CDB94
:10437400EE28FEEF39FFEA28FAEB39FB050A12446E
:10438400B5503A850A0C750D007403780C121C0C98
:104394008510828511831244A81245A5601FE50883
:1043A400450970A58C088D0988828983123578881F
:1043B400828983A3A3E02EFAA3E03F80BEE50AC36B
:1043C400940250030244A3750800750900EE4F607F
:1043D40010EEFAEFFB1216958A0E8B0FEA450F705A
:1043E4000579000244A5750B00024478850B0C7511
:1043F4000D007403780C121C0C851082851183E067
:10440400250CF50CA3E0350DF50DE50C2406F5148B
:10441400E4350DF515851482F5831245AA6042E54D
:104424000C2404F512E4350DF513851282F583127C
:104434001EB9E50E2508FAE50F3509FB12161774A7
:1044440002121C35851282851383E02508F508A322
:10445400E03509F509851482851583123BAD1216E2
:104464009BE50B600D7C087D007900AA0CAB0D1256
:10447400162F050BE50BC3950A50030243F0851074
:1044840082851183124CDB88828983A3A3A3A3A30F
:10449400A3E50EF0A3E50F12310BEEF0A3EFF079D4
:1044A4000102400A1244AC22E0250CF8A3E0350DC9
:1044B4002290030EE0F8E50AC3982274F0121C8FD0
:1044C4008A0E8B0F8C0A8D0B750D00750C008050B5
:1044D4007916EE2406F508E43FF5098E828F83A34E
:1044E400A3121EB98E828F83A3A3A3A3121EB98520
:1044F4000882850983121EB9850E82850F83A3A3C2
:10450400123BAD120A4D7406121C35E9F50D7416F2
:10451400650D706C850882850983E4F0A3F0050CB1
:1045240090030EE0F8E50CC3985066AA0C8A08754F
:10453400090074037808121C0C850A82850B83A376
:10454400A31245F4E8FEE9FF8E828F831245AA6028
:1045540040EA2401F508E43400F50990030EE0650F
:10456400087002E509601488828983A3A3A3A3A326
:10457400A3A3A3123BDC60030244D479180244D6FB
:10458400E9609B124CD77410121C6B12459C1242AA
:1045940004A90D7F08021D61E0FAA3E0F5838A8275
:1045A40022F988828983124DD0EC4D2274F6121CB4
:1045B4008F7C0080010C90036BE0F8ECC398501ED4
:1045C4008C0875090074027808121C0C1245E9E085
:1045D4006A7003A3E06B70DDE8FAE9FB80047A00FB
:1045E4007B0002468C90030C1245F4888289832256
:1045F400E02508F8A3E03509F92274F2121C8F8A29
:10460400088B09750A0080278E828F83A3A3A3A336
:10461400123102600312169B7C087D007900EEFAC9
:10462400EFFB12162F8E828F83E4F0A3F0050A129B
:1046340044B55027850A0C750D007403780C121CC0
:104644000C850882850983A3A3E0250CFEA3E0352D
:104654000DFF8E828F83123BDC70AD850882850945
:104664008374FFF0A3F0024DC474F6121C8F120978
:10467400E18A828B83E582458370067A007B008021
:1046840007A3A3A3A3123BAD7F02021D6174F4121E
:104694001C8F89088C828D83E06402703C124C7AF2
:1046A400FEA3E0F9EEF874026870037429697029B6
:1046B400750A02750B00780A121EA27410121C6B84
:1046C400121EB97410121C6B121EB9A908121377AA
:1046D4007406121C35E9F98002790102313F74E84D
:1046E400121C8F74FB121C1FE9851882851983F034
:1046F4008A168B17ECFEEDFF7510008E828F83A354
:10470400A3A3E0A2E4502D741D121C6B123BAD1246
:104714000A3B8A828B83E58245837003024B1979B5
:104724000AEEFCEFFDAA16AB17121C8DE9F510601A
:1047340003024B1C741F121C6BE0F508A3E0F5097F
:104744007421121C6BE0F50AA3E0F50B7423121C10
:104754006BE0F50EA3E0F50F8E828F83E0640260B8
:1047640003024ABAA3124CDB850882850983A38518
:104774008212858313EE2406F50CE43FF50D88823E
:104784008983124B59F514E439F5157814121F2C4A
:10479400010000280128BC4707000228814803289B
:1047A400EF470029B0490129DB4902297C49032943
:1047B400B0490429544ABA4AE50E450F6003024A37
:1047C400B5850C82850D83124CDBE8FAE9FB8A82FD
:1047D4008B83E0850A82850B83124B64121EA28AA6
:1047E400828B83A3E0FCA3E0024A3EE50E450F6002
:1047F40003024AB5850A82850B837401F0124B4E7D
:10480400850882850983F07C007D008E828F83A3D6
:10481400A3A3A3E02401FAA3E03400FB1208DFEA17
:104824004B60408A828B83E02402F8850A82850BE0
:1048340083E028F0EA2404F8E43BF988828983E0E1
:10484400851282851383124B72124B64121EA28A44
:10485400828B83A3124B41E5082403FAE43509FB58
:10486400024A43850A82850B83E02404F07C047D9C
:10487400007900AA12AB1312162F024B1CE50E4549
:104884000F6003024AB5124B4EFEA3E0FF850A8275
:10489400850B837404F0EE850882850983F0EF8527
:1048A4001282851383F07403121C85EEFAEFFB1257
:1048B40008DF8A0C8B0DEA450D700302495F8A827A
:1048C4008B83A3A31235787401121C75880E890F8B
:1048D400780E121EA27405121C6B121EB97CFF7D89
:1048E400FF1208E57404121C358B0FEA450F703370
:1048F400850C82850D83124B45121EA2850C828580
:104904000D83A3121EB97C027D007AEA7B83120612
:10491400E17404121C35E9700A7401121C6B74FFF3
:10492400F0A3F08E828F83E064027039750C0275F7
:104934000D00780C121EA28E828F83A3124B41E5C8
:10494400082404FAE43509FB1216177402121C3504
:10495400850A82850B83E0240280097401121C6B92
:10496400EEF0A3EFF07401121C6B124B33740112BE
:104974001C6B124B2A024AAFE50E450F6003024A34
:10498400B5850C82850D83124DC9AA16AB17121377
:104994007D850A82850B837402F0850882850983EC
:1049A400EAF0851282851383EB024AB2E50E450FC5
:1049B4006003024AB5124B4EF8A3E0F9850A8285DA
:1049C4000B837402F0E8850882850983F0E9851277
:1049D40082851383024AB2850C82850D83123BAD16
:1049E400121611EAFAF8C3950EE4950F405CE865D7
:1049F4000E450F70047A008021851882851983E0A2
:104A0400FCE50E2CFCE4350FFDC3EC98ED9400504E
:104A140003E08005E50ECAC39AFAEA850A82850B8B
:104A240083F08A0A750B00780A121EA2850C82850F
:104A34000D83E0250EFCA3E0350FFDAA08AB091297
:104A440016177402121C35024B1C751007024B1CFE
:104A5400E50E450F705B850C82850D83124CDB855A
:104A64000A82850B837407F088828983124B2B1288
:104A74004B23E0851282851383F0E82402FAE4399B
:104A8400FB8A828B83124B338A828B83124B2AA339
:104A9400A312310A124B38F0E82405F850010988B2
:104AA400828983124B38A3124B72A3A3A3A3F08071
:104AB4006775100B8062741D121C6B123BAD1209DA
:104AC400E18A828B83E5824583604A124CDB880C41
:104AD400890DE8450D603E7425121C6BE0F51078D5
:104AE40010121EA6780E121EA2780A121EA27808B0
:104AF400121EA27407121C6BE0F9EEFCEFFDAA165D
:104B0400AB17850C82850D83121C8D7407121C351E
:104B1400E9F510800375100EA9107405023E70F0BB
:104B240088828983A322A3E08508828509832212CF
:104B34004B79F022124B79A3A322900312124DD089
:104B440022E0F50E750F00780E22850C82850D8308
:104B5400124013E022E0FAA3E0F8E4C8F9EA2822BC
:104B6400F08A828B83E0F50A750B00780A22124BD7
:104B740023124B7922E0850882850983A3A322743A
:104B8400EE121C8F74FE121C1F8A088B09ECFEEDBA
:104B9400FF890AAC18AD19EEFAEFFB1208DF8A0C94
:104BA4008B0DEA450D7003024C6B851882851983C1
:104BB400123BAD1209E18A828B83E582458370033F
:104BC400024C66A3A3124CDB880E890FE8450F70D4
:104BD40003024C667414121C6BE0F510A3E0F5118B
:104BE400E50AF50B780B121EA67419121C6B121E23
:104BF400B97810121EA2741B121C6BE0F9AC0CAD38
:104C04000DAA08AB09850E82850F83121C8D7405CD
:104C1400121C35E9F50B705274FE650A604C850C64
:104C240082850D83E064027041124C7AFAA3E0F9A4
:104C3400EAF87402687003742969702E85108285FD
:104C44001183124B59F50CE439F50D780C121EA2A0
:104C5400EEFCEFFDAA08AB09120A657402121C35BA
:104C64008008750B0E8003750B01A90B7402121CCE
:104C7400357F0A021D61A3124CDF88828983E022FA
:104C840074F6121C8F74FE121C1F740C121C6B120F
:104C94004CDBE8851882851983F07401121C6BE9DA
:104CA400F0E4F508F5097808121EA27508027808E0
:104CB400121EA27404121C75880889097808121E31
:104CC400A279FE120A4D7406121C357402121C35A8
:104CD40002468C8E828F83124CDF22E0F8A3E0F927
:104CE4002274F7121C8FEAFEEBFF89089003291245
:104CF4004B4112137DEA5402600BA908EEFAEFFB54
:104D04001208D3800279017F01021D6174F2121C22
:104D14008F74FE121C1FEAFEEBFF890A7401650AF8
:104D240060147402650A6003024DBF7901120C6FAE
:104D3400E96003024DBFEEFAEFFB120A2FEA4B6063
:104D440003120A35A818A919880889097808121EB7
:104D5400A27508027509007808121EA27508F67576
:104D640009837808121EA27CFF7DFF7A017B001262
:104D740008D97406121C358038850882850983A3F6
:104D8400A3A3A3A3A3124DC9EEFAEFFB121365E488
:104D9400F50CF50D780C121EA27402121C6B121E77
:104DA400B97CFF7DFFAA08AB091208E57404121C44
:104DB400358A088B09E508450970BE7402121C3552
:104DC4007F06021D61124013124DD022E0FCA3E0C5
:104DD400FD2274F4121C8F8A088B09ECFEEDFF90FF
:104DE4001715E0F4604B7A097B0012163BEA4B601E
:104DF400408A828B8374B1F0A3E4124E38F08A8225
:104E04008B83A3A3E508F0A3E509124E38A3EEF0C3
:104E1400A3EFF0740C121C6B124CDB8A828B83A3FD
:104E2400A3A3A3A3A3A3124204901715E0F9121697
:104E34004702313FF08A828B83A3A3A3A32274EE9B
:104E4400121C8F74FA121C1F8A0A8B0BE9FF8C0840
:104E54008D097E00850A0C850B0D780C121EE60068
:104E640004101E518A4EAD4ECC4EEF4E124F354FAC
:104E7400664F894FA04FD04F7F50A250C550F3507A
:104E84001E511E51F94F74016F70198508828509EE
:104E940083E0C39403500D850882850983E090184C
:104EA40044F080027E1802514674026F7015850822
:104EB40082850983E0F8A3E0F9901845E8F0A3E9B6
:104EC400F080027E1802514674016F7019850882C1
:104ED400850983E0C39402500D850882850983E027
:104EE400900762F080027E1802514674016F7019B7
:104EF400850882850983E0C39405500D8508828561
:104F04000983E0900763F080027E18025146740121
:104F14006F7019850882850983E0C39402500D855A
:104F24000882850983E0900764F080027E180251AC
:104F34004674106F7027750C10750D00780C121ED6
:104F4400A2AC08AD097A657B071216177402121C0D
:104F5400358A0C8B0D850C82850D8380027E1802A8
:104F6400514674016F7019850882850983E0C394E2
:104F740002500D850882850983E0900775F0800250
:104F84007E1802514674016F700D8508828509836D
:104F9400E0901848F080027E1802514674046F7045
:104FA40026908361780C121AD78508828509837844
:104FB4000C1218FA5011850882850983121B0D9072
:104FC4000777121B1980027E18025146EF702112D6
:104FD4000879E9701312130BE9F50D795012176D66
:104FE400E9F50C1212F9800A90080A7401F08002A3
:104FF4007E1802514674076F707C750E06750F009B
:10500400780E121EA2850882850983A3AC82AD8323
:105014007402121C7D12161D7402121C358A108B28
:105024001185100E85110F7C007D00AA18AB19851F
:105034000882850983E0F912129FE9F50CE50CC397
:10504400940A502E120879E97015A90C121311E96B
:10505400F50E795012176DE9F50D1212F98019A8A1
:105064000C7900740B28F582740839F5837401F007
:1050740080067E0280027E1802514674016F701908
:10508400850882850983E0C39402500D85088285D2
:105094000983E0900776F080027E1802514674017D
:1050A4006F7019850882850983E0C3940A500D85C1
:1050B4000882850983E0901847F080027E18025127
:1050C4004674016F7025850882850983E0C39407BF
:1050D4004019850882850983E0C39411500D850821
:1050E40082850983E0901849F080577E18805374B4
:1050F400016F7022900809E0F50C85088285098308
:10510400E0900809F0E50C7039900809E06401703A
:10511400311212F9802C7E188028C3E50A9427E501
:105124000B9400501B74026F7016850882850983E6
:10513400E0FCA3E0FDAA0AAB0B1206F9E9FE80022B
:105144007E02EEF97406121C357F0A021D6174ECAE
:10515400121C8F74DA121C1F890D8A128B138C0A8D
:105164008D0B743A121C6BE0F50C9082EAAC18AD0E
:10517400197406121B32AC18AD19AA12AB13A90D7F
:1051840012129FE9FEEEC3940A40030252C6EEF9DE
:105194001212DBE9FF901844E06402700474018089
:1051A400027400F5087808121EA6AD0CEFFCEEF9A7
:1051B400AA0AAB0B12134D7401121C357C147D002A
:1051C40079007412121C7D12162F8A0E8B0F850E15
:1051D40008850F097412121C857A1075F006EEA466
:1051E4002424F9121767E9703C7C1079FF741212B9
:1051F4001C7D12168FE9702D7422121C6BAC82ADCB
:10520400837A0475F006EEA42425F9121767E9F5EC
:10521400087412121C85EFA2E0E433F9AA0AAB0B5E
:10522400120783E9F87406121C857A0C74702EF93F
:10523400121767E970797406121C7D1212CF750E6D
:1052440000E50EC394045067A80E7900E875F003D6
:10525400A4C8AAF075F000A42AFA75F003E9A42AF8
:10526400F97406121C6BE58228F508E58339F50903
:10527400850882850983E0F8A3E0F9E849602C8574
:105284000882850983A3A3E0F51075110078101234
:105294001EA2850882850983E0FCA3E0FDAA0AAB6F
:1052A4000B120A537402121C35E9F8050E8092EFB2
:1052B400A2E1500E900761E0F9AA0AAB0B120A5959
:1052C400E9F87404650C700F901844E064027007E8
:1052D400AA0AAB0B12134779007426121C357F0CF3
:1052E400021D6174F7121C8FEAFEEBFF120879E9C4
:1052F400706790080AE06401701B12130BE9F5084B
:1053040090080A7400F07C0A7D0079007A0B7B080F
:1053140012162F8039750800E508C3940A502FA887
:10532400087900740B28F582740839F583E0640168
:105334007018A908121311E9FAA8087900740B2847
:10534400F582740839F5837400F0050880CA795031
:1053540012176DE9F5081212F97F01021D6174F24A
:10536400121C8F890BEAFEEBFF8C088D09750A0A63
:10537400E50B600C14600914604414606402540763
:10538400EEFAEFFB1212EDE9F50AE50AC3940A50AE
:1053940072E5084509606C750C06750D00780C12F1
:1053A4001EA2EEFCEFFDAA08AB0912161774021236
:1053B4001C358A0C8B0D850C82850D838045EEFA95
:1053C400EFFB1212E7E9F50AE50AC3940A5034E543
:1053D400084509602EAA08AB09A90A1212E1E9805E
:1053E40022EEFAEFFB1212F3E9F50AE50AC3940A76
:1053F4005011E5084509600BAA08AB09A90A121265
:10540400E1E9F8A90A7F06021D6174F2121C8F8A71
:105414000C8B0DE9FF7E1574FF650C700474FF6539
:105424000D702A750800E508C3940A5014EFFC7A3D
:10543400027B00A9081212BDE960027E0005088003
:10544400E5EF60627A357B13120C938059AA0CAB9A
:105454000D120C638A0A8B0B850A08850B09E50873
:10546400450960407C007D00E5082405FAE435091F
:10547400FB850882850983A3A3A3A3E0F912129FE5
:10548400E9F50AE50AC3940A500EEFFC7A027B00A0
:10549400A90A1212BDE97E00EF600BAA08AB09123B
:1054A400133580027E14EEF97F06021D6174EE123C
:1054B4001C8F8A0E8B0F8C0A8D0B7412121C6BE0DE
:1054C400F50CA3E0F50D75081574FF650E700474F2
:1054D400FF650F701E7E00EEC3940A5061AC0CADE4
:1054E4000DAA0AAB0BEEF91212C3E96003750800AA
:1054F4000E80E4AA0EAB0F120C638A108B11AE104F
:10550400AF11EE4F60357C007D00EE2405FAE43FD8
:10551400FB8E828F83A3A3A3A3E0F912129FE9F564
:1055240009E509C3940A5016AC0CAD0DAA0AAB0BDD
:10553400A9091212C3E97508008003750814A908A3
:105544007F0A021D6174F7121C8FEAFEEBFF9007BD
:105554007BEEF0A3EFF0900761E0FC7D007A267B00
:10556400001206F9E9F508900761E0F91209BD7F18
:1055740001021D6174F0121C8F74EC121C1F8A0C42
:105584008B0D850C82850D83A3A3E024FA7003029E
:1055940059F124FD7003025866147003025668140E
:1055A400601024FD700302580E1470030258A50203
:1055B4005A04AE0CAF0D90077BE0F8A3E0F9E8497C
:1055C400606690077BE0F8A3E0F5838882E0F8A3A7
:1055D400E0F9E8496052EE240CF582E43FF583E0FB
:1055E400F5087808121EA6EE240BF582E43FF58335
:1055F400E0F98E828F83A3A3A3A3A3A3A3A3A3E011
:10560400FCA3E0FDEE2403FAE43FFB90077BE0F803
:10561400A3E0F5838882E0F8A3E0F5838882121C76
:105624008D7401121C3580398E828F83A3A3A3A3AA
:10563400A3A3A3A3A3121EB9900777121AF5120706
:10564400957402121C35E9601879018E828F83A348
:10565400A3A3A3A3A3A3A3A3E0FAA3E0FB12078F2E
:10566400E9025A04AE0CAF0D7508008E828F83A335
:10567400E060030257908E828F83A3A3A3A3A3E0C9
:10568400A2E04003025790900815E0F8A3E0F9E87F
:105694004960030257907C0E7D007900AA18AB196B
:1056A40012162F8A0A8B0BAA0AAB0BEE240CF58276
:1056B400E43FF583E0F8A3E0F9E8496036750A06AB
:1056C400750B00780A121EA2EE240CF582E43FF555
:1056D40083E02410FCA3E03400FD7402121C7D124C
:1056E40016177402121C358A0A8B0B850A82850BE5
:1056F40083804F8E828F83A3A3A3E0FAA3E0FB12DF
:105704000C638A0E8B0F850E0A850F0BE50A450B79
:10571400602D750E06750F00780E121EA2E50A2480
:1057240005FCE4350BFD7402121C7D12161774027D
:10573400121C358A0E8B0F850E82850F838003021F
:105744005A048E828F83A3A3A3A3A3E0A2E25004EE
:10575400D2F08002C2F0A2F0E433F87900740C12A3
:105764001C6BE048F0A3E049F0EEFCEFFDAA18AB97
:10577400191212D5E970127A027B00900761E0F9E0
:1057840012166BE97900025A0675081590077BE03A
:10579400F8A3E0F9E849606F90077BE0F8A3E0F52F
:1057A400838882A3A3E0F8A3E0F9E84960598E82D4
:1057B4008F83A3E0FC79018E828F83A3A3A3E0FAF5
:1057C400A3E0FB90077BE0F8A3E0F5838882A3A322
:1057D400E0F8A3E0F5838882121C8DE5086028AC0C
:1057E4000879038E828F83A3A3A3E0FAA3E0FB903E
:1057F400077BE0F8A3E0F5838882A3A3E0F8A3E0A5
:10580400F5838882121C8D025A04AE0CAF0D9007EA
:105814007BE0F8A3E0F9E849604590077BE0F8A352
:10582400E0F5838882A3A3E0F8A3E0F9E849602FB8
:10583400850C82850D83A3E0FC79028E828F83A37D
:10584400A3A3E0FAA3E0FB90077BE0F8A3E0F583D1
:105854008882A3A3E0F8A3E0F5838882121C8D025A
:105864005A04AE0CAF0D7C007D00EE2404FAE43F34
:10587400FB8E828F83A3A3A3E0F912129FE9F5089C
:10588400E508C3940A5017EE240AFCE43FFD7A04A9
:1058940075F006E508A42425F9121761E9F8025AFF
:1058A40004AE0CAF0D900776E06019901847E0F94C
:1058B4008E828F83A3A3A3E0FAA3E0FB12078FE9F0
:1058C400F8025A04901844E0701679058E828F838A
:1058D400A3A3A3E0FAA3E0FB12078FE9F8025A049A
:1058E4008E828F83A3A3A3E0FAA3E0FB120C638A46
:1058F4000A8B0B850A08850B09E508450970030224
:105904005A048E828F83A3A3A3A3A3A3A3E0A2E03C
:10591400506D850882850983A3A3A3A3E060608EEC
:10592400828F83A3A3A3A3A3A3A3A3A3E0F50AA3A2
:10593400E0F50B7409780A121BFDE50A5401F8E539
:105944000B5400F9E8A2E04036740E121C85E508F9
:105954002405FAE43509FB850882850983A3A3A3FA
:10596400A3E0F912129FE9701679038E828F83A344
:10597400A3A3E0FAA3E0FB12078FE9F8025A04EEAE
:105984002405FCE43FFD850882850983A3A3A3A322
:10599400E0F98E828F83A3A3A3E0FAA3E0FB1213A2
:1059A4004190077BE0F8A3E0F9E849605390077B56
:1059B400E0F8A3E0F5838882A3A3E0F8A3E0F9E884
:1059C40049603D7C0079008E828F83A3A3A3E0FA13
:1059D400A3E0FB90077BE0F8A3E0F5838882A3A310
:1059E400E0F8A3E0F5838882121C8D8013AE0CAF1F
:1059F4000D8E828F83A3A3A3E0FAA3E0FB12129976
:105A040079017414121C357F08021D6174F5121C8F
:105A14008F74F2121C1F8909EAFEEBFF8C0AAC1882
:105A2400AD197A0E75F006E509A42420F91217675A
:105A3400E9705F7C0679FFAA18AB1912168FE9701A
:105A440051740C121C6BE0F8A3E0F9E8F508E50AC0
:105A54006005EE42088004EEF45208A80879007448
:105A64000C121C6BE0687003A3E0696021A808793C
:105A740000740C121C6BE8F0A3E9F0AC18AD197AB1
:105A84000E75F006E509A42420F9121761E97901DD
:105A940080027900740E121C357F03021D6174F0BC
:105AA400121C8F74E6121C1F890B8A0C8B0DECFEE2
:105AB400EDFF740C121C857A0E75F006E50BA42418
:105AC40020F9121767E96003025BD27C0679FF7440
:105AD4000C121C7D12168FE96003025BD2AC18AD68
:105AE400197A0C7470250BF9121767E96003025BCD
:105AF400CE750A00AA18AB191212CFE50C450D7029
:105B04002E7C0C7900AA18AB1912168FE9600302D7
:105B14005BB47C0C7D007900AA18AB1912162F8A8D
:105B2400088B09850882850983750A01025BB4AC78
